:020000040800F2
:100000001834002001010008915E0008F133000857
:100010008D5E0008C9040008516800080000000057
:1000200000000000000000000000000079600008EF
:10003000F104000800000000995E00087D600008DF
:100040001B0100081B0100081B0100081B01000820
:100050001B0100081B0100081B0100081B01000810
:100060001B0100081B0100081B0100081B01000800
:100070001B010008CD040008D9040008E5040008AD
:100080001B0100081B0100081B0100081B010008E0
:100090001B0100081B0100081B0100081B010008D0
:1000A0001B0100081B0100081B0100081B010008C0
:1000B0001B0100081B0100081B0100081B010008B0
:1000C0001B0100081B0100081B0100081B010008A0
:1000D0001B010008356800081B0100081B0100080F
:1000E0001B0100081B0100081B010008DFF80CD0F1
:1000F00000F0A6F900480047A16800081834002065
:100100000648804706480047FEE7FEE7FEE7FEE7B1
:10011000FEE7FEE7FEE7FEE7FEE7FEE78D6000088C
:10012000ED0000082DE9F05F0546002092469B4651
:1001300088460646814640241BE0284641464746FD
:10014000224600F036F953465A46C01A914110D360
:1001500011461846224600F01DF92D1A67EB0108DA
:100160004F4622460120002100F014F917EB000948
:100170004E41201EA4F10104DFDC484631462A46E8
:100180004346BDE8F09FD2B201E000F8012B491EC2
:10019000FBD270470022F6E710B513460A46044624
:1001A0001946FFF7F0FF204610BD10B5002200E011
:1001B000521C835C8C5CA34201D1002BF8D1D8B2D5
:1001C000E1B2401A10BDF0B480EA0102D40F42003F
:1001D000B2EB410F02D20246084611464A0042D015
:1001E000C30DDDB2C1F3C752AD1A202D35DAC1F30C
:1001F000160141F4000204B15242C5F1200602FA90
:1002000006F12A411044B3EBD05F23D0C4B1012DD5
:10021000A0EBC35009DCF0BC4FF0004202EAC3522D
:10022000DBB200F5000000F0DDB8400000F18070A6
:1002300000EBC350A0F1807040EAD170490009E0A2
:10024000490841EAC071A0EBC35000F50000400826
:1002500000EBC350F0BC00F0BCB86142012202EBDD
:100260004101001BF6E7F0BC704781F00041AAE7AE
:1002700080F00040A7E730B480EA010202F00045B8
:1002800030F0004221F0004013D090B1C30DD40DE6
:10029000C2F31601C0F31600E41A41F4000140F461
:1002A00000027D34914201D3641C00E04900002C1F
:1002B00002DA30BC002070474FF400000023914266
:1002C00001D3891A034340084FEA4101F7D151B1E4
:1002D000914202D14FF0004105E002D24FF00101FE
:1002E00001E06FF0010103EBC450284430BC00F082
:1002F00070B8002801DBC0F10040002901DBC1F12A
:100300000041814201D80120704700207047002839
:1003100001DBC0F10040002901DBC1F10041814255
:1003200001D20120704700207047002801DBC0F196
:100330000040002901DBC1F10041814201D30120CD
:10034000704700207047C10F80EAE0700844CA0778
:100350009623002100F046B896230022114600F0B3
:1003600041B800F0004220F00040C10DC0F316007B
:1003700040F400007F2901DA00207047962903DC51
:10038000C1F19601C84001E096398840002AF4D0B6
:1003900040427047202A04DB203A00FA02F1002094
:1003A00070479140C2F1200320FA03F319439040B3
:1003B0007047202A04DB203A21FA02F0002170471E
:1003C00021FA02F3D040C2F12002914008431946BD
:1003D00070470029A8BF7047401C490008BF20F0A3
:1003E0000100704710B4B0FA80FC00FA0CF050EA3B
:1003F000010404BF10BC704749B1CCF1200421FABC
:1004000004F411FA0CF118BF012121430843A3EBB6
:100410000C01CB1D4FEA00614FEA102042BF0020C3
:1004200010BC704700EBC35010440029A4BF10BC9F
:100430007047401C490008BF20F0010010BC704705
:100440001CB509480090094801900546009C06E04B
:10045000E06840F0010394E8070098471034AC428C
:10046000F6D3FFF747FE0000047800082478000860
:1004700070B58C1810F8015B15F0070301D110F866
:10048000013B2A1106D110F8012B03E010F8016B93
:1004900001F8016B5B1EF9D12B0705D40023521E16
:1004A0000DD401F8013BFAE710F8013BCB1A921C7E
:1004B00003E013F8015B01F8015B521EF9D5A1427C
:1004C000D8D3002070BD0000FEE7000042F60040D7
:1004D000C2F2000000F092B842F68840C2F200007A
:1004E00000F08CB842F64440C2F2000000F086B83A
:1004F00070470000EFF3108072B600BFFEE7000007
:10050000014690F82100022816D10868D1E90FC3EE
:10051000026822F00E020260026822F0010202600C
:10052000012000FA03F2CCF8042081F82100002019
:10053000002281F8202070470420886301200022D7
:1005400081F820207047000090F82110022923D163
:100550000268116821F00E0111602F211368C4F2A6
:1005600002018A4240F20401C4F2020123F00103B5
:10057000136015DD3023C4F202039A421CD04423D9
:10058000C4F202039A421BD05823C4F202039A42D7
:100590001CD14FF4803321E0042181630120704796
:1005A0000823C4F202039A420ED01C23C4F20203B1
:1005B0009A420BD1102311E04FF480730EE000BF7C
:1005C0004FF480530AE000BF012307E001F1680CFB
:1005D0004FF08073624508BF4FF480130B60012118
:1005E00080F82110426B002180F8201022B180B5E4
:1005F00090470021BDE880400846704710B5D0E91B
:100600000FCE0168DCF800300A6823FA0EF35C07AD
:100610002AD512F0040427D00A68920603D40A6887
:1006200022F004020A602F22C4F20202914240F238
:100630000402C4F202025BDD3023C4F202039942D9
:1006400072D04423C4F20203994273D05823C4F2F7
:100650000203994240F07A804FF480231360C16A0C
:10066000002940F098806FE09C0727D512F0020423
:1006700024D00A68920606D40A6822F00A020A60A8
:10068000012280F821202F22C4F20202914240F27E
:100690000402C4F202023BDD3023C4F20203994299
:1006A00060D04423C4F2020399425FD05823C4F2BD
:1006B0000203994260D14FF4003365E01B0743D534
:1006C00012F0080208BF10BD0A6822F00E020A608C
:1006D000012101FA0EF2CCF80420816380F8211088
:1006E000016B0022002980F8202054D12CE000BFAB
:1006F0000823C4F20203994222D01C23C4F202034D
:10070000994223D140231360C16A002943D11BE0E1
:100710000823C4F2020399422CD01C23C4F2020322
:10072000994229D120232FE04FF480631360C16ADE
:1007300089BB09E04FF480431360C16A59BB03E0F1
:1007400004231360C16A31BB10BD00BF02F168040D
:100750004FF08063A14208BF4FF480031360C16A69
:10076000C9B9F1E74FF400730EE000BF4FF4005336
:100770000AE000BF022307E002F168044FF00073B3
:10078000A14208BF4FF400131360816A00220029C0
:1007900080F82020D8D0BDE8104008470146002846
:1007A0004FF0010008BF70472DE9F0470A684FF687
:1007B000F873CBF6FD7302EB030C4CF6CD43CCF68D
:1007C000CC43ACFB033C6FF00307002607EA9C0711
:1007D000C4F2020601F10C0AC1E90F670227D1E950
:1007E000013E9AE83004D1E9069881F82170176833
:1007F00043F6F076B7433B4343EA0E0323432B43D0
:1008000043EA0A0343EA090343EA080313600022A8
:100810008A6381F8210081F820200020BDE8F0479C
:100820007047000090F820C0BCF1010F04BF022007
:100830007047F0B54FF0010E80F820E090F821C02D
:10084000BCF1010F26D14FF0020C80F821C04FF00F
:10085000000CC0F838C0D0E900C4C56AC66BDCF82B
:100860000070102C27F00107CCF80070006C0EFA15
:1008700000F070600846CCF8043004BF10460A4609
:10088000CCF80800CCF80C20DCF8000045B140F0B2
:100890000E000DE0002180F820100220F0BD00BF06
:1008A00020F00400CCF80000DCF8000040F00A0062
:1008B000CCF80000DCF8000040F00100CCF80000AB
:1008C0000020F0BDB0B5044600F024F9054640F222
:1008D0000400C2F200000078611C18BF044400BF8D
:1008E00000F018F9401BA042FAD3B0BD2DE9F04F3B
:1008F00082B00E68002E00F0FD8041F20042C4F28A
:100900000102042340F2004E904208BF03234FF639
:10091000FF7CC4F2010E009300240123C1F2100CED
:100920004FF0000A4FF0000944E000BF012704F037
:100930000C030F229A402BEA020207FA03F34FEA54
:100940009A051A4346F825204E6840F20C45F202FB
:10095000DEF8082054BF22EA080242EA0802C4F284
:100960000105CEF808202A68B30254BF22EA080223
:1009700042EA08022A60B303DEF8042054BF22EAE8
:10098000080242EA0802F303CEF80420DEF8002051
:100990004FF0010354BF22EA080242EA0802CEF8EF
:1009A00000200E680AF1010A36FA0AF204F1040482
:1009B00000F0A08003FA0AFB16EA0B08F1D04E689B
:1009C000664511DC122E55D8DFE806F0340A44489B
:1009D000545454545454545454545454544C500037
:1009E000D1F80C9046E000BF4FF6FF72C1F2210231
:1009F00096420FDC0022C1F2110296421AD0002268
:100A0000C1F21202964215D00022C1F22102964292
:100A100010D02FE00022C1F2220296420AD000221A
:100A2000C1F23102964205D00022C1F23202964252
:100A300020D100BF8A684AB1012A14BFC0F814B09F
:100A4000C0F810B04FF0080914E000BF4FF00409DF
:100A500010E000BFCA6802F108090BE04FF000097E
:100A600008E000BFCA6802F1040903E0CA6802F1A5
:100A70000C0900BF22460646B8F5807F24BF203A05
:100A8000043637680F25954027EA050509FA02F272
:100A90002A433260CA79D2067FF583AF41F2180348
:100AA000C4F202031A68AEF57E7642F001021A60C3
:100AB0001A6802F001020192019A2AF0030256F824
:100AC00002B040F60002C4F20102904210D040F69B
:100AD0000042C4F2010290423FF428AF41F200020A
:100AE000C4F20102009F904208BF02271FE700BF27
:100AF00000271CE702B0BDE8F08F000080680840C6
:100B000018BF012070470000002A08BF09040161D6
:100B10007047000043F21400C2F200000068704702
:100B200070470000002804BF01207047F0B581B075
:100B3000044690F83D0028B9002084F83C00204687
:100B400000F06AFC242084F83D002068016821F050
:100B500001010160016841F400410160016821F474
:100B60000041016000F036FE636848F2A16CC0F2FB
:100B7000010C40F60011C0F23D0163453CBF48F254
:100B80008041C0F21E01884202D2012001B0F0BDB6
:100B90004DF68361C4F21B31A0FB01122168970C52
:100BA000D1F804E04FF496762EF03F0545EA9245E1
:100BB0004D60774348F638160D6AC0F24106A7FB30
:100BC000067625F03F07634538BF960C721C3A4302
:100BD0000A62CA6948F2A0664CF6FF77C0F20106C5
:100BE000B34222EA07020BD801385B00B0FBF3F0F6
:100BF00001306FF31F30042898BF04201BE000BFB2
:100C0000A768013857B119277B43B0FBF3F00130D7
:100C10006FF31F3070B100F5804007E003EB430332
:100C2000B0FBF3F001306FF31F3018B100F5004056
:100C300001E000BF01201043C8610868D4E9072320
:100C400020F0C000104318430860886848F2FF3263
:100C500004F10C0790438CCF18431043A6698860B9
:100C6000C86820F0FF0038433043C860086840F08F
:100C70000100086000202021206484F83D102063DA
:100C800084F83E0001B0F0BD704700002DE9F04748
:100C900084B0044600201F46164689460290FFF79E
:100CA00039FF94F83D10202924D10546206800BF63
:100CB000816989071AD5FFF72DFF411B20681A2982
:100CC000F6D381698907F3D500202021206384F8B9
:100CD0003D1084F83E00216C41F02001216484F82D
:100CE0003C00022004B0BDE8F08700BF94F83C103F
:100CF000012903D1022004B0BDE8F087012184F866
:100D00003C100168C90703D1016841F0010101608D
:100D10000168DDF8308021F400610160222184F84F
:100D20003D10102184F83E10002121646662678521
:100D3000618D0227C0F201072185A7F10211E1624E
:100D4000E16A026811F5803F42F48062026018BFD8
:100D500001293DD1016841F48071016020464FF0C6
:100D6000011100224346009502F058FC50B1206862
:100D70000068C00544BF4FF400702064012004B037
:100D8000BDE8F0872069B0F5804F27D149F0010018
:100D9000C0B2216842460861204639462B4602F01F
:100DA00023FD0028EAD1208D02284BD001285FD0F6
:100DB000002840F07380002003902068416903916F
:100DC000816903910399016841F40071016071E048
:100DD0000829BFD0216B1129BCD0BFE7062000EA4B
:100DE000D916206806F1F0010161B91D204642467E
:100DF0002B4602F0F9FC0028C0D120685FFA89F187
:100E000001612046394642462B4602F0EDFC00289F
:100E1000B4D1002003902068002241694346039129
:100E2000816903910399016841F480710160204652
:100E30004FF00111009502F0F1FB002897D146F028
:100E4000F100A6E72068016841F400610160EFF35A
:100E5000108072B600200390206841690391816977
:100E600003910399016821F48061016062B621E079
:100E70002068016821F480610160EFF3108072B690
:100E800000200390206841690391816903910399CF
:100E9000016841F40071016062B60BE020680168EE
:100EA00041F48061016000210391416903918069EF
:100EB00003900398208D002800F0CC8040F20C09AC
:100EC0004BF2895A0237C2F20009C1F2F84A2326CE
:100ED0000EE000BF10690870606A218D0130606209
:100EE000481E2085618D01396185010400F0B280C2
:100EF00080B203280CD802282CD001284AD12046E1
:100F000041462A4602F0DCFC002800F09F8035E7CD
:100F1000204641462A4602F0D3FC00287FF42EAF3B
:100F20002068616A00690870606A2268411C208D2F
:100F3000616201382085638D013B638553695B07DE
:100F4000D3D580B20328C5D1106820F4806010602A
:100F5000C0E700BF2046394600224346009502F014
:100F60005DFB00287FF40AAFEFF3108072B62068B3
:100F7000616A026842F40072026000690870606A87
:100F8000218D01306062481E2085608D01386085AA
:100F900062B65BE02046394600224346009502F0E7
:100FA0003DFB00287FF4EAAE2068016821F48061EF
:100FB0000160EFF3108072B62068616A0069087002
:100FC000606A218D0130013960622185618D0139AE
:100FD0006185D9F80010C908A1FB0A12110A7143F2
:100FE0000291029901390291029900293ED02168AB
:100FF0004A6952071AD40299013902910299A9B398
:1010000021684A69520711D4029901390291029963
:1010100061B321684A69520708D4029901390291E3
:10102000029919B321684A695207DAD50A6842F46D
:1010300000720A6009690170606A218D0130606286
:10104000481E2085608D0138608562B62068616A1F
:10105000006940E7202084F83D00002084F83E002D
:1010600084F83C0004B0BDE8F08700BF00202021D8
:10107000206384F83D1084F83E00216C41F020018B
:10108000216462B684F83C00012004B0BDE8F0871A
:101090002DE9F04383B01E46174689460446FFF704
:1010A00039FD94F83D10202924D10546206800BF61
:1010B000816989071AD5FFF72DFD411B20681A2980
:1010C000F6D381698907F3D500202021206384F8B5
:1010D0003D1084F83E00216C41F02001216484F829
:1010E0003C00022003B0BDE8F08300BF94F83C1040
:1010F000012903D1022003B0BDE8F083012184F867
:101100003C100168C90703D1016841F00101016089
:10111000016840F2020821F400610160212184F895
:101120003D10102184F83E1000212164676266851D
:10113000618DC0F201082185A8F10211E162E16A26
:101140000A9E11F5803F18BF01291DD1016841F4A5
:101150008071016020464FF0011100223346009556
:1011600002F05CFA50B120680068C00544BF4FF43B
:1011700000702064012003B0BDE8F0832069B0F561
:10118000804F07D1FE2015E00829DFD0216B1229FE
:10119000DCD0DFE7062000EAD9102168F0300861D2
:1011A00008F10601204632462B4602F01DFB0028BE
:1011B000E0D1FF20216800EA09000861204641468D
:1011C00032462B4602F010FB0028D3D100200290BB
:1011D00020684169029180690290029806E000BF90
:1011E000204631462A4602F0BBF918BB208D68B371
:1011F000204631462A4602F0ABFBD8B9606A216826
:10120000024612F8013B0B616262628D013A62850F
:10121000228D531E23854F697F07E1D51B04DFD044
:10122000437802300B616062608D01386085901EEA
:101230002085D5E7206C04289CD12068016841F402
:1012400000710160012003B0BDE8F08320680168EF
:1012500041F400710160202084F83D00002084F8F2
:101260003E0084F83C0003B0BDE8F08370B582B066
:1012700004460020019094F83D00202837D140F228
:101280000C00C2F2000000684BF28956C008C1F29F
:10129000F846A0FB0606300A192670430190019813
:1012A00001380190019838B32568A86980071AD5DC
:1012B0000198013801900198F0B12568A86980076C
:1012C00011D50198013801900198A8B12568A86945
:1012D000800708D5019801380190019860B1256810
:1012E000A8698007DBD494F83C00012814D10226B9
:1012F000304602B070BD00BF00202021206384F87A
:101300003D1084F83E00206C022640F0200020644E
:10131000304602B070BD00BF012084F83C00286850
:10132000C00703D1286840F0010028602868002623
:1013300020F400602860212084F83D00102084F80B
:101340003E00266462626385638D0020CFF6FF70E5
:101350002385E06261642BB3606BA8B343F2314133
:1013600043F2F53CC0F60001C0F6000C00F1280E77
:101370008EE8421005F1100C114662464663FFF7F5
:1013800051FA88B3202084F83D0084F83E60206C38
:1013900040F01000206484F83C600126304602B022
:1013A00070BD00BF286840F480602860286840F461
:1013B0008070286084F83C60686840F4E060686091
:1013C000304602B070BD00BF202084F83D000020F0
:1013D00084F83E00216C012641F08001216484F8EC
:1013E0003C00304602B070BD206884F83C60416823
:1013F00041F440714160416841F40061416001681D
:1014000041F480610160016841F4807101603046FF
:1014100002B070BD7047000010B586B045F60001FF
:101420000068C4F2000100228842049202D006B093
:1014300010BD00BF41F21804C4F20204206840F05D
:1014400008002060206800F00800019001984FF427
:1014500040600290122003900320059001F5344073
:1014600002A9FFF743FA606840F48000606060689A
:1014700000F480000190019806B010BD7047000094
:101480007047000040F2040043F21401C2F2000071
:10149000C2F2000100780A6810440860704700003A
:1014A00080B542F20000C4F20200016841F0100170
:1014B0000160032000F08CF8002000F005F800F037
:1014C00027F8002080BD000070B540F20406C2F28B
:1014D000000640F20C013278C2F200014FF47A7338
:1014E0000968B3FBF2F20446B1FBF2F1084601F0E1
:1014F00031F80F2C4FF0010508D838B94FF0FF3004
:1015000021460022002500F037F87460284670BD9F
:1015100082B041F21800C4F202000168022241F0D8
:1015200001010160016801F0010101910199416827
:1015300041F080514160406800F080500090009878
:101540000420C4F20100016862F31A61016002B074
:1015500070470000002848BF704700F01F010122BB
:1015600002FA01F11C2202EAD0004EF20012CEF281
:10157000000281507047000010B54EF60C5CCEF2B0
:10158000000CDCF80030C3F3022E8EF00704042CAC
:1015900028BF0424BEF103034FF0FF3E0EFA04F40B
:1015A00038BF0023A14399400EFA03F39A43114335
:1015B00000F00F0200F160430901043A03F56443AF
:1015C0006244002848BF02F10C03197010BD0000EE
:1015D0004EF60C51CEF200010A684FF6FF031A4096
:1015E00060F30A2242F0806040F0FD7008607047AE
:1015F00070470000002804BF012070472DE9F04328
:1016000081B042F20008C4F202080446D8F8000093
:101610000D4600F0070088420CD2D8F8000020F0F8
:1016200007002843C8F80000D8F8000000F00700C1
:10163000A8426ED1206841F204098107C4F2020970
:1016400017D5410705D5D9F8001041F4E061C9F874
:101650000010010705D5D9F8001041F46051C9F810
:101660000010D9F80010A26821F0F0011143C9F868
:101670000010C00744D1D8F8000000F00700A842CD
:101680000CD9D8F8000020F007002843C8F8000063
:10169000D8F8000000F00700A8423AD120684107BE
:1016A00007D5D9F80010E26821F4E0611143C9F8C8
:1016B0000010000708D5D9F80000216920F4605017
:1016C00040EAC100C9F80000D9F8001041F6003026
:1016D00001F00C02042AC0F2B70059D0082A45D103
:1016E00046F63663C1F38342C0F600039A5CC90331
:1016F00042D440F60010C0F23D00504348E000BF25
:10170000606802280AD001282AD159F8041C8903EC
:1017100008D4012001B0BDE8F08300BF59F8041CD3
:101720008901F6D5D9F8001021F003010843C9F862
:101730000000FFF7EFF9064641F28837D9F80000BC
:10174000616800F00C00B0EB810F94D0FFF7E2F974
:10175000801BB842F2D9032001B0BDE8F08300BF7E
:1017600059F8041C8907D4D5DCE700BF41F20020FA
:10177000C0F27A000CE000BFD9F8001046F63463DE
:10178000C1F34041C0F60003595C5043B0FBF1F097
:10179000D9F8001046F61C62C1F30311C0F600022E
:1017A000515C40F20C0220FA01F140F20800C2F252
:1017B00000000068C2F200021160FFF785FE002001
:1017C00001B0BDE8F08300004C20C4F242200121AA
:1017D0000160704740F20C0041F20401C2F20000C7
:1017E000C4F202010068096846F62C62C1F30221C6
:1017F000C0F60002515CC8407047000040F20C0087
:1018000041F20401C2F20000C4F20201006809685A
:1018100046F62C62C1F3C221C0F60002515CC840FA
:101820007047000010B541F20804C4F202042068B9
:10183000000658BF10BDFFF7DBFE8020A07010BD72
:10184000002804BF012070472DE9F04182B0044612
:10185000007841F20006C007C4F202060CD070689E
:1018600000F00C00042840F081803068800303D52C
:101870006068002800F04E81207880071BD57068D2
:1018800010F00C0F09D0706800F00C00082840F030
:101890008B807068C00300F187803068800703D5B3
:1018A0002069012840F036813068616920F0F80035
:1018B00040EAC10030602078000713D42078400748
:1018C0002CD4E569002D00F02081706800F00C0038
:1018D000082840F0AF80012D40F00C81012002B0BB
:1018E000BDE8F081A069002800F08C800020C4F2DF
:1018F00042200121C0F88014FFF70CF9054600BF13
:10190000706A800700F1BA80FFF704F9401B0228D3
:10191000F6D9032002B0BDE8F08100BFF0695FEAAC
:10192000C00808D4F06940F08050F061F06900F020
:1019300080500090009847F20007C4F20007386812
:10194000C0054DD4386840F480703860FFF7E2F885
:10195000054600BF3868C00542D4FFF7DBF8401BDE
:101960006428F7D9032002B0BDE8F081706800F068
:101970000C00082803D17068C0033FF576AF60689B
:10198000002800F00981B0F5A02F00F01D81B0F50E
:10199000803F00F01D81306820F480303060306876
:1019A00020F4802017E100BF2069002840F20000E9
:1019B000C4F2422000F08C8001210160FFF7AAF8F8
:1019C000054600BF306880073FF56EAFFFF7A2F80D
:1019D000401B0228F6D9032002B0BDE8F08100BF09
:1019E000E068002800F09A80052800F0B180012806
:1019F00000F0B280306A20F001003062306A20F0DE
:101A00000400ACE00020C4F242200021C0F88014A1
:101A1000FFF780F8054600BF706A80077FF54EAF7C
:101A2000FFF778F8401B0228F6D9032002B0BDE882
:101A3000F08100BF0027C4F2422700203866FFF77C
:101A400069F8022D05460DD13068800140F1D6803D
:101A5000FFF760F8401B02284FF00300F4D902B0F2
:101A6000BDE8F081306880014FD5FFF753F8401B87
:101A700002284FF00300F5D9F1E700BF40F20C0057
:101A8000C2F20000006844F6D351C1F26201A0FB2B
:101A90000101480A019000BF00BF0198411E0028C3
:101AA00001913FF40BAF00BF0198411E0028019146
:101AB0003FF404AF00BF0198411E002801913FF49C
:101AC000FDAE00BF0198411E00280191E4D1F5E66A
:101AD00000210160FFF71EF8054600BF306880074F
:101AE0007FF5E9AEFFF716F8401B02284FF0030020
:101AF000F4D9B4E77068216A00F480328A4209D1CF
:101B0000616A00F47010884204D1002002B0BDE880
:101B1000F08100BF012002B0BDE8F081306A20F002
:101B200001003062306A20F004003062FEF7F2FFFC
:101B3000054641F2883700BF306A800722D5FEF79C
:101B4000E9FF401BB8424FF00300F5D987E700BF1B
:101B5000306A40F004003062306A40F001003062C8
:101B6000FEF7D8FF054641F2883700BF306A80078C
:101B700008D4FEF7CFFF401BB842F7D9032002B0CC
:101B8000BDE8F081B8F1000F3FF59BAEF06920F0A1
:101B90008050F06195E600BF306820F480303060FE
:101BA000306820F480203060FEF7B4FF054600BFA7
:101BB000306880037FF560AEFEF7ACFF401B642801
:101BC0004FF00300F4D94AE7306840F480203060D9
:101BD000306840F480303060FEF79CFF054600BF5F
:101BE000306880033FF548AEFEF794FF401B642841
:101BF000F6D9032002B0BDE8F08100BF206AB0F53D
:101C0000803F05D17168A26821F4003111437160F1
:101C10007168626A21F474111143084370600120F5
:101C20003866FEF777FF0446306880013FF56DAFF8
:101C3000FEF770FF001B02284FF00300F4D90EE7F7
:101C40007047000070B538B10446406A30B10020DA
:101C5000206104F1140007E0012070BD6068B0F558
:101C6000827F03D004F11C00002101600026A662DF
:101C700094F8510020B9204684F8506000F038F8FC
:101C8000022084F8510094E8071001F4827103687F
:101C900002F4044223F040030360236911440CF46E
:101CA0000062114403F002026369114403F001026F
:101CB000A369E569114403F40072114405F0380288
:101CC000256A114405F08002A56A114305F400520B
:101CD00011430160042101EA13414160C16921F40B
:101CE0000061C1610120666584F85100304670BD15
:101CF0002DE9F04186B040F600450446C4F20105E6
:101D0000006805F5105100278842049702D006B0FC
:101D1000BDE8F08141F21800C4F20200016802AE91
:101D200041F480510160016801F4805101910199F1
:101D3000016841F0080101600068314600F00800C8
:101D40000190019828200290022003900320059022
:101D50002846FEF7CBFD4FF0100828463146CDE966
:101D600002870497FEF7C2FD0420C4F20100016857
:101D700042F6004541F0E06141F001010160302090
:101D8000C2F20005C4F202008021C5E9000828461D
:101D9000C5E90271C5E90477C5E90677FEF7FEFCDF
:101DA000002818BFFEF7A6FBA5646C6206B0BDE86C
:101DB000F08100002DE9F04182B0044690F8510016
:101DC000012819D160681D4617460E46B0F5827F7E
:101DD00001D1A068A0B1FEF79DFE8046002E4FF015
:101DE000010018BF002F03D102B0BDE8F08100BF91
:101DF00094F85000012811D1022002B0BDE8F08112
:101E0000042084F851002046314632463B46009576
:101E100000F0CEF902B0BDE8F08100BF012084F8E7
:101E200050000420002184F851006165A663A78753
:101E3000E7872163A186E186A2682068B2F5004F9A
:101E40002164616438D00168490640D5E168E08FBB
:101E5000002944D000287BD0681C0CD11BE000BFB7
:101E6000C068A16B21F8020BA163E08F0138E08705
:101E7000E08F00286CD020688168C907F0D1FEF798
:101E800049FEA0EB0800A842F2D342E0FEF742FE72
:101E9000E08F00285CD020688168C907F6D0C06850
:101EA000A16B21F8020BA163E08F0138E087E08F7E
:101EB0000028F0D14CE000BF016821F04001016032
:101EC000016821F48041016001684906BED40168BF
:101ED00041F040010160E168E08F0029BAD1B8B358
:101EE000681C0CD124E000BF007BA16B0870A06BC4
:101EF0000130A063E08F0138E087E08F40B32068B5
:101F00008168C907F0D1FEF705FEA0EB0800A842E2
:101F1000F3D3012084F85100002084F850000320FE
:101F200002B0BDE8F08100BFFEF7F4FDE08F78B1AC
:101F300020688168C907F7D0007BA16B0870A06B8F
:101F40000130A063E08F0138E087E08F0028EFD1F7
:101F50006068B0F5827F11D1A068B0F5004F02D063
:101F6000B0F5806F0AD12168B0F5806F0A6822F061
:101F700040020A6002D12046012101E02046802172
:101F800000222B46CDF8008003F0E6FF28B1606DFB
:101F900040F02000606520206065012084F8510039
:101FA000002084F85000606D002818BF012002B0A6
:101FB000BDE8F0812DE9F04182B01D4616460F467E
:101FC0000446FEF7A7FD94F8511001290ED1804672
:101FD000002F4FF0010018BF002E03D102B0BDE862
:101FE000F08100BF94F85000012803D1022002B014
:101FF000BDE8F081012084F850000320002184F81E
:10200000510061652763A686E686A163A187E18703
:10201000A0682164B0F5004F2068616407D10168B1
:1020200021F040010160016841F4804101600168D4
:10203000490603D4016841F0400101606168731EE4
:10204000E268B1FA81F1B3FA83F349095B09B2F5A9
:10205000006F41EA030139D131B137F8021BC16089
:102060002763E08E0138E086E08E002870D0681C7F
:102070000BD11AE0216B31F8022BC2602163E08E94
:102080000138E086E08E002862D0206881688907E8
:10209000F0D4FEF73FFDA0EB0800A842F2D338E0F1
:1020A000FEF738FDE08E002852D02068816889074D
:1020B000F6D5216B31F8022BC2602163E08E013826
:1020C000E086E08E0028F0D142E000BF39B13978D7
:1020D0000173206B01302063E08E0138E086E08ED2
:1020E000B0B3681C0BD123E0216B09780173206B1E
:1020F00001302063E08E0138E086E08E40B3206836
:1021000081688907F0D4FEF705FDA0EB0800A8421E
:10211000F3D3012084F85100002084F850000320FC
:1021200002B0BDE8F08100BFFEF7F4FCE08E78B1AC
:10213000206881688907F7D5216B09780173206BC6
:1021400001302063E08E0138E086E08E0028EFD178
:102150002046022101222B46CDF8008003F0FCFE30
:1021600040B92046802100222B46CDF8008003F0A4
:10217000F3FE28B1606D40F02000606520206065AE
:10218000A06838B9002001902068C168019180687A
:1021900001900198012084F85100002084F850003B
:1021A000606D002818BF012002B0BDE8F08100007A
:1021B0002DE9F04383B01E4615460F460446FEF750
:1021C000A9FC94F851108146012909D1002F4FF044
:1021D000010018BF002D0FD103B0BDE8F08300BF90
:1021E0006068B0F5827F0DD104294FF00200F3D171
:1021F000A1680029EAD0EFE7002EEDD094F8500056
:10220000012803D1022003B0BDE8F083012084F847
:10221000500094F85100002104281CBF052084F8C8
:1022200051006165A563E687A6872763E686206877
:10223000A686216461640168490603D4016841F0FF
:10224000400101606168731EE268B1FA81F1B3FA7E
:1022500083F3DDF8288049095B09B2F5006F41EA94
:10226000030165D131B137F8021BC1602763E08EED
:102270000138E086012518F1010032D102E000BFEB
:10228000FEF748FCE08E18B9E08F002800F0B88017
:102290002068816889070CD5E18E51B1012D08D1E4
:1022A000216B002531F8022BC2602163E18E0139D8
:1022B000E1868168C907E3D0E18F0029E0D0C068DA
:1022C000A16B012521F8020BA163E08F0138E087A3
:1022D000D6E700BFFEF71EFCA0EB0900404580F0EA
:1022E000AF80E08E18B9E08F002800F08980206868
:1022F000816889070CD5E18E51B1012D08D1216B80
:10230000002531F8022BC2602163E18E0139E1869C
:102310008168C907DED0E18F0029DBD0C068A16BDE
:10232000012521F8020BA163E08F0138E087D1E796
:1023300039B139780173206B01302063E08E0138A8
:10234000E086012518F1010032D101E0FEF7E2FB41
:10235000E08E10B9E08F002852D02068816889078C
:102360000ED5E18E61B1012D0AD1216B00250978CE
:102370000173216B206801312163E18E0139E1860F
:102380008168C907E2D0E18F0029DFD0C068A16B66
:1023900001250870A06B0130A063E08F0138E08751
:1023A000D4E700BFFEF7B6FBA0EB0900404547D2DB
:1023B000E08E08B9E08F18B32068816889070ED5D0
:1023C000E18E61B1012D0AD1216B002509780173DD
:1023D000216B206801312163E18E0139E18681683A
:1023E000C907DFD0E18F0029DCD0C068A16B0125CF
:1023F0000870A06B0130A063E08F0138E087D1E75F
:102400002046022101224346CDF8009003F0A4FDAE
:1024100040B92046802100224346CDF8009003F0C9
:102420009BFDB8B1606D40F02000606520206065C4
:10243000002084F85000012003B0BDE8F08300BF05
:10244000012084F85100002084F85000032003B0DC
:10245000BDE8F083A06838B9002002902068C16808
:102460000291806802900298012084F851000020B7
:1024700084F85000606D002818BF012003B0BDE84B
:10248000F0830000B0B5044690F8510001280BD14C
:1024900000294FF0010018BF002A01D1B0BD00BFD4
:1024A00094F85000012801D10220B0BD012084F829
:1024B00050000320002384F8510063652163A28645
:1024C000E286A363C4E91033A387E387A068226888
:1024D000B0F5004F07D1106820F040001060106880
:1024E00040F480401060A06C45F6BD6C45F6C56EAA
:1024F00045F69D65C0F6000CC0F6000EC0F600055E
:10250000C0E90AECC0E90C53E38E0C32FEF78AF9FD
:1025100040B1606D40F010006065002084F850000C
:102520000120B0BD21680868400603D4086840F067
:1025300040000860002084F850004A6842F0200201
:102540004A604A6842F002024A60B0BD704700002B
:1025500070470000411E0020B0EB116F1CBF01202E
:1025600070474EF21002CEF2000251604EF6235137
:10257000CEF20001F0230B700721906011607047CC
:102580007047000010B504460068416994F8412086
:10259000212A56D111F0800153D000BF206850E8A5
:1025A000050F216820F0800041E80502DAB12068BB
:1025B00050E8050F216820F0800041E8050292B143
:1025C000206850E8050F216820F0800041E80502EE
:1025D0004AB1206850E8050F216820F0800041E8EA
:1025E0000502002ADAD1A06B002818BFFDF788FF8A
:1025F000206850E8030F216820F0C00041E8030282
:10260000DAB1206850E8030F216820F0C00041E8EB
:10261000030292B1206850E8030F216820F0C00047
:1026200041E803024AB1206850E8030F216820F016
:10263000C00041E80302002ADAD1202084F84100DA
:102640002068406994F84210222940F0A78010F0D9
:10265000400000F0A38000BF206850E8050F21680B
:1026600020F0400041E80502DAB1206850E8050F8B
:10267000216820F0400041E8050292B1206850E84E
:10268000050F216820F0400041E805024AB12068AA
:1026900050E8050F216820F0400041E80502002ABB
:1026A000DAD1E06B002818BFFDF72AFF206850E858
:1026B000030F216820F4907041E80302BAB3206848
:1026C00050E8030F216820F4907041E8030272B3D0
:1026D000206850E8030F216820F4907041E803025D
:1026E0002AB3206850E8030F216820F4907041E875
:1026F0000302002ADAD11AE0206850E8050F2168A9
:1027000020F0010041E80502DAB1206850E8050F29
:10271000216820F0010041E8050292B1206850E8EC
:10272000050F216820F0010041E805024AB1206848
:1027300050E8050F216820F0010041E80502002A59
:10274000DAD1206B012824D1206850E8030F2168DA
:1027500020F0100041E80302DAB1206850E8030FCE
:10276000216820F0100041E8030292B1206850E88F
:10277000030F216820F0100041E803024AB12068ED
:1027800050E8030F216820F0100041E80302002AFE
:10279000DAD1202084F8420000202063002010BD00
:1027A00070470000B0B582B0044600680168C36895
:1027B000426901F02F05202D03F0200506D12DB12F
:1027C000204602B0BDE8B04003F0B4BF5FEA017C30
:1027D0001EBF02F0010E03F4907212EB0E0243D101
:1027E000226BCD0618D5012A16D113F0100213D092
:1027F00000210191016801914168019101994069AD
:1028000040063BD4A08DE18DE28D002A18BF88429E
:1028100040F0F28102B0B0BD0A0640F1E78013F04B
:10282000800200F0E38094F841102129F2D1A168E0
:10283000B1F5805F03D12169002900F06382216A2C
:102840004A1C226209784160E18C01390A04E18462
:10285000E0D1C16821F08001C160C16841F0400150
:10286000C16002B0B0BD00BFCA0718BF13F48072C8
:1028700040F0D0804A0700F1D380D8E0E06B0168D7
:1028800049688AB2002AC5D0A38D9A42C2D2E18596
:102890008069202800F09E80206850E8030F21689E
:1028A00020F4807041E80302DAB1206850E8030F99
:1028B000216820F4807041E8030292B1206850E85A
:1028C000030F216820F4807041E803024AB12068B8
:1028D00050E8030F216820F4807041E80302002AC9
:1028E000DAD1206850E8050F216820F0010041E8A6
:1028F0000502C2B3206850E8050F216820F00100EE
:1029000041E805027AB3206850E8050F216820F0FD
:10291000010041E8050232B3206850E8050F216844
:1029200020F0010041E80502002ADAD11BE000BFD7
:10293000206850E8050F216820F0400041E80502BA
:10294000DAB1206850E8050F216820F0400041E826
:10295000050292B1206850E8050F216820F0400080
:1029600041E805024AB1206850E8050F216820F0CF
:10297000400041E80502002ADAD1202084F8420014
:1029800000202063206850E8030F216820F0100029
:1029900041E80302DAB1206850E8030F216820F013
:1029A000100041E8030292B1206850E8030F21684B
:1029B00020F0100041E803024AB1206850E8030FFC
:1029C000216820F0100041E80302002ADAD1E06B10
:1029D000FDF796FD02206063A08DE18D401A81B263
:1029E000204602B0BDE8B040FFF7CABD49067FF5FA
:1029F00011AF13F040013FF40DAFC16821F0400169
:102A0000C1602021204684F8411002B0BDE8B040EA
:102A100000F03ABC626C42F0010262644A0706D5DB
:102A2000BEF1000F03D0626C42F0020262648A07BA
:102A300006D5BEF1000F03D0626C42F0040262645E
:102A4000BCF1000F06D55EEA050203D0626C42F0CD
:102A500008026264626C002A3FF4DCAE890604D589
:102A60001DB1204603F066FE20684069616C00F0ED
:102A7000400001F00801401800F0B680206850E8DE
:102A8000030F216820F4907041E80302BAB3206874
:102A900050E8030F216820F4907041E8030272B3FC
:102AA000206850E8030F216820F4907041E8030289
:102AB0002AB3206850E8030F216820F4907041E8A1
:102AC0000302002ADAD11AE0206850E8050F2168D5
:102AD00020F0010041E80502DAB1206850E8050F56
:102AE000216820F0010041E8050292B1206850E819
:102AF000050F216820F0010041E805024AB1206875
:102B000050E8050F216820F0010041E80502002A85
:102B1000DAD1206B012824D1206850E8030F216806
:102B200020F0100041E80302DAB1206850E8030FFA
:102B3000216820F0100041E8030292B1206850E8BB
:102B4000030F216820F0100041E803024AB1206819
:102B500050E8030F216820F0100041E80302002A2A
:102B6000DAD1202084F842000020206320684069E8
:102B7000400640F1C180206850E8050F216820F030
:102B8000400041E80502DAB1206850E8050F2168ED
:102B900020F0400041E8050292B1206850E8050F9E
:102BA000216820F0400041E805024AB1206850E861
:102BB000050F216820F0400041E80502002ADAD123
:102BC000E06B002800F0988046F23541C0F6000125
:102BD0004163FDF7B9FC00283FF41CAEE06B416B8C
:102BE00002B0BDE8B04008472046FFF7D9FD0020FD
:102BF000606402B0B0BD00BF401A00BF216851E858
:102C0000031F226821F4907142E80313BBB32168CB
:102C100051E8031F226821F4907142E8031373B353
:102C2000216851E8031F226821F4907142E80313E0
:102C30002BB3216851E8031F226821F4907142E808
:102C40000313002BDAD11AE0216851E8051F22682E
:102C500021F0010142E80513DBB1216851E8051FAD
:102C6000226821F0010142E8051393B1216851E87F
:102C7000051F226821F0010142E805134BB12168CC
:102C800051E8051F226821F0010142E80513002BDD
:102C9000DAD1202184F8421000212163216851E813
:102CA000031F226821F0100142E80313DBB1216801
:102CB00051E8031F226821F0100142E8031393B189
:102CC000216851E8031F226821F0100142E8031334
:102CD0004BB1216851E8031F226821F0100142E83E
:102CE0000313002BDAD1022281B22046626302B0C4
:102CF000BDE8B040FFF744BC204602B0BDE8B0409C
:102D0000FFF74EBD216A31F8022B6FF35F2242605C
:102D1000216299E510B582B0006843F60001C4F263
:102D20000101884202D002B010BD00BF42F67850C7
:102D3000C2F20000006842F610740168C2F200049A
:102D400009071DD40168C906EDD50021019101686C
:102D5000019140680190019842F67850C2F200005B
:102D6000FFF710FC42F64440C2F2000000684068E1
:102D7000C0F1FF002080012084F8010119E000BFAC
:102D8000002101910268019242680192019A019129
:102D90000268019242680192019A019101680191D1
:102DA00040680190019842F67850C2F20000FFF7A7
:102DB000E9FB42F67850A11CC2F20000FF2202B0EB
:102DC000BDE8104000F0F0B8002804BF01207047B3
:102DD00010B5044690F8410028B9002084F840005E
:102DE000204600F063F8242084F841002068D4E9EC
:102DF0000212C36823F40053C360036923F44053F1
:102E00001A430261D4E904231143C268194341F211
:102E10000C639A431143C1604169A26921F4407176
:102E2000114343F60002C4F201029042416103D013
:102E3000FEF7D0FC02E000BFFEF7E0FCD4E900237F
:102E4000192148439900B0FBF1F048F21F5CC5F22C
:102E5000EB1CA0FB0C314FF69C734909C0F6FF73C5
:102E600001FB0300322303EB0010A0FB0C03F02056
:102E700000EA531000EB0110C3F3431108449060C3
:102E80001069202120F490401061506920F02A0040
:102E90005061D06840F40050D0600020606484F835
:102EA000411084F84210606310BD00002DE9F0432A
:102EB00085B040F600050446C4F20105006805F53A
:102EC000405100278842039702D005B0BDE8F08347
:102ED00041F21800C4F20200016801AE41F48041E1
:102EE0000160016840F2440801F4804100910099BA
:102EF0000168C4F2020841F0040101600068314633
:102F000000F00400009000984FF40070019002203F
:102F10000290032004902846FDF7E8FC4FF48060FF
:102F2000CDE90107284631460397FDF7DFFC42F65D
:102F3000444508F11400C2F20005802620214FF418
:102F40008059C5E900072846C5E90276C5E9047736
:102F5000C5E90619FDF722FC002818BFFDF7CAFADB
:102F6000E5636C6242F68845C2F20005102000213C
:102F7000C5E900802846C5E90216C5E90411C5E97E
:102F80000619FDF70BFC002818BFFDF7B3FA252042
:102F900000210022A5636C62FEF7EEFA2520FEF701
:102FA000D9FA05B0BDE8F08370B582B0044690F858
:102FB000420020280AD113460A4600294FF001009A
:102FC00018BF002B06D102B070BD00BF022002B0B6
:102FD00070BD00BF002522202563A262A385656421
:102FE00084F842002168E06B46F2BD5C46F21D7E2B
:102FF00046F24146C0F6000CC0F6000EC0F60006D0
:103000000431C0E90ACEC0E90C65FDF70BFC01955F
:10301000206801680191406801900198206928B3F7
:10302000206850E8030F216840F4807041E80302F3
:10303000E2B1206850E8030F216840F4807041E855
:1030400003029AB1206850E8030F216840F48070B1
:1030500041E8030252B1206850E8030F216840F4B0
:10306000807041E80302002ADAD100BF206850E8EE
:10307000050F216840F0010041E80502BAB320685D
:1030800050E8050F216840F0010041E8050272B3E5
:10309000206850E8050F216840F0010041E8050272
:1030A0002AB3206850E8050F216840F0010041E88C
:1030B0000502002ADAD11AE0206850E8050F2168DD
:1030C00040F0400041E80502DAB1206850E8050F01
:1030D000216840F0400041E8050292B1206850E8C4
:1030E000050F216840F0400041E805024AB1206820
:1030F00050E8050F216840F0400041E80502002A31
:10310000DAD1002002B070BD7047000070470000A7
:103110002DE9F041044690F8410020281CBF022010
:10312000BDE8F0810D4600294FF0010000F0AA80B3
:103130001646002A08BFBDE8F08100206064212007
:10314000984684F84100FDF7E5FCA684E684A16872
:103150000646B1F5805F02D12069002862D02F4673
:103160000025E08C002861D018F1010018D0B8F1DA
:10317000000F37D1216808E017F8010B4860E08C98
:103180000138E084E08C002851D00868000673D52F
:10319000002FF1D135F8020B00276FF35F20EDE728
:1031A000216802E00868000609D40868000606D411
:1031B000086800065CBF08685FEA0060F2D51FB1CE
:1031C00017F8010B05E000BF35F8020B00276FF37D
:1031D0005F204860E08C0138E084E08C0028E4D176
:1031E00025E000BF216800BF0868000608D4FDF78D
:1031F00091FC801B404541D82168C868F4E700BFB6
:1032000017B117F8010B04E035F8020B00276FF334
:103210005F204860E08C0138E084E08C0028E3D136
:1032200005E000BF0027E08C00289DD121680868D8
:1032300040061FD4B8F1000F1ED018F101000FD1C5
:103240000868400616D40868400613D4086840068B
:1032500010D4086840064FF00000F1D50FE000BF21
:10326000FDF758FC801B404508D82068C1680068FD
:103270004006F5D5002002E0FDF74CFC032020219C
:1032800084F84110BDE8F0817047000080B540F639
:10329000000089B2C4F20100FDF730FC80BD0000DF
:1032A00080B540F6000089B2C4F20100FDF72CFCA5
:1032B000002080BD0020704780B5BDF808C042F6F0
:1032C000CC401A4489B2C2F200006346FDF7CEFF3B
:1032D000002080BD80B582B0BDF810C042F6CC4061
:1032E0001A444FF0640E89B2C2F200006346CDF872
:1032F00000E0FDF7CBFC002002B080BD80B582B0BD
:10330000BDF810C042F6CC401A444FF0640E89B2AA
:10331000C2F200006346CDF800E0FDF7B9FE0020E0
:1033200002B080BD00291CBFFF20704780B5127815
:1033300040F60000C4F201004FF40041002A18BF1B
:103340000122FDF7E1FB002080BD000010B5BDF8B3
:1033500008C042F62054C2F2000499182046624682
:10336000FFF790F820688168090609D58168090689
:1033700044BF81685FEA016102D581680906F2D421
:10338000002010BD80B5BDF808C042F62050991845
:10339000C2F2000062464FF47A73FEF70BFD002084
:1033A00080BD000080B5BDF808C042F620509918D5
:1033B000C2F2000062464FF47A73FEF7FBFD002074
:1033C00080BD000080B582B00498BDF814C0991883
:1033D000024442F620504FF47A7EC2F20000634667
:1033E000CDF800E0FEF7E4FE002002B080BD000052
:1033F000FEE70000406A416B00291CBF00228A6280
:10340000816B00291CBF00228A6201680A6822F4CD
:1034100080620A6000212022418580F83D2080F8EA
:103420003E10016C41F010010164FDF779BB000012
:1034300010B5446A94F83D2094F83EE0D4F82CC0CE
:103440002168606B4B68002823F440734B601CBFFD
:1034500000238362A06B00281CBF0023836202F05C
:103460002100212820D002F02200222808BFBEF12E
:10347000200F19D094F83E00002808BF10BD608DC1
:10348000012803D1086820F4806008604868BCF116
:10349000070F20F44070486028DCBCF12A4F2BD085
:1034A0001CF5803F28D02BE048682A2A20F40060D1
:1034B00048604FF0000060850AD0292A10D12120F1
:1034C0002063282084F83D002046FDF7D9FF07E05F
:1034D00022202063282084F83D002046FDF7CEFFFF
:1034E0002068416841F44071416010BDBCF1200F7B
:1034F00002D0BCF1080F03D1086840F400700860E6
:10350000486820F480504860486820F400604860B3
:1035100000216185206C28B12046BDE81040FDF7F0
:10352000FFBA00BF202084F83D0094F83E0084F8E4
:103530003E10402806D120462163BDE81040FDF72B
:1035400069BF00BFBCF1080018BF1220BCF1200108
:1035500018BF014620462163BDE81040FDF794BB2B
:1035600070B50368044653F8140F400711D40E4693
:10357000481C29D086BB00BF1868400527D4FDF73A
:10358000C9FA236853F8140F400737D51868400765
:10359000F2D5002070BD00BF18684007F9D4186844
:1035A000400514D418684007F3D4186840050ED4B9
:1035B00018684007EDD41868400508D4186840071B
:1035C0004FF0000048BF70BD18684005E4D56FF4A7
:1035D00080601860042012E0154603E053F8140FD1
:1035E0004007D6D418684005F1D4FDF793FA401B84
:1035F0002368B042F2D958694007EFD42020002157
:103600002022216384F83D2084F83E10226C104370
:103610002064012084F83C1070BD00002DE9F041C9
:10362000054600681E46144601F47F0201338FB23E
:1036300042D0DDF81880B2F5803F40F087804069C5
:103640003840C01BB0FA80F04009A04240F0C8806A
:103650004EB924E040693840C01BB0FA80F0400900
:10366000A04240F0BD80FDF755FAA0EB08012868A4
:10367000B142EFD941693940C91BB1FA81F1490919
:10368000A142E7D19BE000BF40693840C01BB0FABF
:1036900080F04009A0424FF0000040F0A280FDF70A
:1036A00039FA286841693940C91BB1FA81F14909E1
:1036B000A142E9D183E000BFB2F5803F24D100BF31
:1036C00041693940C91BB1FA81F14909A14240F071
:1036D000878041693940C91BB1FA81F14909A1428A
:1036E00040F07E8041693940C91BB1FA81F1490936
:1036F000A14275D141693940C91BB1FA81F149092B
:10370000A142DDD06CE000BF81693940C91BB1FA2C
:1037100081F14909A14263D181693940C91BB1FADC
:1037200081F14909A1425BD181693940C91BB1FAD4
:1037300081F14909A14253D181693940C91BB1FACC
:1037400081F14909A142DFD04AE000BF80693840D9
:10375000C01BB0FA80F04009A04241D146B923E035
:1037600080693840C01BB0FA80F04009A04237D1D0
:10377000FDF7D0F9A0EB08012868B142F0D98169C2
:103780003940C91BB1FA81F14909A142E8D116E0DB
:1037900080693840C01BB0FA80F04009A0424FF069
:1037A000000018BFBDE8F081FDF7B4F92868816911
:1037B0003940C91BB1FA81F14909A142E8D1002081
:1037C0002021286385F83D1085F83E00296C41F0E2
:1037D0002001296485F83C000120BDE8F08100BF8C
:1037E0000020BDE8F0810000F0B581B0044600681B
:1037F0001D4643698FB203EA0701B94202D1002096
:1038000001B0F0BD4169164601323FD049053FD4B1
:10381000CEB100BFFDF77EF9411B2068B14203D94C
:1038200041693940B94215D141693940B942E6D0C0
:1038300041694905EED52BE041693940B942DED0F6
:103840004169490524D4FDF765F92068416939408B
:10385000B942F1D0202023E041693940B942CED0AD
:103860004169490514D441693940B942C7D0416919
:1038700049050DD441693940B942C0D04169490573
:1038800006D441693940B942B9D041694905E3D507
:10389000016841F4007101606FF4806141610420AE
:1038A00000212022216384F83D2084F83E10226C00
:1038B0001043206484F83C10012001B0F0BD0000EA
:1038C00070B504460068154650F8143F5A063DD4BA
:1038D0000E4629B926E000BF50F8141F490635D41A
:1038E0000168C90621D4FDF715F9411B2068B142D2
:1038F000F2D941694906EFD400202021206384F8E1
:103900003D1084F83E00206C40F0200018E000BF1D
:10391000FDF700F9206850F8141F4906ECD501683E
:10392000490613D40168C906F2D56FF01001016091
:1039300000202021206384F83D1084F83E00206C94
:103940002064002084F83C00012070BD002070BD80
:1039500070B50368044653F8140F000611D40E46E0
:10396000481C29D086BB00BF1868400527D4FDF746
:10397000D1F8236853F8140F000637D518680006ED
:10398000F2D5002070BD00BF18680006F9D4186891
:10399000400514D418680006F3D4186840050ED406
:1039A00018680006EDD41868400508D418680006A9
:1039B0004FF0000048BF70BD18684005E4D56FF4B3
:1039C00080601860042012E0154603E053F8140FDD
:1039D0000006D6D418684005F1D4FDF79BF8401BCB
:1039E0002368B042F2D958690006EFD420200021A4
:1039F0002022216384F83D2084F83E10226C10437D
:103A00002064012084F83C1070BD0000B0B582B085
:103A100042F2A444C2F200048DF80700A0680D46EB
:103A200000212246217000F021F860684FF4805197
:103A30002A4600F017F9A06801250DF107030021BF
:103A40000022009500F0FEF8A068002122462570B3
:103A500000F00CF802B0B0BD42F21841C2F2000111
:103A60004968002908BF70470847000010B1036B80
:103A700003B118470220704770B542F6C056C2F233
:103A8000000631680446FCF790FBE0B1354655F876
:103A9000341F2046FCF789FBB0B1354655F8681F46
:103AA0002046FCF782FB78B1354655F89C1F20462E
:103AB000FCF77BFB40B156F8D01F2046FCF775FBA6
:103AC000002818BF00263546284670BD10B58EB0B8
:103AD00001AC201D3021FCF75DFB0CA0019043F2EE
:103AE000A120C0F600000A9043F28D20C0F600002D
:103AF0000990204600F016FBFF281CBF0EB010BD39
:103B0000019904A002F00EFFFEE700BF4750494FA5
:103B1000410000005B4C4C4F53204552524F525DC8
:103B20002025732072656769737465722066616908
:103B30006C6564210D0A000010B58EB001AC201D2B
:103B40002821FCF727FB11A0019043F2FD20C0F6CD
:103B50000000079043F2D520C0F60000069043F223
:103B6000B920C0F600000C9043F2B520C0F600006A
:103B70000D90204600F0D6FAFF281CBF0EB010BDF5
:103B8000019904A002F0CEFEFEE700BF49324332A5
:103B9000000000005B4C4C4F53204552524F525D89
:103BA0002025732072656769737465722066616988
:103BB0006C6564210D0A000010B58EB001AC201DAB
:103BC0002821FCF7E7FA14A0019043F2A530C0F6D3
:103BD0000000079043F28530C0F60000069043F2E3
:103BE000C530C0F60000089043F24D30C0F600002A
:103BF0000C9043F22530C0F600000D90204600F0F6
:103C000091FAFF281CBF0EB010BD019904A002F06C
:103C100089FE00BFFEE700BF53504931000000009D
:103C20005B4C4C4F53204552524F525D2025732020
:103C30007265676973746572206661696C65642179
:103C40000D0A000060B1D0F818C0BCF1000F07D019
:103C500080B5DDF808E0CDF808E0BDE880406047B9
:103C60000220704710B1436A03B118470220704721
:103C700080B542F21843C2F200030028C3E90112E2
:103C800018BF804747F2D970C0F6000003F0B4F8BF
:103C900047F2BC70C0F6000003F0AEF808A003F0D5
:103CA000ABF80FA003F0A8F815A003F0A5F847F2B1
:103CB000F6711BA0C0F60001BDE8804002F032BEE4
:103CC0007C2020202020207C2020202020207C20E0
:103CD0002020207C20202D2D2020200D0000000001
:103CE0007C2020202020207C2020202020207C20C0
:103CF0002020207C20202020207C200D000000009F
:103D0000202D2D2D2D2020202D2D2D2D202020204B
:103D10002D2D202020202D2D2020200D0000000002
:103D20004C4C4F532076657273696F6E3A20257341
:103D30000D0A000070B581B042F2504EC2F2000E82
:103D4000DDF814C00090704650F8044F009DAC425E
:103D500006D1044654F8045F8D4201D1002527E0C6
:103D6000704650F8144F009DAC4207D1044654F8F9
:103D7000045F8D4202D101251AE000BF704650F861
:103D8000244F009DAC4207D1044654F8045F8D4295
:103D900002D102250CE000BF704650F8344F009D60
:103DA000AC4213D1044654F8045F8D420ED1032572
:103DB000009E066021600EEB051000218274C37422
:103DC000A0F810C0C16001B070BD00BF9EF8000037
:103DD000042805D30AA001B0BDE8704003F00CB878
:103DE000009C0EEB00156C60AA7400220130EB748D
:103DF000A5F810C0C5E902128EF8000001B070BD30
:103E00005B4C4C4F53204552524F525D203E204C4C
:103E10004C5F4C45445F4E554D210D0070B584B04C
:103E200006460FA014460D4602F0E6FF002E18BF0E
:103E3000B04742F25040C2F200004580284600F0F0
:103E400059F943F67D63C0F60003CDE90001204631
:103E500001210122029301F0EDFE04B070BD00BF0C
:103E60005B4C4C4F532044454255475D204C4C4FD2
:103E700053204C454420496E69740D00F0B542F260
:103E80005040C2F20000B0F802C0416831B383680C
:103E900023B390F812E0BEF1000F1FD04168C26852
:103EA000C77C541C028A04FB0CF56426754307FB8F
:103EB00002F6C460B5420C6834BF24EA030323430E
:103EC0000B60C16801FB0CF1914207D30021BEF1E8
:103ED000FF0FC1601CBFAEF101018174416941B3A4
:103EE000836933B390F822E0BEF1000F21D041691D
:103EF000C26990F82370541C028C04FB0CF56426F4
:103F0000754307FB02F6C461B5420C6834BF24EA6E
:103F1000030323430B60C16901FB0CF1914208D3F9
:103F20000021BEF1FF0FC1611CBFAEF1010180F89D
:103F30002210416A41B3836A33B390F832E0BEF194
:103F4000000F21D0416AC26A90F83370541C028E6F
:103F500004FB0CF56426754307FB02F6C462B54208
:103F60000C6834BF24EA030323430B60C16A01FBDE
:103F70000CF1914208D30021BEF1FF0FC1621CBFBA
:103F8000AEF1010180F83210416B59B3836B002B05
:103F900008BFF0BD90F842E0BEF1000F22D0416BA7
:103FA000C26B90F84370541CB0F8402004FB0CF531
:103FB0006426754307FB02F6C463B5420C6834BF40
:103FC00024EA030323430B60C16B01FB0CF1914214
:103FD00008D30021BEF1FF0FC1631CBFAEF1010188
:103FE00080F84210F0BD000042F2184CC2F2000C02
:103FF0009CF80000002808BF70472DE9F04F83B0FF
:1040000000244FF0010E0020002506E0019D9CF8E1
:104010000010013568B2884268DA42F2B842C2F252
:104020000002A82300FB032969B239F8A00F01FBA5
:10403000032609F1020809F104014FF0780A4FF054
:10404000000B019502910FE042F2184C0024C2F2DD
:10405000000C87F88F404FF0010EAAF1080A1AF100
:104060000801ABF1010BD1D006EB0B07B8F800103B
:1040700097F89F200843A9F800003AB187F88FE02D
:10408000A8F8004087F89F4008E000BF97F88F101D
:10409000A8F80040002987F89F40DED0DCE906122E
:1040A00006EB0A0356F80A505B68491B72EB0301E2
:1040B000D3D302990A68002ACFD00BF10F010EFA70
:1040C00001F5284081B20198C0B29047B9F80010BC
:1040D000484000EA05010904A9F80000B4D042F202
:1040E000184CC2F2000C0024B5E700BF03B0BDE8D5
:1040F000F04F704742F21141C2F200010978B0FB63
:10410000F1F000217047000042F21840C2F20000B6
:10411000002141617047000042F21840C2F20000E5
:104120004069704742F2B44CC2F2000C9CF8001097
:10413000042984BFFF207047F0B542F6C05EC2F28A
:10414000000E342201FB02E3046800F108074A4331
:10415000E0CF4EF8024003F10802E0C2D0E90527A3
:104160005971C3E90527D0E90727C3E90727D0E933
:104170000927C3E90927D0E90B20C3E90B20481C14
:104180008CF80000BDE8F0400846704742F2184243
:10419000C2F200021178042984BFFF20704742F266
:1041A000B84CC2F2000CA82301FB03C3C3F8A4005F
:1041B000481C10700846704742F6C461C2F2000104
:1041C000086070472DE9F04F93B0129111B20029A9
:1041D00000F1388383460320002BA0EB4205CDF885
:1041E00044B000F0B98142F2944900276FF04F04C7
:1041F000C2F2000918E000BF0098019D01300622BC
:1042000002EB8003029A29B207B2801AB1F1FF3F94
:10421000C8BF013A12B24FF00A01C8BF01EB8003D8
:1042200097421D4400F30E83CDE9015212B238B219
:1042300042F600089042C2F200080097DCDCDDF88C
:1042400000A0129B0AEB0B00109080B20890ABEB21
:104250000A00079080B206900AEB030081B200F0DA
:104260000700012707FA00F004EBD106C1F3C701EC
:104270000E90A3EB0A000F9181B200F0070004EB4F
:10428000D103C1F3C70107FA00F005960493039127
:104290000D9009921298D9F808200AEB0006B5B2E1
:1042A00004EBD500C4B220460021904799F80000E5
:1042B000109FD9F80820384400F00F0000219047E3
:1042C00099F80000D9F808203844C0B2000910302D
:1042D000002190470899C5F3C70506F0070008EBD1
:1042E000C106715D012303FA00F7D9F8082041EAFD
:1042F00007007055C0B201210B969047D9F80820ED
:1043000020460021904799F80000DDF81CB0D9F84C
:104310000820584400F00F000021904799F8000051
:10432000D9F808205844C0B2000910300021904745
:1043300042F600000699C2F2000000EBC10818F82E
:104340000500D9F80820384308F80500C0B201215B
:1043500090471198D9F80820A0EB0A05059800218C
:10436000C0B20C90904799F80000D9F80820284472
:1043700000F00F000021904799F80000D9F80820BC
:104380002844C0B2000910300021904742F60001D5
:10439000A8B2C2F2000101EBC0070F990E9B785C36
:1043A000D9F8082018437854C0B2012190470498E6
:1043B000D9F80820C0B200210A90904799F800006F
:1043C000D9F80820284400F00F000021904799F800
:1043D0000000D9F808202844C0B20009103000219C
:1043E0009047039E0D99B85DD9F808200843B85549
:1043F000C0B2012190471298D9F80820A0EB0A0713
:10440000BCB26FF04F0000EBD400C5B228460021CB
:10441000904799F80000D9F80820584400F00F00A0
:104420000021904799F80000D9F808205844C0B2FC
:104430000009103000219047C4F3C70B07F00700B4
:1044400018F80B10012303FA00F7D9F8082041EA05
:10445000070008F80B00C0B201219047D9F80820E6
:1044600028460021904799F80000109CD9F80820B0
:10447000204400F00F000021904799F80000D9F87F
:1044800008202044C0B200091030002190470B9949
:10449000D9F8082011F80B0042F60008384301F85B
:1044A0000B00DDF844B0C0B20121C2F20008904711
:1044B000D9F808200A9800210AEB0B05904799F8D3
:1044C0000000D9F80820284400F00F000021904790
:1044D00099F80000D9F808202844C0B2000910302B
:1044E00000219047A8B208EBC004A05D0D99D9F84F
:1044F00008200843A055C0B201219047D9F80820F0
:104500000C980021904799F80000D9F80820284419
:1045100000F00F000021904799F80000D9F808201A
:104520002844C0B200091030002190470F990E9B1B
:10453000605CD9F8082018436054C0B2012190474C
:10454000099A0AF101000FFA80FA6FF04F049245C0
:104550007FF7A0AE50E600BF42F294470024C2F2BB
:10456000000700BF1298CDE9015202EB00081FFAC4
:1045700088F66FF04F0000EBD600BA685FFA80F95A
:1045800004EB0B05484600210B9590473878BA6834
:10459000284400F00F00002190473878BA6828447A
:1045A000C0B2000910300021904742F60003A9B2C2
:1045B000C2F20003C6F3C70603EBC10508F007000B
:1045C000A95D012303FA00FBBA6841EA0B00A85574
:1045D000C0B20121109590471198BA68A0EB040869
:1045E00048460021A24690473878BA68404400F017
:1045F0000F00002190473878BA684044C0B20009E3
:1046000010300021904742F600011FFA88F0C2F2F4
:10461000000101EBC00919F80600BA6840EA0B0076
:1046200009F80600C0B20121904702981199BA68B2
:104630000C1A129800210AEB0005AEB26FF04F0081
:1046400000EBD600C0B2CDF838A00F909047387874
:10465000BA68204400F00F00002190473878BA680B
:104660002044C0B2000910300021904742F60003F8
:10467000A1B2C2F20003C6F3C70203EBC10605F004
:104680000700B15C012303FA00F0D7F808C00D90D1
:104690000843B054C0B201210C92E0471298BA68A6
:1046A000A0EB0A0B1FFA8BF56FF04F0000EBD50063
:1046B000C0B200210A9090473878BA68204400F0D0
:1046C0000F00002190473878BA682044C0B2000932
:1046D000103000219047C5F3C70A0BF0070016F809
:1046E0000A104FF0010B0BFA00F0BA68099008436A
:1046F00006F80A00C0B20121904702981299BA68E0
:104700000D1AAEB26FF04F0000EBD600C4B22046D7
:10471000002190473878BA68404400F00F0000212B
:1047200090473878BA684044C0B200091030002180
:104730009047C6F3C70605F0070019F806100BFAF4
:1047400000F5BA6841EA050009F80600C0B2012187
:104750009047BA6820460021904738780B9CBA6889
:10476000204400F00F00002190473878BA682044B8
:10477000C0B200091030002190471099BA68885DD6
:10478000DDF844B028438855C0B201219047029813
:10479000BA6800EB0B040A98002190473878BA6891
:1047A000204400F00F00002190473878BA68204478
:1047B000C0B2000910300021904742F60001A0B2BB
:1047C000C2F2000101EBC00515F80A000999BA68A8
:1047D000084305F80A00C0B201219047BA680F9853
:1047E000002190473878BA68204400F00F0000217B
:1047F00090473878BA682044C0B2000910300021D0
:1048000090470C990D9B685CBA6818436854C0B215
:1048100001219047DDE901520E9829B201300623AB
:1048200004B203EB8003801AB1F1FF3FC8BF013A25
:1048300012B24FF00A01C8BF01EB800394421D443D
:104840007FF790AE13B0BDE8F08F00002DE9F04F78
:1048500089B005B216B207460FFA81FC0FFA83FE43
:10486000101AAE42B8BFB81A5C1AE645C8BFCC1AD7
:10487000079297424FF0FF3238BF012242F294492B
:104880004FF0FF36059202B20FFA84F8C2F2000927
:104890000393994238BF012601960892069402902C
:1048A0000444C1F3CC00A0F15006C1F3C705049144
:1048B00001F00700012101FA00FB03E00899400024
:1048C000884235DDD9F80820F0B20021904799F8E8
:1048D0000000D9F80820384400F00F00002190476C
:1048E00099F80000D9F808203844C0B20009103007
:1048F0000021904742F600001FFA87FAC2F200003A
:1049000000EBCA00415DD9F8082041EA0B0141558E
:10491000C8B20121904720B2B8EB400FCEDC079817
:1049200082450FD0069804440598074420B2C5E795
:104930000498039980B2884204D0049901980144F4
:104940000298ADE709B0BDE8F08F00002DE9F04F07
:1049500081B042F2944AC2F2000ADAF808C0BCF10F
:10496000000F10D081469AF8020002EB09060028D9
:1049700018BF8020864206D8BAF8040003EB01086D
:104980008B46804502D901B0BDE8F08FDAF80C0003
:104990000A9C002800F0E080B0200021E0479AF84F
:1049A0000000DAF8082000F00F00002190479AF884
:1049B0000000DAF808200009103000219047DAF8EA
:1049C0000C20204680219047DAF8082092B1B120CF
:1049D000002190479AF80000DAF8082000F00F0054
:1049E000002190479AF80000DAF8082000091030FA
:1049F00000219047DAF80C2004F1800080219047D4
:104A0000DAF8082092B1B220002190479AF800000D
:104A1000DAF8082000F00F00002190479AF8000013
:104A2000DAF808200009103000219047DAF80C204D
:104A300004F5807080219047DAF8082092B1B32005
:104A4000002190479AF80000DAF8082000F00F00E3
:104A5000002190479AF80000DAF808200009103089
:104A600000219047DAF80C2004F5C07080219047AF
:104A7000DAF8082092B1B420002190479AF800009B
:104A8000DAF8082000F00F00002190479AF80000A3
:104A9000DAF808200009103000219047DAF80C20DD
:104AA00004F5007080219047DAF8082092B1B52013
:104AB000002190479AF80000DAF8082000F00F0073
:104AC000002190479AF80000DAF808200009103019
:104AD00000219047DAF80C2004F5207080219047DF
:104AE000DAF8082092B1B620002190479AF8000029
:104AF000DAF8082000F00F00002190479AF8000033
:104B0000DAF808200009103000219047DAF80C206C
:104B100004F5407080219047DAF8082092B1B72060
:104B2000002190479AF80000DAF8082000F00F0002
:104B3000002190479AF80000DAF8082000091030A8
:104B400000219047DAF80C2004F56070802101B054
:104B5000BDE8F04F104700BF002B3FF414AF002A10
:104B60004FD00027DAF80820BAB1ABF15000C0B23C
:104B7000002190479AF80000DAF80820484400F035
:104B80000F00002190479AF80000DAF80820484406
:104B9000C0B200091030002190474D46B8B2DAF893
:104BA0000820205C0121013790470135A8B28642D8
:104BB000F4D80BF1010B1FFA8BF08045D2D8E2E656
:104BC000ABF15000C0B20021E0479AF80000DAF8DB
:104BD0000820484400F00F00002190479AF8000098
:104BE000DAF808204844C0B200091030002190478C
:104BF000DAF808C00BF1010B1FFA8BF080457FF645
:104C0000C2AEBCF1000FDBD14FF0000CF2E70000A8
:104C1000F0B581B01E46069B0D46044683B16EB1C9
:104C20001019771986B200BFA9B2204632460B464A
:104C3000FFF70CFE0135A8B28742F5D801B0F0BDF0
:104C4000101987B2204629463A462B46FFF7FEFD4B
:104C5000701986B22046294622463346FFF7F6FDF4
:104C6000384631463A462B46FFF7F0FD3846314686
:104C70002246334601B0BDE8F040FFF7E7BD000033
:104C80002DE9F04F81B0DDF828A0924500F2A18017
:104C90001F469A4500F29D8083460B9891468846B0
:104CA00000B3BAF1000F67D00AEB080409EB0B065A
:104CB00040464546A8EB0000504400EB0B01C043C2
:104CC000321888B2A9B292B20B46FFF7BFFD013588
:104CD000A8B28442EED807EB0804A4EB0A07874287
:104CE00052DC5FE00BEB09014C1E0AEB0B00A4EB5E
:104CF0000A0185B21FFA81F9284641464A464346D1
:104D0000FFF7A4FD08EB07014F1E0AEB0800A7EB15
:104D10000A0186B2A4B21FFA81FA20463146224621
:104D20005346FFF793FDBFB2484639462A463B46F5
:104D3000FFF78CFD584651465A463346FFF786FD2D
:104D4000284641465A463346FFF780FD48464146CD
:104D500022463346FFF77AFD204651464A463B46F7
:104D6000FFF774FD584651462A463B4601B0BDE860
:104D7000F04FFFF76BBD00BF4046454607EB080408
:104D8000A4EB0A0787420DDD0BEB0900013886B260
:104D9000A9B2584632460B46FFF758FD0135A8B276
:104DA0008742F5DC844214D909EB0B016FEA0A0251
:104DB0000AEB0B068F1800BF201A311A3A1888B276
:104DC000A9B292B20B46FFF741FD0135A8B2844269
:104DD000F2D801B0BDE8F08F2DE9F04F8FB00F464B
:104DE0001A99DDE918A51C461646814681B1A742ED
:104DF00024D930462146A94226D8834602915046FE
:104E000029468F4224D84E463C4681460F4621E033
:104E10004846394632462346FFF718FD484639468C
:104E200052462B46FFF712FD3046214652462B468E
:104E30000FB0BDE8F04FFFF709BD00BF4846394647
:104E4000B1462746A942D8D9D34602958F42DAD92E
:104E500006460C465846FBF77FFA80463046FBF77D
:104E60007BFA0090A6EB0B00FBF76DFADDF808A0CB
:104E70000546A4EB0A00FBF766FA01462846FBF755
:104E8000FAF90690A9EB0600CDF81080FBF75BFA63
:104E90000546381B0194FBF756FA01462846FBF7F6
:104EA000EAF900990A90A9EB0B000891FBF74BFA7D
:104EB0000546A7EB0A00FBF746FA01462846FBF732
:104EC000DAF95745CDF830800E9003D20FB0BDE827
:104ED000F08F00BFDDF808800DF10C0A009722E08A
:104EE000022730B20AEB001BDBF804404FF6FF70DC
:104EF00086420FFA87F918BF874229D1DBF80C00E8
:104F00002146FBF760F9CBF804000AEB0914E068CE
:104F10006168FBF758F908F10108009A1FFA88F157
:104F200091426060D2D802981FFA88F5854209D272
:104F300001984FF6FF7685424FF6FF772AD3012678
:104F400027E000BF0198854214D2002630E000BF60
:104F50002046FBF706FA0AEB09114968064608469F
:104F6000FBF7FFF90246304629462B46FFF76EFC59
:104F7000C4E700BF049C089F21463846FBF7C7F9E9
:104F8000064600283846214618BF0126FBF7B1F92E
:104F900070B9012702988542A3D34FF6FF7086426D
:104FA00007D102264FF6FF70874210D198E700BF65
:104FB00000270AEB06110C984968FBF7B6F90028A0
:104FC00008BF02264FF6FF7087423FF489AF0AEB15
:104FD00007110C984968FBF78CF9002808BF0227D5
:104FE0007FE70000F0B581B042F29445C2F20005BF
:104FF000A96849B3A988082926D30026C4B205E0C8
:105000000136A888B1B2B1EBD00F1DD2AA68A6F1C3
:105010005000C0B200219047AA682878002190472C
:10502000AA68102000219047A8780128E8D100271D
:10503000AA68204601219047A8780128E0D17F2F57
:1050400007F10107F4D3DBE701B0F0BD10B582B082
:105050001AA0FEF711FD42F2A444C2F200046060FF
:10506000D0B118A0FEF708FDA060D8B117A0FEF7D8
:1050700003FDE060E0B1002000904FF47F40ADF808
:10508000040043F60D20C0F600006A46002100F03F
:1050900051F802B010BD00BF1EA001F0ADFE00BF70
:1050A000FEE700BF13A001F0A7FE00BFFEE700BFB0
:1050B00008A001F0A1FE00BFFEE700BF4750494F26
:1050C0004100000053504931000000004932433292
:1050D000000000005B4C4C4F53204552524F525D34
:1050E0002049324332204E6F7420466F756E642122
:1050F0000D0000005B4C4C4F53204552524F525D07
:105100002053504931204E6F7420466F756E6421D4
:105110000D0000005B4C4C4F53204552524F525DE6
:10512000204750494F41204E6F7420466F756E6482
:10513000210D000070B542F2944614460246C2F2B8
:1051400000060028C6E9022118BF002C00D170BD5E
:10515000607800213070AE209047A178B268A0201E
:1051600000294FF0000108BFA1209047E178B26804
:10517000C02000294FF0000108BFC82090472179C6
:10518000B268A72000294FF0000108BFA620904771
:10519000B268812000219047B26860790021904771
:1051A000B268D52000219047B26880200021904746
:1051B000B268D92000219047B268F12000219047C1
:1051C000B268DB2000219047B26820200021904780
:1051D000207828B1012819D102241F25202002E0BF
:1051E00012243F2540200121B268B170B080A82070
:1051F00000219047B268284600219047B268DA2023
:1052000000219047B268204600219047B2684020B4
:1052100000219047B268D32000219047B268002057
:1052200000219047B2688D2000219047B268142079
:1052300000219047B268A42000219047B26852B381
:10524000B088082827D3002406E000BF0134B088C6
:10525000A1B2B1EBD00F1DD2B268A4F15000C0B220
:1052600000219047B268307800219047B268102042
:1052700000219047B0780128E8D10025B2680020CD
:1052800001219047B0780128E0D17F2D05F101057B
:10529000F4D3DBE7B268AF200021BDE870401047CF
:1052A0002DE9F04742F29445C2F200050446A2F10E
:1052B0002007AA68A1F150008846C0B200211E460E
:1052C00090472878AA68204400F00F0000219047FA
:1052D0002878AA682044C0B2000910300021904705
:1052E000AA68082EF9B221D146F6466301EB4101C6
:1052F000C0F6000313F8110003EB410601219047AB
:10530000AA687078B478F77896F8048001219047FD
:10531000AA68204601219047AA6838460121904793
:10532000AA68404601219047701D5DE047F26E0378
:10533000C0F600030801185C03EB01170121904738
:10534000AA687878BE7897F803A097F804900121AE
:105350009047AA68304601219047AA68504601212B
:105360009047AA68484601219047AA6878790121A8
:105370009047AA68B87901219047AA68F879012175
:105380009047AA68A8F14F00C0B200219047287842
:10539000AA68204400F00F00002190472878AA68EE
:1053A0002044C0B20009103000219047AA68387A22
:1053B00001219047AA68787A01219047AA68B87AB3
:1053C00001219047AA68F87A01219047AA68387BA2
:1053D00001219047AA68787B01219047AA68B87B91
:1053E0000121904707F10F000078AA680121BDE86C
:1053F000F04710472DE9F04F99B08946229E0546A7
:105400006846194601F09EFA082E4FD06C46102EC1
:1054100036D142F29446C2F2000618E0002A00F0AB
:10542000BB80B078A9B279294FF0000138BF0121C3
:1054300011EA00070CBF09F102092F46B8B21FFAA2
:1054400089F11023FFF72CFF07F1080501342278BA
:105450000D2AE3D160780A2806D114F8022F09F149
:1054600002090025DDE700BF0D22DAE7002A00F07F
:105470009380A8B21FFA89F13346FFF711FF013478
:1054800022780D2AF2D160780A2807D1082E07D099
:10549000102E08BF09F1020904E000BF0D22E8E761
:1054A00009F1010914F8022F0025E2E742F2944BBA
:1054B000E846C2F2000B5FE000286DD09BF80210B6
:1054C000AAB27B2A4FF0000238BF012212EA01047F
:1054D00084F00101894418BF2C46A0F12005DBF8B7
:1054E0000820A9F15000C0B2002190479BF80000AD
:1054F000DBF80820204400F00F00002190479BF8C3
:105500000000DBF808202044C0B200091030002160
:105510009047E8B246F6466300EB4001C0F6000350
:10552000DBF8082013F8110003EB410A0121904732
:10553000DBF808209AF801009AF802509AF8036004
:105540009AF8047001219047DBF8082028460121D1
:105550009047DBF80820304601219047DBF808200F
:10556000384601219047DBF808209AF80500012110
:105570009047A51D08F1010898F800000D289BD15F
:1055800098F801000A2805D118F8020F09F101095D
:10559000002593E70D2091E719B0BDE8F08F0000DA
:1055A0002DE9F04F83B042F2944447F25E6A16460A
:1055B00089460746C2F20004C0F6000A32780D2A76
:1055C0001AD123E0A0780D22B9B279294FF0000159
:1055D00038BF012110EA01050CBF09F102093D465F
:1055E000A8B21FFA89F11023FFF75AFE05F1080748
:1055F000013632780D2A09D0002A00F0218151B2FB
:10560000A078B1F1FF3FDFDC0DE000BF70780A2821
:10561000D8D116F8022F09F10209002751B2A0785B
:10562000B1F1FF3FD0DCB9B24FF6A26B71294FF058
:105630000001CFF6FF7B38BF0121084004BF09F10C
:1056400002090746019603E01BF1230B00F0F280EC
:105650000AEB0B0898F85E0131788842F4D198F88B
:105660005F0171788842EFD198F86001B178884283
:10567000EAD1A268A9F15000C0B200219047207879
:10568000A268384400F00F00002190472078A268FB
:105690003844C0B20009103000219047A26898F841
:1056A0006101029798F8627198F8635198F8646103
:1056B00001219047A268384601219047A2682846F8
:1056C00001219047A2683046019E01219047A268BF
:1056D00098F8650101219047A26898F866010121B8
:1056E0009047A26898F8670101219047A26898F84E
:1056F000680101219047A26898F86901012190474B
:10570000A26898F86A0101219047A26898F86B0195
:1057100001219047A26898F86C0101219047A26886
:1057200098F86D0101219047A26898F86E01012157
:105730009047A26898F86F0101219047A26898F8F5
:10574000700101219047A268A9F14F00C0B2002169
:1057500090472078029DA268284400F00F000021A5
:1057600090472078A2682844C0B200091030002178
:105770009047A26898F8710101219047A26898F8B3
:10578000720101219047A26898F8730101219047A6
:10579000A26898F8740101219047A26898F87501F1
:1057A00001219047A26898F8760101219047A268EC
:1057B00098F8770101219047A26898F878010121B3
:1057C0009047A26898F8790101219047A26898F85B
:1057D0007A0101219047A26898F87B010121904746
:1057E000A26898F87C0101219047A26898F87D0191
:1057F00001219047A26898F87E0101219047A26894
:1058000098F87F0101219047A26898F88001012152
:10581000904705F1100081B2A27871294FF0000184
:1058200038BF012112EA01070CBF09F1020907463E
:105830000AE700BF033632780D2A7FF4DDAEE5E6D5
:1058400003B0BDE8F08F0000042888BF704770B532
:1058500042F2B84CC2F2000CA82400FB04CECE07E2
:10586000BEF8A25045EA0105AEF8A2502CD18C0733
:105870003BD44C074BD40C075BD4CC066BD48C06C2
:105880007CD44C0600F18D800C0600F19D80CC0587
:1058900000F1AD808C0500F1BD804C0500F1CD809C
:1058A0000C0500F1DD80CC0400F1ED808C0400F1EA
:1058B000FD804C0400F10D8109B2B1F1FF3F40F3CE
:1058C0001D81BDE87040704742F21845C2F20005E4
:1058D000EE69AD6900FB04C4AD185E41CEE9005627
:1058E000012584F890508C07C3D542F21844C2F2C7
:1058F0000004E569A469A4185D41CEE90245A82425
:1059000000FB04C4012584F891504C07B3D542F242
:105910001844C2F20004E569A469A4185D41CEE907
:105920000445A82400FB04C4012584F892500C0708
:10593000A3D542F21844C2F20004E569A469A41890
:105940005D41CEE90645A82400FB04C4012584F886
:105950009350CC0693D542F21844C2F20004E56994
:10596000A469A4185D41CEE90845A82400FB04C43D
:10597000012584F894508C067FF583AF42F21844D9
:10598000C2F20004E569A469A4185D41CEE90A45A4
:10599000A82400FB04C4012584F895504C067FF52B
:1059A00073AF42F21844C2F20004E569A469A41876
:1059B0005D41CEE90C45A82400FB04C4012584F810
:1059C00096500C067FF563AF42F21844C2F2000411
:1059D000E569A469A4185D41CEE90E45A82400FB41
:1059E00004C4012584F89750CC057FF553AF42F2EB
:1059F0001844C2F20004E569A469A4185D41CEE927
:105A00001045A82400FB04C4012584F898508C0597
:105A10007FF543AF42F21844C2F20004E569A4697D
:105A2000A4185D41CEE91245A82400FB04C4012559
:105A300084F899504C057FF533AF42F21844C2F216
:105A40000004E569A469A4185D41CEE91445A824C1
:105A500000FB04C4012584F89A500C057FF523AFA0
:105A600042F21844C2F20004E569A469A4185D4139
:105A7000CEE91645A82400FB04C4012584F89B50F8
:105A8000CC047FF513AF42F21844C2F20004E5697A
:105A9000A469A4185D41CEE91845A82400FB04C4FC
:105AA000012584F89C508C047FF503AF42F2184422
:105AB000C2F20004E569A469A4185D41CEE91A4563
:105AC000A82400FB04C4012584F89D504C047FF5F4
:105AD000F3AE42F21844C2F20004E569A469A418C6
