:020000040800F2
:10000000580A002001010008ED260008291D0008FB
:10001000E9260008F5010008212C00080000000076
:10002000000000000000000000000000F9260008A9
:100030001102000800000000F5260008FD26000857
:100040001B0100081B0100081B0100081B01000820
:100050001B0100081B0100081B0100081B01000810
:100060001B0100081B0100081B0100081B01000800
:100070001B0100081B010008F90100080502000827
:100080001B0100081B0100081B0100081B010008E0
:100090001B0100081B0100081B0100081B010008D0
:1000A0001B0100081B0100081B0100081B010008C0
:1000B0001B0100081B0100081B0100081B010008B0
:1000C0001B0100081B0100081B0100081B010008A0
:1000D0001B010008052C00081B0100081B0100087B
:1000E0001B0100081B0100081B010008DFF80CD0F1
:1000F00000F068F8004800472D2D0008580A00203D
:100100000648804706480047FEE7FEE7FEE7FEE7B1
:10011000FEE7FEE7FEE7FEE7FEE7FEE70D27000845
:10012000ED0000082DE9F05F0546002092469B4651
:1001300088460646814640241BE0284641464746FD
:10014000224600F02FF853465A46C01A914110D368
:1001500011461846224600F016F82D1A67EB0108E2
:100160004F4622460120002100F00DF817EB000950
:100170004E41201EA4F10104DFDC484631462A46E8
:100180004346BDE8F09F202A04DB203A00FA02F142
:10019000002070479140C2F1200320FA03F3194375
:1001A00090407047202A04DB203A21FA02F0002117
:1001B000704721FA02F3D040C2F120029140084377
:1001C000194670471CB5094800900948019005463A
:1001D000009C06E0E06840F0010394E807009847BF
:1001E0001034AC42F6D3FFF785FF0000DC32000884
:1001F000FC320008FEE7000040F26440C2F200005A
:1002000000F08CB840F22040C2F2000000F086B846
:1002100070470000EFF3108072B600BFFEE70000E9
:10022000014690F82100022816D10868D1E90FC3D1
:10023000026822F00E020260026822F001020260EF
:10024000012000FA03F2CCF8042081F821000020FC
:10025000002281F8202070470420886301200022BA
:1002600081F820207047000090F82110022923D146
:100270000268116821F00E0111602F211368C4F289
:1002800002018A4240F20401C4F2020123F0010398
:10029000136015DD3023C4F202039A421CD04423BC
:1002A000C4F202039A421BD05823C4F202039A42BA
:1002B0001CD14FF4803321E0042181630120704779
:1002C0000823C4F202039A420ED01C23C4F2020394
:1002D0009A420BD1102311E04FF480730EE000BF5F
:1002E0004FF480530AE000BF012307E001F1680CDE
:1002F0004FF08073624508BF4FF480130B600121FB
:1003000080F82110426B002180F8201022B180B5C6
:1003100090470021BDE880400846704710B5D0E9FD
:100320000FCE0168DCF800300A6823FA0EF35C0790
:100330002AD512F0040427D00A68920603D40A686A
:1003400022F004020A602F22C4F20202914240F21B
:100350000402C4F202025BDD3023C4F202039942BC
:1003600072D04423C4F20203994273D05823C4F2DA
:100370000203994240F07A804FF480231360C16AEF
:10038000002940F098806FE09C0727D512F0020406
:1003900024D00A68920606D40A6822F00A020A608B
:1003A000012280F821202F22C4F20202914240F261
:1003B0000402C4F202023BDD3023C4F2020399427C
:1003C00060D04423C4F2020399425FD05823C4F2A0
:1003D0000203994260D14FF4003365E01B0743D517
:1003E00012F0080208BF10BD0A6822F00E020A606F
:1003F000012101FA0EF2CCF80420816380F821106B
:10040000016B0022002980F8202054D12CE000BF8D
:100410000823C4F20203994222D01C23C4F202032F
:10042000994223D140231360C16A002943D11BE0C4
:100430000823C4F2020399422CD01C23C4F2020305
:10044000994229D120232FE04FF480631360C16AC1
:1004500089BB09E04FF480431360C16A59BB03E0D4
:1004600004231360C16A31BB10BD00BF02F16804F0
:100470004FF08063A14208BF4FF480031360C16A4C
:10048000C9B9F1E74FF400730EE000BF4FF4005319
:100490000AE000BF022307E002F168044FF0007396
:1004A000A14208BF4FF400131360816A00220029A3
:1004B00080F82020D8D0BDE8104008470146002829
:1004C0004FF0010008BF70472DE9F0470A684FF66A
:1004D000F873CBF6FD7302EB030C4CF6CD43CCF670
:1004E000CC43ACFB033C6FF00307002607EA9C07F4
:1004F000C4F2020601F10C0AC1E90F670227D1E933
:10050000013E9AE83004D1E9069881F82170176815
:1005100043F6F076B7433B4343EA0E0323432B43B2
:1005200043EA0A0343EA090343EA0803136000228B
:100530008A6381F8210081F820200020BDE8F0477F
:100540007047000090F820C0BCF1010F04BF0220EA
:100550007047F0B54FF0010E80F820E090F821C010
:10056000BCF1010F26D14FF0020C80F821C04FF0F2
:10057000000CC0F838C0D0E900C4C56AC66BDCF80E
:100580000070102C27F00107CCF80070006C0EFAF8
:1005900000F070600846CCF8043004BF10460A46EC
:1005A000CCF80800CCF80C20DCF8000045B140F095
:1005B0000E000DE0002180F820100220F0BD00BFE9
:1005C00020F00400CCF80000DCF8000040F00A0045
:1005D000CCF80000DCF8000040F00100CCF800008E
:1005E0000020F0BDB0B5044600F01EF9054640F20B
:1005F0000400C2F200000078611C18BF044400BF70
:1006000000F012F9401BA042FAD3B0BD2DE9F04F23
:1006100082B00E68002E00F0FD8041F20042C4F26C
:100620000102042340F2004E904208BF03234FF61C
:10063000FF7CC4F2010E009300240123C1F2100CD0
:100640004FF0000A4FF0000944E000BF012704F01A
:100650000C030F229A402BEA020207FA03F34FEA37
:100660009A051A4346F825204E6840F20C45F202DE
:10067000DEF8082054BF22EA080242EA0802C4F267
:100680000105CEF808202A68B30254BF22EA080206
:1006900042EA08022A60B303DEF8042054BF22EACB
:1006A000080242EA0802F303CEF80420DEF8002034
:1006B0004FF0010354BF22EA080242EA0802CEF8D2
:1006C00000200E680AF1010A36FA0AF204F1040465
:1006D00000F0A08003FA0AFB16EA0B08F1D04E687E
:1006E000664511DC122E55D8DFE806F0340A44487E
:1006F000545454545454545454545454544C50001A
:10070000D1F80C9046E000BF4FF6FF72C1F2210213
:1007100096420FDC0022C1F2110296421AD000224A
:10072000C1F21202964215D00022C1F22102964275
:1007300010D02FE00022C1F2220296420AD00022FD
:10074000C1F23102964205D00022C1F23202964235
:1007500020D100BF8A684AB1012A14BFC0F814B082
:10076000C0F810B04FF0080914E000BF4FF00409C2
:1007700010E000BFCA6802F108090BE04FF0000961
:1007800008E000BFCA6802F1040903E0CA6802F188
:100790000C0900BF22460646B8F5807F24BF203AE8
:1007A000043637680F25954027EA050509FA02F255
:1007B0002A433260CA79D2067FF583AF41F218032B
:1007C000C4F202031A68AEF57E7642F001021A60A6
:1007D0001A6802F001020192019A2AF0030256F807
:1007E00002B040F60002C4F20102904210D040F67E
:1007F0000042C4F2010290423FF428AF41F20002ED
:10080000C4F20102009F904208BF02271FE700BF09
:1008100000271CE702B0BDE8F08F0000002A08BFE7
:10082000090401617047000040F25460C2F2000008
:100830000068704740F2040040F25461C2F20000C8
:10084000C2F2000100780A68104408607047000096
:1008500080B542F20000C4F20200016841F01001CC
:100860000160032000F08CF8002000F005F800F093
:1008700027F8002080BD000070B540F20406C2F2E7
:10088000000640F20C013278C2F200014FF47A7394
:100890000968B3FBF2F20446B1FBF2F1084600F03E
:1008A000A7FB0F2C4FF0010508D838B94FF0FF30E7
:1008B00021460022002500F037F87460284670BDFC
:1008C00082B041F21800C4F202000168022241F035
:1008D00001010160016801F0010101910199416884
:1008E00041F080514160406800F0805000900098D5
:1008F0000420C4F20100016862F31A61016002B0D1
:1009000070470000002848BF704700F01F01012217
:1009100002FA01F11C2202EAD0004EF20012CEF2DD
:10092000000281507047000010B54EF60C5CCEF20C
:10093000000CDCF80030C3F3022E8EF00704042C08
:1009400028BF0424BEF103034FF0FF3E0EFA04F467
:1009500038BF0023A14399400EFA03F39A43114391
:1009600000F00F0200F160430901043A03F564430B
:100970006244002848BF02F10C03197010BD00004A
:100980004EF60C51CEF200010A684FF6FF031A40F2
:1009900060F30A2242F0806040F0FD70086070470A
:1009A00070470000002804BF012070472DE9F04384
:1009B00081B042F20008C4F202080446D8F80000F0
:1009C0000D4600F0070088420CD2D8F8000020F055
:1009D00007002843C8F80000D8F8000000F007001E
:1009E000A8426ED1206841F204098107C4F20209CD
:1009F00017D5410705D5D9F8001041F4E061C9F8D1
:100A00000010010705D5D9F8001041F46051C9F86C
:100A10000010D9F80010A26821F0F0011143C9F8C4
:100A20000010C00744D1D8F8000000F00700A84229
:100A30000CD9D8F8000020F007002843C8F80000BF
:100A4000D8F8000000F00700A8423AD1206841071A
:100A500007D5D9F80010E26821F4E0611143C9F824
:100A60000010000708D5D9F80000216920F4605073
:100A700040EAC100C9F80000D9F8001041F6003082
:100A800001F00C02042AC0F2B70059D0082A45D15F
:100A900043F28A23C1F38342C0F600039A5CC90380
:100AA00042D440F60010C0F23D00504348E000BF81
:100AB000606802280AD001282AD159F8041C890349
:100AC00008D4012001B0BDE8F08300BF59F8041C30
:100AD0008901F6D5D9F8001021F003010843C9F8BF
:100AE0000000FFF7A1FE064641F28837D9F8000062
:100AF000616800F00C00B0EB810F94D0FFF794FE1A
:100B0000801BB842F2D9032001B0BDE8F08300BFDA
:100B100059F8041C8907D4D5DCE700BF41F2002056
:100B2000C0F27A000CE000BFD9F8001043F288232D
:100B3000C1F34041C0F60003595C5043B0FBF1F0F3
:100B4000D9F8001043F27022C1F30311C0F600027D
:100B5000515C40F20C0220FA01F140F20800C2F2AE
:100B600000000068C2F200021160FFF785FE00205D
:100B700001B0BDE8F08300004C20C4F24220012106
:100B80000160704740F20C0041F20401C2F2000023
:100B9000C4F202010068096843F28022C1F3022115
:100BA000C0F60002515CC8407047000040F20C00E3
:100BB00041F20401C2F20000C4F2020100680968B7
:100BC00043F28022C1F3C221C0F60002515CC8404A
:100BD0007047000010B541F20804C4F20204206816
:100BE000000658BF10BDFFF7DBFE8020A07010BDCF
:100BF000002804BF012070472DE9F04182B004466F
:100C0000007841F20006C007C4F202060CD07068FA
:100C100000F00C00042840F081803068800303D588
:100C20006068002800F04E81207880071BD570682E
:100C300010F00C0F09D0706800F00C00082840F08C
:100C40008B807068C00300F187803068800703D50F
:100C50002069012840F036813068616920F0F80091
:100C600040EAC10030602078000713D420784007A4
:100C70002CD4E569002D00F02081706800F00C0094
:100C8000082840F0AF80012D40F00C81012002B017
:100C9000BDE8F081A069002800F08C800020C4F23B
:100CA00042200121C0F88014FFF7BEFD054600BFB9
:100CB000706A800700F1BA80FFF7B6FD401B02287A
:100CC000F6D9032002B0BDE8F08100BFF0695FEA09
:100CD000C00808D4F06940F08050F061F06900F07D
:100CE00080500090009847F20007C4F2000738686F
:100CF000C0054DD4386840F480703860FFF794FD2B
:100D0000054600BF3868C00542D4FFF78DFD401B83
:100D10006428F7D9032002B0BDE8F081706800F0C4
:100D20000C00082803D17068C0033FF576AF6068F7
:100D3000002800F00981B0F5A02F00F01D81B0F56A
:100D4000803F00F01D81306820F4803030603068D2
:100D500020F4802017E100BF2069002840F2000045
:100D6000C4F2422000F08C8001210160FFF75CFD9D
:100D7000054600BF306880073FF56EAFFFF754FDB2
:100D8000401B0228F6D9032002B0BDE8F08100BF65
:100D9000E068002800F09A80052800F0B180012862
:100DA00000F0B280306A20F001003062306A20F03A
:100DB0000400ACE00020C4F242200021C0F88014FE
:100DC000FFF732FD054600BF706A80077FF54EAF22
:100DD000FFF72AFD401B0228F6D9032002B0BDE828
:100DE000F08100BF0027C4F2422700203866FFF7D9
:100DF0001BFD022D05460DD13068800140F1D680E3
:100E0000FFF712FD401B02284FF00300F4D902B097
:100E1000BDE8F081306880014FD5FFF705FD401B2C
:100E200002284FF00300F5D9F1E700BF40F20C00B3
:100E3000C2F20000006844F6D351C1F26201A0FB87
:100E40000101480A019000BF00BF0198411E00281F
:100E500001913FF40BAF00BF0198411E00280191A2
:100E60003FF404AF00BF0198411E002801913FF4F8
:100E7000FDAE00BF0198411E00280191E4D1F5E6C6
:100E800000210160FFF7D0FC054600BF30688007F5
:100E90007FF5E9AEFFF7C8FC401B02284FF00300C6
:100EA000F4D9B4E77068216A00F480328A4209D12B
:100EB000616A00F47010884204D1002002B0BDE8DD
:100EC000F08100BF012002B0BDE8F081306A20F05F
:100ED00001003062306A20F004003062FFF7A4FCA9
:100EE000054641F2883700BF306A800722D5FFF7F8
:100EF0009BFC401BB8424FF00300F5D987E700BFC9
:100F0000306A40F004003062306A40F00100306224
:100F1000FFF78AFC054641F2883700BF306A800738
:100F200008D4FFF781FC401BB842F7D9032002B078
:100F3000BDE8F081B8F1000F3FF59BAEF06920F0FD
:100F40008050F06195E600BF306820F4803030605A
:100F5000306820F480203060FFF766FC054600BF53
:100F6000306880037FF560AEFFF75EFC401B6428AD
:100F70004FF00300F4D94AE7306840F48020306035
:100F8000306840F480303060FFF74EFC054600BF0B
:100F9000306880033FF548AEFFF746FC401B6428ED
:100FA000F6D9032002B0BDE8F08100BF206AB0F599
:100FB000803F05D17168A26821F40031114371604E
:100FC0007168626A21F47411114308437060012052
:100FD0003866FFF729FC0446306880013FF56DAFA5
:100FE000FFF722FC001B02284FF00300F4D90EE7A4
:100FF000411E0020B0EB116F1CBF012070474EF264
:101000001002CEF2000251604EF62351CEF20001E2
:10101000F0230B700721906011607047704700004B
:1010200010B504460068416994F84120212A56D140
:1010300011F0800153D000BF206850E8050F2168EF
:1010400020F0800041E80502DAB1206850E8050F81
:10105000216820F0800041E8050292B1206850E844
:10106000050F216820F0800041E805024AB12068A0
:1010700050E8050F216820F0800041E80502002AB1
:10108000DAD1A06B002818BFFFF7CAF8206850E833
:10109000030F216820F0C00041E80302DAB12068A4
:1010A00050E8030F216820F0C00041E8030292B12C
:1010B000206850E8030F216820F0C00041E80302D7
:1010C0004AB1206850E8030F216820F0C00041E8D1
:1010D0000302002ADAD1202084F841002068406908
:1010E00094F84210222940F0A78010F0400000F050
:1010F000A38000BF206850E8050F216820F0400061
:1011000041E80502DAB1206850E8050F216820F0B7
:10111000400041E8050292B1206850E8050F2168BF
:1011200020F0400041E805024AB1206850E8050F70
:10113000216820F0400041E80502002ADAD1E06B86
:10114000002818BFFFF76CF8206850E8030F2168EB
:1011500020F4907041E80302BAB3206850E8030F0E
:10116000216820F4907041E8030272B3206850E8CF
:10117000030F216820F4907041E803022AB320682D
:1011800050E8030F216820F4907041E80302002A20
:10119000DAD11AE0206850E8050F216820F001003C
:1011A00041E80502DAB1206850E8050F216820F017
:1011B000010041E8050292B1206850E8050F21685E
:1011C00020F0010041E805024AB1206850E8050F0F
:1011D000216820F0010041E80502002ADAD1206BE5
:1011E000012824D1206850E8030F216820F0100066
:1011F00041E80302DAB1206850E8030F216820F0CB
:10120000100041E8030292B1206850E8030F216802
:1012100020F0100041E803024AB1206850E8030FB3
:10122000216820F0100041E80302002ADAD12020D2
:1012300084F8420000202063002010BD70470000A9
:10124000B0B582B0044600680168C368426901F025
:101250002F05202D03F0200506D12DB1204602B028
:10126000BDE8B04001F04EBC5FEA017C1EBF02F059
:10127000010E03F4907212EB0E0243D1226BCD06E5
:1012800018D5012A16D113F0100213D000210191B4
:1012900001680191416801910199406940063BD480
:1012A000A08DE18DE28D002A18BF884240F0F281C6
:1012B00002B0B0BD0A0640F1E78013F0800200F0F2
:1012C000E38094F841102129F2D1A168B1F5805F43
:1012D00003D12169002900F06382216A4A1C22623D
:1012E00009784160E18C01390A04E184E0D1C168E8
:1012F00021F08001C160C16841F04001C16002B0CD
:10130000B0BD00BFCA0718BF13F4807240F0D08090
:101310004A0700F1D380D8E0E06B016849688AB2DF
:10132000002AC5D0A38D9A42C2D2E18580692028C7
:1013300000F09E80206850E8030F216820F4807040
:1013400041E80302DAB1206850E8030F216820F475
:10135000807041E8030292B1206850E8030F2168D1
:1013600020F4807041E803024AB1206850E8030F7E
:10137000216820F4807041E80302002ADAD1206855
:1013800050E8050F216820F0010041E80502C2B3D2
:10139000206850E8050F216820F0010041E80502AF
:1013A0007AB3206850E8050F216820F0010041E879
:1013B000050232B3206850E8050F216820F00100D3
:1013C00041E80502002ADAD11BE000BF206850E89E
:1013D000050F216820F0400041E80502DAB12068DD
:1013E00050E8050F216820F0400041E8050292B165
:1013F000206850E8050F216820F0400041E8050210
:101400004AB1206850E8050F216820F0400041E80B
:101410000502002ADAD1202084F84200002020634F
:10142000206850E8030F216820F0100041E8030213
:10143000DAB1206850E8030F216820F0100041E87D
:10144000030292B1206850E8030F216820F01000D9
:1014500041E803024AB1206850E8030F216820F0F8
:10146000100041E80302002ADAD1E06BFEF7D8FE53
:1014700002206063A08DE18D401A81B2204602B047
:10148000BDE8B040FFF7CABD49067FF511AF13F0C4
:1014900040013FF40DAFC16821F04001C16020213F
:1014A000204684F8411002B0BDE8B04000F03ABCDC
:1014B000626C42F0010262644A0706D5BEF1000F79
:1014C00003D0626C42F0020262648A0706D5BEF164
:1014D000000F03D0626C42F004026264BCF1000FA2
:1014E00006D55EEA050203D0626C42F0080262642F
:1014F000626C002A3FF4DCAE890604D51DB120469B
:1015000001F000FB20684069616C00F0400001F0D0
:101510000801401800F0B680206850E8030F2168E9
:1015200020F4907041E80302BAB3206850E8030F3A
:10153000216820F4907041E8030272B3206850E8FB
:10154000030F216820F4907041E803022AB3206859
:1015500050E8030F216820F4907041E80302002A4C
:10156000DAD11AE0206850E8050F216820F0010068
:1015700041E80502DAB1206850E8050F216820F043
:10158000010041E8050292B1206850E8050F21688A
:1015900020F0010041E805024AB1206850E8050F3B
:1015A000216820F0010041E80502002ADAD1206B11
:1015B000012824D1206850E8030F216820F0100092
:1015C00041E80302DAB1206850E8030F216820F0F7
:1015D000100041E8030292B1206850E8030F21682F
:1015E00020F0100041E803024AB1206850E8030FE0
:1015F000216820F0100041E80302002ADAD12020FF
:1016000084F842000020206320684069400640F1D1
:10161000C180206850E8050F216820F0400041E8B3
:101620000502DAB1206850E8050F216820F040007B
:1016300041E8050292B1206850E8050F216820F0CA
:10164000400041E805024AB1206850E8050F2168D2
:1016500020F0400041E80502002ADAD1E06B0028C2
:1016600000F0988042F60501C0F600014163FEF7E4
:10167000FBFD00283FF41CAEE06B416B02B0BDE8FF
:10168000B04008472046FFF7D9FD0020606402B053
:10169000B0BD00BF401A00BF216851E8031F226897
:1016A00021F4907142E80313BBB3216851E8031F92
:1016B000226821F4907142E8031373B3216851E862
:1016C000031F226821F4907142E803132BB32168B1
:1016D00051E8031F226821F4907142E80313002BA4
:1016E000DAD11AE0216851E8051F226821F00101D2
:1016F00042E80513DBB1216851E8051F226821F09B
:10170000010142E8051393B1216851E8051F2268E1
:1017100021F0010142E805134BB1216851E8051F92
:10172000226821F0010142E80513002BDAD12021C3
:1017300084F8421000212163216851E8031F2268C8
:1017400021F0100142E80313DBB1216851E8031FC7
:10175000226821F0100142E8031393B1216851E897
:10176000031F226821F0100142E803134BB12168E6
:1017700051E8031F226821F0100142E80313002BF7
:10178000DAD1022281B22046626302B0BDE8B040E5
:10179000FFF744BC204602B0BDE8B040FFF74EBDA5
:1017A000216A31F8022B6FF35F224260216299E5D2
:1017B00010B582B0006843F60001C4F2010188420E
:1017C00002D002B010BD00BF40F2A840C2F200003B
:1017D000006840F250540168C2F2000409071DD4A9
:1017E0000168C906EDD500210191016801914068A9
:1017F0000190019840F2A840C2F20000FFF710FCEF
:1018000040F22040C2F2000000684068C0F1FF00D2
:101810002080012084F8010119E000BF002101911E
:101820000268019242680192019A01910268019254
:1018300042680192019A019101680191406801900A
:10184000019840F2A840C2F20000FFF7E9FB40F225
:10185000A840A11CC2F20000FF2202B0BDE8104067
:1018600000F0F0B8002804BF0120704710B504460E
:1018700090F8410028B9002084F84000204600F08C
:1018800063F8242084F841002068D4E90212C36878
:1018900023F40053C360036923F440531A430261E5
:1018A000D4E904231143C268194341F20C639A43FB
:1018B0001143C1604169A26921F44071114343F6AB
:1018C0000002C4F201029042416103D0FFF75AF9CD
:1018D00002E000BFFFF76AF9D4E900231921484369
:1018E0009900B0FBF1F048F21F5CC5F2EB1CA0FBC5
:1018F0000C314FF69C734909C0F6FF7301FB0300DE
:10190000322303EB0010A0FB0C03F02000EA53107D
:1019100000EB0110C3F343110844906010692021CB
:1019200020F490401061506920F02A005061D06886
:1019300040F40050D0600020606484F8411084F8C6
:101940004210606310BD00002DE9F04385B040F601
:1019500000050446C4F20105006805F54051002762
:101960008842039702D005B0BDE8F08341F2180029
:10197000C4F20200016801AE41F4804101600168D7
:1019800040F2440801F48041009100990168C4F2DA
:10199000020841F0040101600068314600F00400D3
:1019A000009000984FF400700190022002900320F4
:1019B00004902846FEF72AFE4FF48060CDE9010727
:1019C000284631460397FEF721FE40F2204508F1F4
:1019D0001400C2F20005802620214FF48059C5E989
:1019E00000072846C5E90276C5E90477C5E9061966
:1019F000FEF764FD002818BFFEF70CFCE5636C627F
:101A000040F26445C2F2000510200021C5E90080C3
:101A10002846C5E90216C5E90411C5E90619FEF70D
:101A20004DFD002818BFFEF7F5FB25200021002200
:101A3000A5636C62FEF778FF2520FEF763FF05B013
:101A4000BDE8F08370B582B0044690F842002028CB
:101A50000AD113460A4600294FF0010018BF002B97
:101A600006D102B070BD00BF022002B070BD00BF41
:101A7000002522202563A262A385656484F84200C4
:101A80002168E06B42F68D1C42F6ED2E42F61106FF
:101A9000C0F6000CC0F6000EC0F600060431C0E926
:101AA0000ACEC0E90C65FEF74DFD0195206801687E
:101AB0000191406801900198206928B3206850E89E
:101AC000030F216840F4807041E80302E2B120680E
:101AD00050E8030F216840F4807041E803029AB196
:101AE000206850E8030F216840F4807041E8030249
:101AF00052B1206850E8030F216840F4807041E83B
:101B00000302002ADAD100BF206850E8050F2168DF
:101B100040F0010041E80502BAB3206850E8050F23
:101B2000216840F0010041E8050272B3206850E8E6
:101B3000050F216840F0010041E805022AB3206842
:101B400050E8050F216840F0010041E80502002A35
:101B5000DAD11AE0206850E8050F216840F0400013
:101B600041E80502DAB1206850E8050F216840F02D
:101B7000400041E8050292B1206850E8050F216855
:101B800040F0400041E805024AB1206850E8050FE6
:101B9000216840F0400041E80502002ADAD1002027
:101BA00002B070BD70470000704700002DE9F041A1
:101BB000044690F8410020281CBF0220BDE8F081B7
:101BC0000D4600294FF0010000F0AA801646002AB9
:101BD00008BFBDE8F081002060642120984684F8A9
:101BE0004100FEF721FEA684E684A1680646B1F511
:101BF000805F02D12069002862D02F460025E08C4A
:101C0000002861D018F1010018D0B8F1000F37D1C9
:101C1000216808E017F8010B4860E08C0138E08487
:101C2000E08C002851D00868000673D5002FF1D150
:101C300035F8020B00276FF35F20EDE7216802E023
:101C40000868000609D40868000606D4086800067B
:101C50005CBF08685FEA0060F2D51FB117F8010B9E
:101C600005E000BF35F8020B00276FF35F204860E6
:101C7000E08C0138E084E08C0028E4D125E000BF4E
:101C8000216800BF0868000608D4FEF7CDFD801B60
:101C9000404541D82168C868F4E700BF17B117F87C
:101CA000010B04E035F8020B00276FF35F2048605A
:101CB000E08C0138E084E08C0028E3D105E000BF2F
:101CC0000027E08C00289DD12168086840061FD4B9
:101CD000B8F1000F1ED018F101000FD108684006BE
:101CE00016D40868400613D40868400610D4086863
:101CF00040064FF00000F1D50FE000BFFEF794FD65
:101D0000801B404508D82068C16800684006F5D5AA
:101D1000002002E0FEF788FD0320202184F8411016
:101D2000BDE8F08170470000FEE7000080B540F29A
:101D30001803C2F200030028C3E9011218BF80474C
:101D400043F2B720C0F6000001F080FA43F29A2077
:101D5000C0F6000001F07AFA08A001F077FA0FA0AF
:101D600001F074FA15A001F071FA43F2D4211BA01E
:101D7000C0F60001BDE8804001F016B87C202020AC
:101D80002020207C2020202020207C202020207C3F
:101D900020202D2D2020200D000000007C20202060
:101DA0002020207C2020202020207C202020207C1F
:101DB00020202020207C200D00000000202D2D2D33
:101DC0002D2020202D2D2D2D202020202D2D2020B8
:101DD00020202D2D2020200D000000004C4C4F53C2
:101DE0002076657273696F6E3A2025730D0A0000C4
:101DF0002DE9F04184B0064615A0984615460F46D9
:101E000001F024FA40F2500438687968C2F2000404
:101E1000A061E161B868002E2062F86860624FF04E
:101E20000200207018BFB0472846658000F0F2FA23
:101E300041F67963C0F60003CDE900014046012177
:101E40000122029300F088FB04B0BDE8F08100BFDE
:101E50005B4C4C4F532044454255475D204C4C4F02
:101E600053204B657920496E69740D0040F2500192
:101E7000C2F20001486070472DE9F04740F2500A75
:101E8000C2F2000A4FF000094FF0010800218AF861
:101E9000009009E087F800900131C8B202288AF862
:101EA000001028BFBDE8F087C8B20AEBC0039A69EA
:101EB000002AF1D0DA69002AEED000EB40070AEBE5
:101EC0008706374617F8285F012D11D0002DE1D184
:101ED00006F8299F86F8099098690068104090429A
:101EE000C6F803001CBF87F8008086F80080D3E79F
:101EF000BAF80250348E254435869C692468144013
:101F0000944223D1B3F80EE0B446ACB20EF196057C
:101F1000A5420CF8328F2AD8DAF8042087F800900E
:101F200096F82970BEF5487F8CF8009088BF04278A
:101F30001F7322B1012190479AF80000014600EB7F
:101F400040000AEB8000A0F83090A5E79F693F6849
:101F5000DD8122EA0706DAF804709E603FB10021B5
:101F6000B8479AF800000AEBC001CA6901460AEBBB
:101F7000C0039B6900EB40001B680AEB8000C76A46
:101F80001A40BA427FF488AF024612F8323F012B62
:101F90007FF482AF90F8293082F80090013380F806
:101FA000293079E770B581B040F2900EC2F2000E90
:101FB000DDF814C00090704650F8044F009DAC420C
:101FC00006D1044654F8045F8D4201D1002527E074
:101FD000704650F8144F009DAC4207D1044654F8A7
:101FE000045F8D4202D101251AE000BF704650F80F
:101FF000244F009DAC4207D1044654F8045F8D4243
:1020000002D102250CE000BF704650F8344F009D0D
:10201000AC4213D1044654F8045F8D420ED103251F
:10202000009E066021600EEB051000218274C374CF
:10203000A0F810C0C16001B070BD00BF9EF80000E4
:10204000042805D30AA001B0BDE8704001F0FEB835
:10205000009C0EEB00156C60AA7400220130EB743A
:10206000A5F810C0C5E902128EF8000001B070BDDD
:102070005B4C4C4F53204552524F525D203E204CFA
:102080004C5F4C45445F4E554D210D0070B584B0FA
:1020900006460FA014460D4601F0D8F8002E18BFD2
:1020A000B04740F29000C2F200004580284600F0A0
:1020B000B1F942F29D13C0F60003CDE900012046BC
:1020C00001210122029300F047FA04B070BD00BF65
:1020D0005B4C4C4F532044454255475D204C4C4F80
:1020E00053204C454420496E69740D0010B581B0F1
:1020F0000090009800284FD040F29003C2F20003F5
:10210000DDF800C0D3F804E00098864506D1986851
:10211000884203D100205860986098745869D3F8B9
:1021200018E0009CA04208BF8E4504D100205861F1
:10213000986183F822005C6AD3F828E00098844212
:1021400008BF8E4504D100205862986283F832009F
:102150005C6BD3F838E00098844208BF8E4509D004
:10216000022A0ED0012A11D0DCF80000002A41EA30
:1021700000010FE000205863986383F84200022AB0
:10218000F0D1DCF80000414004E000BFDCF80000C2
:1021900020EA0101CCF8001001B010BDF0B540F20A
:1021A0009000C2F20000B0F802C0416831B3836809
:1021B00023B390F812E0BEF1000F1FD04168C2684F
:1021C000C77C541C028A04FB0CF56426754307FB8C
:1021D00002F6C460B5420C6834BF24EA030323430B
:1021E0000B60C16801FB0CF1914207D30021BEF1E5
:1021F000FF0FC1601CBFAEF101018174416941B3A1
:10220000836933B390F822E0BEF1000F21D0416919
:10221000C26990F82370541C028C04FB0CF56426F0
:10222000754307FB02F6C461B5420C6834BF24EA6B
:10223000030323430B60C16901FB0CF1914208D3F6
:102240000021BEF1FF0FC1611CBFAEF1010180F89A
:102250002210416A41B3836A33B390F832E0BEF191
:10226000000F21D0416AC26A90F83370541C028E6C
:1022700004FB0CF56426754307FB02F6C462B54205
:102280000C6834BF24EA030323430B60C16A01FBDB
:102290000CF1914208D30021BEF1FF0FC1621CBFB7
:1022A000AEF1010180F83210416B59B3836B002B02
:1022B00008BFF0BD90F842E0BEF1000F22D0416BA4
:1022C000C26B90F84370541CB0F8402004FB0CF52E
:1022D0006426754307FB02F6C463B5420C6834BF3D
:1022E00024EA030323430B60C16B01FB0CF1914211
:1022F00008D30021BEF1FF0FC1631CBFAEF1010185
:1023000080F84210F0BD000040F2180CC2F2000C40
:102310009CF80000002808BF70472DE9F04F83B0FB
:1023200000244FF0010E0020002506E0019D9CF8DE
:102330000010013568B2884268DA40F2D802C2F271
:102340000002A82300FB032969B239F8A00F01FBA2
:10235000032609F1020809F104014FF0780A4FF051
:10236000000B019502910FE040F2180C0024C2F21C
:10237000000C87F88F404FF0010EAAF1080A1AF1FD
:102380000801ABF1010BD1D006EB0B07B8F8001038
:1023900097F89F200843A9F800003AB187F88FE02A
:1023A000A8F8004087F89F4008E000BF97F88F101A
:1023B000A8F80040002987F89F40DED0DCE906122B
:1023C00006EB0A0356F80A505B68491B72EB0301DF
:1023D000D3D302990A68002ACFD00BF10F010EFA6D
:1023E00001F5284081B20198C0B29047B9F80010B9
:1023F000484000EA05010904A9F80000B4D040F201
:10240000180CC2F2000C0024B5E700BF03B0BDE811
:10241000F04F704740F21001C2F200010978B0FBA2
:10242000F1F000217047000040F20051C2F20001BB
:102430000860704740F20050C2F2000000680028B7
:1024400008BF704700470000F0B581B040F21001AE
:10245000C2F2000140F218070870C2F20007D7E983
:102460000602013042F10002C7E90602D7E906037D
:10247000D7E90A260978801A4FF47A72B2FBF1F292
:1024800063EB06010023FDF74DFE52EA03000CD179
:10249000F868396B01313963396B814205D139698B
:1024A00019B10020002588473D6140F20855C2F26D
:1024B0000005287CA8B1D7E90601D5E90064D5E973
:1024C0000223801BA141FDF72DFE52EA030008D133
:1024D000696931B1002000268847687C002808BF60
:1024E0002E7495F82800B8B1D7E90601D5E906643D
:1024F000D5E90823801BA141FDF714FE52EA030031
:102500000AD1E96A41B10120884795F829000028DD
:1025100004BF002085F8280095F8400060B1D7E995
:102520000601D5E90C76D5E90E23C01BB141FDF7B4
:10253000F9FD52EA030001D001B0F0BD696C002939
:10254000FAD00220884795F84100002804BF0020F7
:1025500085F8400001B0F0BDF0B581B0032805D387
:1025600012A000F073FEFF2001B0F0BD40F218048D
:102570000DF1180EC2F2000440F208569EE8085011
:10258000E569A46900EB4000C2F2000606EBC00753
:1025900046F8304039747A74C7E90153C7F80CC063
:1025A000C7F814E0002001B0F0BD00BF5B4C4C4FF9
:1025B00053204552524F525D203E204C4C5F5449AF
:1025C0004D45525F4E554D210D00000080B582B043
:1025D00041F21400C4F202000168002241F001013E
:1025E00001600068002100F00100019001980E20B8
:1025F000FEF79AF90E20FEF785F90F200021002240
:10260000FEF792F90F2002B0BDE88040FEF77AB9DC
:102610002DE9F04186B0002641F218000596C4F27B
:102620000200016840F6004441F0200101600168A9
:10263000C4F2010401F02001019101990168012215
:1026400041F00401016001684FF4707801F0040169
:10265000019101990168012741F0080101600068BA
:102660004FF4707100F00800019001982046FEF7C9
:10267000D5F8802002A902ADC1C1A4F58060294629
:10268000FDF7C4FF20462946CDE902760497FDF701
:10269000BDFF0220059020462946CDE90287049619
:1026A000FDF7B4FF06B0BDE8F081000080B540F250
:1026B000A84043F60001C2F20000C4F20101002369
:1026C0004FF00C0C4FF4E13280E80E00C0E9033308
:1026D000C0E905C3C361FFF7C5F8002808BF80BD86
:1026E000BDE88040FDF796BDFEE70000FEF772FAF8
:1026F000FEE70000704700007047000080B5012031
:10270000FFF7A2FEBDE88040FEF794B870470000D6
:10271000B0B582B040F2A840C2F20000016840F2B9
:102720005054CA68C2F2000442F01002CA60A11CF0
:10273000FF22FFF787F940F2E5510020C0F60001C3
:10274000002284F80101FFF7F1FA42F62540C0F6B5
:102750000000FFF769FE00200A210022FFF796FC27
:1027600040F60C44C4F201044FF4FA7520464021AF
:10277000FF220A230095FFF715FC204680210A223C
:10278000322300958025FFF70DFC20464FF4807121
:1027900001220124FFF7AAFC40F2F04140F60800B4
:1027A000C2F20001C4F20100086000F580604D60D3
:1027B000886000200A220123CC60FFF719FB42F653
:1027C0007140C0F6000002B0BDE8B040FFF74EBB5C
:1027D00080B5FFF799FD40F25052C2F2000292F824
:1027E0000101002808BF80BD0023911C03A082F8CE
:1027F0000131BDE8804000F0D7BA00BF25730D0A53
:1028000000000000406A0021C185C184FEF716BDAA
:10281000406A01684A6990F84130212B2DD112F0AD
:1028200080022AD00021C184016851E8031F026898
:1028300021F0C00142E80313DBB1016851E8031F36
:10284000026821F0C00142E8031393B1016851E826
:10285000031F026821F0C00142E803134BB1016875
:1028600051E8031F026821F0C00142E80313002B66
:10287000DAD1202180F841100168496990F842209E
:10288000222A40F07D8011F0400179D00021C185DD
:10289000016851E8031F026821F4907142E80313B4
:1028A000BBB3016851E8031F026821F4907142E84C
:1028B000031373B3016851E8031F026821F4907198
:1028C00042E803132BB3016851E8031F026821F4A7
:1028D000907142E80313002BDAD11AE0016851E845
:1028E000051F026821F0010142E80513DBB1016810
:1028F00051E8051F026821F0010142E8051393B178
:10290000016851E8051F026821F0010142E8051342
:102910004BB1016851E8051F026821F0010142E84E
:102920000513002BDAD1016B012924D1016851E88C
:10293000031F026821F0100142E80313DBB10168B4
:1029400051E8031F026821F0100142E8031393B11C
:10295000016851E8031F026821F0100142E80313E7
:102960004BB1016851E8031F026821F0100142E8F1
:102970000313002BDAD1202180F8421000210163DB
:10298000416C41F010014164FEF758BC0168406A97
:102990000968890600F19F800021C185016851E81E
:1029A000031F026821F4807142E80313E3B1016858
:1029B00051E8031F026821F4807142E803139BB1C0
:1029C000016851E8031F026821F4807142E8031393
:1029D00053B1016851E8031F026821F4807142E895
:1029E0000313002BDAD100BF016851E8051F02680C
:1029F00021F0010142E80513BBB3016851E8051F4E
:102A0000026821F0010142E8051373B3016851E83F
:102A1000051F026821F0010142E805132BB301688C
:102A200051E8051F026821F0010142E80513002B5F
:102A3000DAD11AE0016851E8051F026821F040016F
:102A400042E80513DBB1016851E8051F026821F077
:102A5000400142E8051393B1016851E8051F02687F
:102A600021F0400142E805134BB1016851E8051F10
:102A7000026821F0400142E80513002BDAD1202141
:102A800080F84210016B012925D100BF016851E88F
:102A9000031F026821F0100142E80313DBB1016853
:102AA00051E8031F026821F0100142E8031393B1BB
:102AB000016851E8031F026821F0100142E8031386
:102AC0004BB1016851E8031F026821F0100142E890
:102AD0000313002BDAD100214163016B012918BFD8
:102AE000FFF760B8818DFEF799BA0000406A0121B6
:102AF0004163016B012918BFFFF756B8818D490862
:102B0000FEF78CBA81B090F84210222921D1836857
:102B10000246B3F5805F09D152F8281F52F8183CDD
:102B2000002B63D003685B680AE000BF52F8281FDF
:102B300013B90369002BF5D003685B6803F07F03CA
:102B40000B70116801311160C18D01390A04C18512
:102B500002D001B0704700BF0168CA6822F02002AD
:102B6000CA60CA6822F48072CA604A6922F001020F
:102B70004A61202180F8421000214163026B012A42
:102B80003CD10163016851E8031F026821F0100184
:102B900042E80313DBB1016851E8031F026821F02A
:102BA000100142E8031393B1016851E8031F026862
:102BB00021F0100142E803134BB1016851E8031FF3
:102BC000026821F0100142E80313002BDAD10168FA
:102BD0000A68D20606D5002200920A680092496867
:102BE00000910099818D01B0FEF718BA0268526811
:102BF0006FF35F2221F8022B8162A5E701B0FEF797
:102C0000D1BF000010B540F2A844C2F20004204633
:102C1000FEF7CEFD2046BDE81040FEF711BB0000D8
:102C2000FEE700004EF60C50BFF34F8FCEF20000CF
:102C30000168042201F4E061C0F2FA52114301601C
:102C4000BFF34F8F00BF00BF00BF00BFFAE7000017
:102C500080B582B0019040F2A840C2F2000001A904
:102C600001224FF6FF73FEF7A1FF019802B080BD6D
:102C70002DE9F04383B040F25808C2F2000808EB97
:102C8000C007814658F83020FE8817F8044F0D46DB
:102C900017A049462B46CDE9004600F085F8CDB196
:102CA0003878012811D1B9F1000F13D158F8390043
:102CB00010F080000ED040F60C40C4F201004FF43A
:102CC00000710222FFF712FA3878042808BFB9F120
:102CD000000F03D003B0BDE8F08300BF58F83900FF
:102CE00010F08000F6D003B0BDE8F043FFF7A2BBC0
:102CF000506F72743A2025642C2050696E3A20255A
:102D00003038582C20697355703A2025642C2045A2
:102D100076656E743A2025642C205072657373209A
:102D200074696D653A2025640D0A000090B0FDF7C6
:102D30008FFD00240120CDE90B44CDE90944069024
:102D40000A904FF480104FF4803102250F9006A8AE
:102D5000CDE90714CDE90D51FDF74AFF20B1EFF39E
:102D6000108072B6FEE700BF0F20CDE901054FF4D9
:102D70008060CDE9040401A802210394FDF712FE4E
:102D800020B1EFF3108072B6FEE700BFFDF7F4FE4E
:102D9000FFF73EFCFFF71AFCFFF788FCFFF7B8FCD3
:102DA000FFF716FDFCE700000FB4054B10B503A9B3
:102DB000044A029800F018F810BC5DF814FB0000FB
:102DC000512C00080000002002E008C8121F08C1B2
:102DD000002AFAD170477047002001E001C1121F9C
:102DE000002AFBD1704700002DE9FF4F8DB00F4640
:102DF0000546002606E025280BD0DDE90F12904796
:102E00006D1C761C28780028F5D111B03046BDE83D
:102E1000F08F0024A246A1460122EC4900E00443C1
:102E200015F8013F203B02FA03F00842F7D1287859
:102E30002A2810D06FF02F022878A0F1300109293C
:102E400014D80AEB8A0102EB410144F0020400EBC2
:102E5000010A6D1CF0E701CF5FEA000A03D544F4D4
:102E60000054CAF1000A44F002046D1C28782E2890
:102E700017D115F8010F44F004042A280ED06FF082
:102E80002F022878A0F1300109290AD809EB89011D
:102E900002EB410100EB01096D1CF2E757F8049BBE
:102EA0006D1C28786C280FD006DC4C2817D06828B9
:102EB0000DD06A2814D104E0742810D07A280FD1DC
:102EC0000DE044F400140AE044F4801401E044F4FA
:102ED00040146978814202D104F580146D1C6D1C88
:102EE0002A786E2A1FD00CDC632A31D004DC002A39
:102EF0008BD0582A11D1A3E0642A68D0692A0CD15A
:102F000065E0732A2ED004DC6F2A73D0702A04D1B6
:102F10009BE0752A6FD0782A6ED01046DDE90F123B
:102F20009047761C50E1C4F30250022806D00328D3
:102F300009D0042801CF09D0066045E101CFF1177F
:102F4000C0E9006140E101CF06803DE106703BE150
:102F500017F8040B8DF8000000208DF80100EB46F7
:102F6000012003E057F804BB4FF0FF3061074FF03A
:102F7000000102D40DE008F10101884649450FDA4D
:102F80008045F8DB1BF808100029F4D108E008F1AF
:102F9000010188468142FADB1BF808100029F6D1AE
:102FA000DDE90F23AAEB08008146214600F036F93F
:102FB000304400EB080604E0DDE90F121BF8010BBA
:102FC0009047B8F10108F7D221464846F7E00A21B8
:102FD000C4F302534FF0000B0891022B04D001CF31
:102FE000C117032B09D00AE0FF1D27F00707F7E8F8
:102FF000020108E032E01FE020E000B2C117042B1C
:1030000001D140B2C117031E71F1000307DA4FF07E
:10301000000CD0EB0C006CEB01012D2302E023052A
:1030200004D52B238DF82430012303E0E30701D0DE
:103030002023F7E7984658E00A2110E010210EE01F
:1030400010204FF0000B08900CE010214FF0000B07
:1030500044F004044FF00809089103E008214FF000
:10306000000B0891C4F30253022B04D001CF0021BE
:10307000032B06D006E0FF1D27F00707F7E8020143
:1030800003E080B2042B00D1C0B24FF00008230748
:103090002BD5702A07D0DDF820C08CF0100C5CEA2C
:1030A0000B0C05D00EE040238DF82430012308E0FE
:1030B00050EA010306D030238DF824308DF8252006
:1030C00002239846DDF820C08CF0080C5CEA0B0C5B
:1030D0000BD150EA010301D1630706D530238DF8E7
:1030E00024304FF00108A9F10109582A04D038A270
:1030F0000B9208AA0A920BE03AA2F9E75B46089AFB
:10310000FDF710F80B9B9B5C0A9A521E0A921370F3
:1031100050EA0102F2D10A98ADEB000000F1200B59
:10312000600702D524F4803401E04FF00109D9454D
:1031300002DDA9EB0B0000E0002000EB0B01414495
:103140000890AAEB010AE00306D4DDE90F2321462B
:10315000504600F063F806444FF0000908E009A962
:1031600011F80900DDE90F12904709F10109761CF9
:10317000C145F4DBE0030CD5DDE90F2321465046C1
:1031800000F04CF8064404E0DDE90F1230209047CF
:10319000761C0899481E08900029F5DC08E00A987A
:1031A0000A990078491C0A91DDE90F129047761CB4
:1031B000BBF10001ABF1010BF1DC21465046DDE92A
:1031C0000F2300F019F806446D1C1BE609280100C6
:1031D000303132333435363738396162636465668D
:1031E000000000003031323334353637383941424F
:1031F00043444546000000002DE9F0410446002507
:103200001E461746880404D405E039462020B047FE
:103210006D1C641EF9D52846BDE8F0812DE9F0410A
:10322000044600251E469046C80301D5302700E01D
:103230002027880404D505E041463846B0476D1C78
:10324000641EF9D52846BDE8F081000010B504469B
:1032500001E0FFF7FDFC14F8010B04490028F8D148
:10326000BDE810400A20FFF7F3BC0000000000207A
:103270000000000000000000010203040607080926
:103280000000000001020304010202030405060716
:1032900008090A0B0C0D0E0F10107C202020202096
:1032A000207C2020202020207C202020207C207CAE
:1032B00020202020200D004820206520206C202088
:1032C0006C20206F2020202D2D20202020202D2D2F
:1032D00020200D0056312E302E3000000033000823
:1032E0000000002018000000C82D00081833000856
:1032F00018000020400A0000D82D0008000000003F
:1033000000000000010000001000000000127A0020
:083310000100000000000000B4
:04000005080000ED02
:00000001FF
