:020000040800F2
:10000000C009002001010008452C0008551D00080A
:10001000412C0008210200085931000800000000AE
:10002000000000000000000000000000512C00084B
:100030003D020008000000004D2C0008552C00086F
:100040001B0100081B0100081B0100081B01000820
:100050001B0100081B0100081B0100081B01000810
:100060001B0100081B0100081B0100081B01000800
:100070001B0100081B0100082502000831020008CE
:100080001B0100081B0100081B0100081B010008E0
:100090001B0100081B0100081B0100081B010008D0
:1000A0001B0100081B0100081B0100081B010008C0
:1000B0001B0100081B0100081B0100081B010008B0
:1000C0001B0100081B0100081B0100081B010008A0
:1000D0001B0100083D3100081B0100081B0100083E
:1000E0001B0100081B0100081B010008DFF80CD0F1
:1000F00000F07EF800480047D5310008C009002014
:100100000648804706480047FEE7FEE7FEE7FEE7B1
:10011000FEE7FEE7FEE7FEE7FEE7FEE7652C0008E8
:10012000ED0000082DE9F05F0546002092469B4651
:1001300088460646814640241BE0284641464746FD
:10014000224600F045F853465A46C01A914110D352
:1001500011461846224600F02CF82D1A67EB0108CC
:100160004F4622460120002100F023F817EB00093A
:100170004E41201EA4F10104DFDC484631462A46E8
:100180004346BDE8F09F30B50B46014600202022D3
:10019000012409E021FA02F59D4205D303FA02F594
:1001A000491B04FA02F52844151EA2F10102F1DCF4
:1001B00030BD202A04DB203A00FA02F1002070470B
:1001C0009140C2F1200320FA03F319439040704795
:1001D000202A04DB203A21FA02F00021704721FA9C
:1001E00002F3D040C2F12002914008431946704703
:1001F0001CB509480090094801900546009C06E09E
:10020000E06840F0010394E8070098471034AC42DE
:10021000F6D3FFF76FFF0000E03600080037000854
:10022000FEE7000040F2DC30C2F2000000F08CB8C3
:1002300040F29830C2F2000000F086B8704700002B
:10024000EFF3108072B600BFFEE70000014690F8A1
:100250002100022816D10868D1E90FC3026822F0F4
:100260000E020260026822F001020260012000FA20
:1002700003F2CCF8042081F821000020002281F84C
:1002800020207047042088630120002281F820206C
:100290007047000090F82110022923D102681168EC
:1002A00021F00E0111602F211368C4F202018A426D
:1002B00040F20401C4F2020123F00103136015DDD2
:1002C0003023C4F202039A421CD04423C4F2020336
:1002D0009A421BD05823C4F202039A421CD14FF415
:1002E000803321E004218163012070470823C4F298
:1002F00002039A420ED01C23C4F202039A420BD18D
:10030000102311E04FF480730EE000BF4FF48053D0
:100310000AE000BF012307E001F1680C4FF0807391
:10032000624508BF4FF480130B60012180F8211053
:10033000426B002180F8201022B180B59047002147
:10034000BDE880400846704710B5D0E90FCE01687F
:10035000DCF800300A6823FA0EF35C072AD512F0A5
:10036000040427D00A68920603D40A6822F0040223
:100370000A602F22C4F20202914240F20402C4F247
:1003800002025BDD3023C4F20203994272D044239F
:10039000C4F20203994273D05823C4F20203994273
:1003A00040F07A804FF480231360C16A002940F046
:1003B00098806FE09C0727D512F0020424D00A68C9
:1003C000920606D40A6822F00A020A60012280F826
:1003D00021202F22C4F20202914240F20402C4F210
:1003E00002023BDD3023C4F20203994260D0442371
:1003F000C4F2020399425FD05823C4F20203994227
:1004000060D14FF4003365E01B0743D512F00802BA
:1004100008BF10BD0A6822F00E020A60012101FA2D
:100420000EF2CCF80420816380F82110016B0022C9
:10043000002980F8202054D12CE000BF0823C4F20A
:100440000203994222D01C23C4F20203994223D111
:1004500040231360C16A002943D11BE00823C4F282
:10046000020399422CD01C23C4F20203994229D1E1
:1004700020232FE04FF480631360C16A89BB09E039
:100480004FF480431360C16A59BB03E00423136037
:10049000C16A31BB10BD00BF02F168044FF0806338
:1004A000A14208BF4FF480031360C16AC9B9F1E7E4
:1004B0004FF400730EE000BF4FF400530AE000BF9A
:1004C000022307E002F168044FF00073A14208BF65
:1004D0004FF400131360816A0022002980F8202065
:1004E000D8D0BDE810400847014600284FF0010071
:1004F00008BF70472DE9F0470A684FF6F873CBF64E
:10050000FD7302EB030C4CF6CD43CCF6CC43ACFBB5
:10051000033C6FF00307002607EA9C07C4F20206BB
:1005200001F10C0AC1E90F670227D1E9013E9AE8FF
:100530003004D1E9069881F82170176843F6F07607
:10054000B7433B4343EA0E0323432B4343EA0A03E7
:1005500043EA090343EA0803136000228A6381F82F
:10056000210081F820200020BDE8F04770470000FE
:1005700090F820C0BCF1010F04BF02207047F0B515
:100580004FF0010E80F820E090F821C0BCF1010F7F
:1005900026D14FF0020C80F821C04FF0000CC0F8BB
:1005A00038C0D0E900C4C56AC66BDCF80070102CF6
:1005B00027F00107CCF80070006C0EFA00F07060B4
:1005C0000846CCF8043004BF10460A46CCF80800B0
:1005D000CCF80C20DCF8000045B140F00E000DE036
:1005E000002180F820100220F0BD00BF20F00400A0
:1005F000CCF80000DCF8000040F00A00CCF8000065
:10060000DCF8000040F00100CCF800000020F0BD54
:10061000B0B5044600F01EF9054640F20400C2F2EF
:1006200000000078611C18BF044400BF00F012F9FC
:10063000401BA042FAD3B0BD2DE9F04F82B00E6846
:10064000002E00F0FD8041F20042C4F201020423BA
:1006500040F2004E904208BF03234FF6FF7CC4F2E5
:10066000010E009300240123C1F2100C4FF0000A88
:100670004FF0000944E000BF012704F00C030F22F3
:100680009A402BEA020207FA03F34FEA9A051A434B
:1006900046F825204E6840F20C45F202DEF80820AC
:1006A00054BF22EA080242EA0802C4F20105CEF869
:1006B00008202A68B30254BF22EA080242EA08026C
:1006C0002A60B303DEF8042054BF22EA080242EA9B
:1006D0000802F303CEF80420DEF800204FF00103F7
:1006E00054BF22EA080242EA0802CEF800200E684F
:1006F0000AF1010A36FA0AF204F1040400F0A080BB
:1007000003FA0AFB16EA0B08F1D04E68664511DCC5
:10071000122E55D8DFE806F0340A44485454545495
:100720005454545454545454544C5000D1F80C90D4
:1007300046E000BF4FF6FF72C1F2210296420FDC85
:100740000022C1F2110296421AD00022C1F2120216
:10075000964215D00022C1F22102964210D02FE01D
:100760000022C1F2220296420AD00022C1F23102D6
:10077000964205D00022C1F23202964220D100BF3B
:100780008A684AB1012A14BFC0F814B0C0F810B08A
:100790004FF0080914E000BF4FF0040910E000BF5B
:1007A000CA6802F108090BE04FF0000908E000BF39
:1007B000CA6802F1040903E0CA6802F10C0900BF2B
:1007C00022460646B8F5807F24BF203A04363768B3
:1007D0000F25954027EA050509FA02F22A433260FF
:1007E000CA79D2067FF583AF41F21803C4F202033F
:1007F0001A68AEF57E7642F001021A601A6802F0BD
:1008000001020192019A2AF0030256F802B040F662
:100810000002C4F20102904210D040F60042C4F23D
:10082000010290423FF428AF41F20002C4F20102FB
:10083000009F904208BF02271FE700BF00271CE768
:1008400002B0BDE8F08F0000002A08BF0904016172
:100850007047000040F2BC50C2F2000000687047D0
:1008600040F2040040F2BC51C2F20000C2F20001AA
:1008700000780A68104408607047000080B542F2B2
:100880000000C4F20200016841F010010160032081
:1008900000F08CF8002000F005F800F027F80020A8
:1008A00080BD000070B540F20406C2F2000640F2BE
:1008B0000C013278C2F200014FF47A730968B3FB7D
:1008C000F2F20446B1FBF2F1084600F0A7FB0F2C50
:1008D0004FF0010508D838B94FF0FF30214600220B
:1008E000002500F037F87460284670BD82B041F2F0
:1008F0001800C4F202000168022241F00101016007
:10090000016801F0010101910199416841F08051B4
:100910004160406800F08050009000980420C4F2CC
:100920000100016862F31A61016002B070470000C3
:10093000002848BF704700F01F01012202FA01F1B0
:100940001C2202EAD0004EF20012CEF200028150C8
:100950007047000010B54EF60C5CCEF2000CDCF8CF
:100960000030C3F3022E8EF00704042C28BF0424A9
:10097000BEF103034FF0FF3E0EFA04F438BF00232C
:10098000A14399400EFA03F39A43114300F00F027A
:1009900000F160430901043A03F56443624400280E
:1009A00048BF02F10C03197010BD00004EF60C5147
:1009B000CEF200010A684FF6FF031A4060F30A22E4
:1009C00042F0806040F0FD700860704770470000A2
:1009D000002804BF012070472DE9F04381B042F2A6
:1009E0000008C4F202080446D8F800000D4600F0E2
:1009F000070088420CD2D8F8000020F007002843F6
:100A0000C8F80000D8F8000000F00700A8426ED136
:100A1000206841F204098107C4F2020917D5410791
:100A200005D5D9F8001041F4E061C9F800100107BC
:100A300005D5D9F8001041F46051C9F80010D9F873
:100A40000010A26821F0F0011143C9F80010C0079E
:100A500044D1D8F8000000F00700A8420CD9D8F81B
:100A6000000020F007002843C8F80000D8F8000074
:100A700000F00700A8423AD12068410707D5D9F80D
:100A80000010E26821F4E0611143C9F8001000078A
:100A900008D5D9F80000216920F4605040EAC1006F
:100AA000C9F80000D9F8001041F6003001F00C023E
:100AB000042AC0F2B70059D0082A45D143F2826314
:100AC000C1F38342C0F600039A5CC90342D440F6E6
:100AD0000010C0F23D00504348E000BF60680228AB
:100AE0000AD001282AD159F8041C890308D401200E
:100AF00001B0BDE8F08300BF59F8041C8901F6D5A8
:100B0000D9F8001021F003010843C9F80000FFF7ED
:100B1000A1FE064641F28837D9F80000616800F06E
:100B20000C00B0EB810F94D0FFF794FE801BB8420D
:100B3000F2D9032001B0BDE8F08300BF59F8041CCE
:100B40008907D4D5DCE700BF41F20020C0F27A006B
:100B50000CE000BFD9F8001043F28063C1F34041BC
:100B6000C0F60003595C5043B0FBF1F0D9F8001017
:100B700043F26862C1F30311C0F60002515C40F217
:100B80000C0220FA01F140F20800C2F200000068F5
:100B9000C2F200021160FFF785FE002001B0BDE83F
:100BA000F08300004C20C4F2422001210160704714
:100BB00040F20C0041F20401C2F20000C4F2020152
:100BC0000068096843F27862C1F30221C0F60002AE
:100BD000515CC8407047000040F20C0041F2040133
:100BE000C2F20000C4F202010068096843F27862B0
:100BF000C1F3C221C0F60002515CC840704700003A
:100C000010B541F20804C4F202042068000658BF7F
:100C100010BDFFF7DBFE8020A07010BD002804BFD0
:100C2000012070472DE9F04182B00446007841F27E
:100C30000006C007C4F202060CD0706800F00C0079
:100C4000042840F081803068800303D56068002864
:100C500000F04E81207880071BD5706810F00C0FD3
:100C600009D0706800F00C00082840F08B80706894
:100C7000C00300F187803068800703D52069012810
:100C800040F036813068616920F0F80040EAC10028
:100C900030602078000713D4207840072CD4E56911
:100CA000002D00F02081706800F00C00082840F052
:100CB000AF80012D40F00C81012002B0BDE8F08131
:100CC000A069002800F08C800020C4F2422001219D
:100CD000C0F88014FFF7BEFD054600BF706A8007AC
:100CE00000F1BA80FFF7B6FD401B0228F6D90320B9
:100CF00002B0BDE8F08100BFF0695FEAC00808D427
:100D0000F06940F08050F061F06900F08050009090
:100D1000009847F20007C4F200073868C0054DD4B8
:100D2000386840F480703860FFF794FD054600BFD6
:100D30003868C00542D4FFF78DFD401B6428F7D901
:100D4000032002B0BDE8F081706800F00C000828B4
:100D500003D17068C0033FF576AF6068002800F0EB
:100D60000981B0F5A02F00F01D81B0F5803F00F0A3
:100D70001D81306820F480303060306820F480209D
:100D800017E100BF2069002840F20000C4F24220B1
:100D900000F08C8001210160FFF75CFD054600BF7B
:100DA000306880073FF56EAFFFF754FD401B022807
:100DB000F6D9032002B0BDE8F08100BFE06800284A
:100DC00000F09A80052800F0B180012800F0B28080
:100DD000306A20F001003062306A20F00400ACE09C
:100DE0000020C4F242200021C0F88014FFF732FD39
:100DF000054600BF706A80077FF54EAFFFF72AFDFA
:100E0000401B0228F6D9032002B0BDE8F08100BFE4
:100E10000027C4F2422700203866FFF71BFD022D91
:100E200005460DD13068800140F1D680FFF712FDF4
:100E3000401B02284FF00300F4D902B0BDE8F08156
:100E4000306880014FD5FFF705FD401B02284FF0A9
:100E50000300F5D9F1E700BF40F20C00C2F2000038
:100E6000006844F6D351C1F26201A0FB0101480AB7
:100E7000019000BF00BF0198411E002801913FF47E
:100E80000BAF00BF0198411E002801913FF404AF51
:100E900000BF0198411E002801913FF4FDAE00BF44
:100EA0000198411E00280191E4D1F5E6002101607E
:100EB000FFF7D0FC054600BF306880077FF5E9AE3C
:100EC000FFF7C8FC401B02284FF00300F4D9B4E739
:100ED0007068216A00F480328A4209D1616A00F4A4
:100EE0007010884204D1002002B0BDE8F08100BF3C
:100EF000012002B0BDE8F081306A20F001003062CC
:100F0000306A20F004003062FFF7A4FC054641F28D
:100F1000883700BF306A800722D5FFF79BFC401B53
:100F2000B8424FF00300F5D987E700BF306A40F0C0
:100F300004003062306A40F001003062FFF78AFC42
:100F4000054641F2883700BF306A800708D4FFF7B2
:100F500081FC401BB842F7D9032002B0BDE8F08104
:100F6000B8F1000F3FF59BAEF06920F08050F061C2
:100F700095E600BF306820F480303060306820F49F
:100F800080203060FFF766FC054600BF30688003B4
:100F90007FF560AEFFF75EFC401B64284FF0030056
:100FA000F4D94AE7306840F480203060306840F47B
:100FB00080303060FFF74EFC054600BF306880038C
:100FC0003FF548AEFFF746FC401B6428F6D90320E6
:100FD00002B0BDE8F08100BF206AB0F5803F05D1C6
:100FE0007168A26821F40031114371607168626A0E
:100FF00021F4741111430843706001203866FFF733
:1010000029FC0446306880013FF56DAFFFF722FCF4
:10101000001B02284FF00300F4D90EE7411E002008
:10102000B0EB116F1CBF012070474EF21002CEF2E0
:10103000000251604EF62351CEF20001F0230B70F6
:1010400007219060116070477047000010B504469A
:101050000068416994F84120212A56D111F080019D
:1010600053D000BF206850E8050F216820F08000B1
:1010700041E80502DAB1206850E8050F216820F048
:10108000800041E8050292B1206850E8050F216810
:1010900020F0800041E805024AB1206850E8050FC1
:1010A000216820F0800041E80502002ADAD1A06B17
:1010B000002818BFFFF7CAF8206850E8030F21681E
:1010C00020F0C00041E80302DAB1206850E8030FC5
:1010D000216820F0C00041E8030292B1206850E886
:1010E000030F216820F0C00041E803024AB12068E4
:1010F00050E8030F216820F0C00041E80302002AF5
:10110000DAD1202084F841002068406994F8421028
:10111000222940F0A78010F0400000F0A38000BF1B
:10112000206850E8050F216820F0400041E80502E2
:10113000DAB1206850E8050F216820F0400041E84E
:10114000050292B1206850E8050F216820F04000A8
:1011500041E805024AB1206850E8050F216820F0F7
:10116000400041E80502002ADAD1E06B002818BFF0
:10117000FFF76CF8206850E8030F216820F49070A6
:1011800041E80302BAB3206850E8030F216820F455
:10119000907041E8030272B3206850E8030F2168A1
:1011A00020F4907041E803022AB3206850E8030F4E
:1011B000216820F4907041E80302002ADAD11AE095
:1011C000206850E8050F216820F0010041E8050281
:1011D000DAB1206850E8050F216820F0010041E8ED
:1011E000050292B1206850E8050F216820F0010047
:1011F00041E805024AB1206850E8050F216820F057
:10120000010041E80502002ADAD1206B012824D12F
:10121000206850E8030F216820F0100041E8030225
:10122000DAB1206850E8030F216820F0100041E88F
:10123000030292B1206850E8030F216820F01000EB
:1012400041E803024AB1206850E8030F216820F00A
:10125000100041E80302002ADAD1202084F842007D
:1012600000202063002010BD70470000B0B582B0A0
:10127000044600680168C368426901F02F05202D0B
:1012800003F0200506D12DB1204602B0BDE8B040E4
:1012900001F0D4BE5FEA017C1EBF02F0010E03F430
:1012A000907212EB0E0243D1226BCD0618D5012AA3
:1012B00016D113F0100213D00021019101680191A1
:1012C000416801910199406940063BD4A08DE18DB0
:1012D000E28D002A18BF884240F0F28102B0B0BD12
:1012E0000A0640F1E78013F0800200F0E38094F8F2
:1012F00041102129F2D1A168B1F5805F03D12169A4
:10130000002900F06382216A4A1C22620978416048
:10131000E18C01390A04E184E0D1C16821F0800147
:10132000C160C16841F04001C16002B0B0BD00BF02
:10133000CA0718BF13F4807240F0D0804A0700F14A
:10134000D380D8E0E06B016849688AB2002AC5D032
:10135000A38D9A42C2D2E1858069202800F09E8048
:10136000206850E8030F216820F4807041E80302F0
:10137000DAB1206850E8030F216820F4807041E85A
:10138000030292B1206850E8030F216820F48070B6
:1013900041E803024AB1206850E8030F216820F4B5
:1013A000807041E80302002ADAD1206850E8050F76
:1013B000216820F0010041E80502C2B3206850E82E
:1013C000050F216820F0010041E805027AB320688A
:1013D00050E8050F216820F0010041E8050232B312
:1013E000206850E8050F216820F0010041E805025F
:1013F000002ADAD11BE000BF206850E8050F216801
:1014000020F0400041E80502DAB1206850E8050FFD
:10141000216820F0400041E8050292B1206850E8C0
:10142000050F216820F0400041E805024AB120681C
:1014300050E8050F216820F0400041E80502002A2D
:10144000DAD1202084F8420000202063206850E890
:10145000030F216820F0100041E80302DAB1206890
:1014600050E8030F216820F0100041E8030292B118
:10147000206850E8030F216820F0100041E80302C3
:101480004AB1206850E8030F216820F0100041E8BD
:101490000302002ADAD1E06BFEF7D8FE0220606377
:1014A000A08DE18D401A81B2204602B0BDE8B04067
:1014B000FFF7CABD49067FF511AF13F040013FF4B5
:1014C0000DAFC16821F04001C1602021204684F8A1
:1014D000411002B0BDE8B04000F03ABC626C42F08E
:1014E000010262644A0706D5BEF1000F03D0626CA8
:1014F00042F0020262648A0706D5BEF1000F03D0F3
:10150000626C42F004026264BCF1000F06D55EEA30
:10151000050203D0626C42F008026264626C002A29
:101520003FF4DCAE890604D51DB1204601F086FDEE
:1015300020684069616C00F0400001F0080140182B
:1015400000F0B680206850E8030F216820F4907006
:1015500041E80302BAB3206850E8030F216820F481
:10156000907041E8030272B3206850E8030F2168CD
:1015700020F4907041E803022AB3206850E8030F7A
:10158000216820F4907041E80302002ADAD11AE0C1
:10159000206850E8050F216820F0010041E80502AD
:1015A000DAB1206850E8050F216820F0010041E819
:1015B000050292B1206850E8050F216820F0010073
:1015C00041E805024AB1206850E8050F216820F083
:1015D000010041E80502002ADAD1206B012824D15C
:1015E000206850E8030F216820F0100041E8030252
:1015F000DAB1206850E8030F216820F0100041E8BC
:10160000030292B1206850E8030F216820F0100017
:1016100041E803024AB1206850E8030F216820F036
:10162000100041E80302002ADAD1202084F84200A9
:101630000020206320684069400640F1C180206896
:1016400050E8050F216820F0400041E80502DAB1BA
:10165000206850E8050F216820F0400041E80502AD
:1016600092B1206850E8050F216820F0400041E861
:1016700005024AB1206850E8050F216820F04000BB
:1016800041E80502002ADAD1E06B002800F09880DA
:1016900042F63D51C0F600014163FEF7FBFD002814
:1016A0003FF41CAEE06B416B02B0BDE8B0400847B0
:1016B0002046FFF7D9FD0020606402B0B0BD00BF36
:1016C000401A00BF216851E8031F226821F490717D
:1016D00042E80313BBB3216851E8031F226821F4D9
:1016E000907142E8031373B3216851E8031F226825
:1016F00021F4907142E803132BB3216851E8031FD2
:10170000226821F4907142E80313002BDAD11AE029
:10171000216851E8051F226821F0010142E8051304
:10172000DBB1216851E8051F226821F0010142E880
:10173000051393B1216851E8051F226821F00101CA
:1017400042E805134BB1216851E8051F226821F0DA
:10175000010142E80513002BDAD1202184F8421060
:1017600000212163216851E8031F226821F0100144
:1017700042E80313DBB1216851E8031F226821F01E
:10178000100142E8031393B1216851E8031F226856
:1017900021F0100142E803134BB1216851E8031F07
:1017A000226821F0100142E80313002BDAD1022253
:1017B00081B22046626302B0BDE8B040FFF744BC8E
:1017C000204602B0BDE8B040FFF74EBD216A31F8B7
:1017D000022B6FF35F224260216299E510B582B05F
:1017E000006843F60001C4F20101884202D002B051
:1017F00010BD00BF40F22040C2F20000006840F27D
:10180000B8440168C2F2000409071DD40168C90682
:10181000EDD5002101910168019140680190019886
:1018200040F22040C2F20000FFF710FC40F2983076
:10183000C2F2000000684068C0F1FF002080012073
:1018400084F8010119E000BF0021019102680192B2
:1018500042680192019A01910268019242680192E4
:10186000019A01910168019140680190019840F24C
:101870002040C2F20000FFF7E9FB40F22040A11C2B
:10188000C2F20000FF2202B0BDE8104000F0F0B844
:10189000002804BF0120704710B5044690F84100AD
:1018A00028B9002084F84000204600F063F8242086
:1018B00084F841002068D4E90212C36823F400537D
:1018C000C360036923F440531A430261D4E904233B
:1018D0001143C268194341F20C639A431143C1603A
:1018E0004169A26921F44071114343F60002C4F238
:1018F00001029042416103D0FFF75AF902E000BFB4
:10190000FFF76AF9D4E90023192148439900B0FB95
:10191000F1F048F21F5CC5F2EB1CA0FB0C314FF656
:101920009C734909C0F6FF7301FB0300322303EBEC
:101930000010A0FB0C03F02000EA531000EB011094
:10194000C3F34311084490601069202120F49040B3
:101950001061506920F02A005061D06840F40050B6
:10196000D0600020606484F8411084F84210606305
:1019700010BD00002DE9F04385B040F60005044697
:10198000C4F20105006805F540510027884203971D
:1019900002D005B0BDE8F08341F21800C4F20200A5
:1019A000016801AE41F480410160016840F24408E1
:1019B00001F48041009100990168C4F2020841F0ED
:1019C000040101600068314600F0040000900098B6
:1019D0004FF40070019002200290032004902846EA
:1019E000FEF72AFE4FF48060CDE901072846314614
:1019F0000397FEF721FE40F2983508F11400C2F279
:101A00000005802620214FF48059C5E900072846AB
:101A1000C5E90276C5E90477C5E90619FEF764FD54
:101A2000002818BFFEF70CFCE5636C6240F2DC3561
:101A3000C2F2000510200021C5E900802846C5E952
:101A40000216C5E90411C5E90619FEF74DFD002887
:101A500018BFFEF7F5FB252000210022A5636C626C
:101A6000FEF778FF2520FEF763FF05B0BDE8F083A1
:101A700070B582B0044690F8420020280AD113467F
:101A80000A4600294FF0010018BF002B06D102B012
:101A900070BD00BF022002B070BD00BF0025222033
:101AA0002563A262A385656484F842002168E06B27
:101AB00042F6C56C43F2250E42F64956C0F6000CBC
:101AC000C0F6000EC0F600060431C0E90ACEC0E937
:101AD0000C65FEF74DFD0195206801680191406895
:101AE00001900198206928B3206850E8030F21680D
:101AF00040F4807041E80302E2B1206850E8030F2F
:101B0000216840F4807041E803029AB1206850E8EF
:101B1000030F216840F4807041E8030252B120684D
:101B200050E8030F216840F4807041E80302002A66
:101B3000DAD100BF206850E8050F216840F00100AD
:101B400041E80502BAB3206850E8050F216840F06B
:101B5000010041E8050272B3206850E8050F2168D2
:101B600040F0010041E805022AB3206850E8050F63
:101B7000216840F0010041E80502002ADAD11AE0AC
:101B8000206850E8050F216840F0400041E8050258
:101B9000DAB1206850E8050F216840F0400041E8C4
:101BA000050292B1206850E8050F216840F040001E
:101BB00041E805024AB1206850E8050F216840F06D
:101BC000400041E80502002ADAD1002002B070BDD1
:101BD00070470000704700002DE9F041044690F87E
:101BE000410020281CBF0220BDE8F0810D460029DD
:101BF0004FF0010000F0AA801646002A08BFBDE899
:101C0000F081002060642120984684F84100FEF7AE
:101C100021FEA684E684A1680646B1F5805F02D164
:101C20002069002862D02F460025E08C002861D072
:101C300018F1010018D0B8F1000F37D1216808E081
:101C400017F8010B4860E08C0138E084E08C002834
:101C500051D00868000673D5002FF1D135F8020B7A
:101C600000276FF35F20EDE7216802E008680006B7
:101C700009D40868000606D4086800065CBF086836
:101C80005FEA0060F2D51FB117F8010B05E000BF55
:101C900035F8020B00276FF35F204860E08C0138B5
:101CA000E084E08C0028E4D125E000BF216800BF7B
:101CB0000868000608D4FEF7CDFD801B404541D8DA
:101CC0002168C868F4E700BF17B117F8010B04E0FA
:101CD00035F8020B00276FF35F204860E08C013875
:101CE000E084E08C0028E3D105E000BF0027E08C11
:101CF00000289DD12168086840061FD4B8F1000F64
:101D00001ED018F101000FD10868400616D40868EB
:101D1000400613D40868400610D4086840064FF007
:101D20000000F1D50FE000BFFEF794FD801B404599
:101D300008D82068C16800684006F5D5002002E098
:101D4000FEF788FD0320202184F84110BDE8F081D2
:101D500070470000FEE7000080B540F21803C2F2B1
:101D600000030028C3E9011218BF804743F2AF60A7
:101D7000C0F6000001F066FC43F29260C0F600007D
:101D800001F060FC08A001F05DFC0FA001F05AFC1E
:101D900015A001F057FC43F2CC611BA0C0F6000176
:101DA000BDE8804001F08CBA7C2020202020207CDF
:101DB0002020202020207C202020207C20202D2D51
:101DC0002020200D000000007C2020202020207CEE
:101DD0002020202020207C202020207C202020204B
:101DE000207C200D00000000202D2D2D2D202020F6
:101DF0002D2D2D2D202020202D2D202020202D2D7B
:101E00002020200D000000004C4C4F5320766572BE
:101E100073696F6E3A2025730D0A000040F2180CAA
:101E2000C2F2000C9CF80000002808BF70472DE9A2
:101E3000F04F83B000244FF0010E0020002506E093
:101E4000019D9CF80010013568B2884268DA40F2C2
:101E50005002C2F20002A82300FB032969B239F83C
:101E6000A00F01FB032609F1020809F104014FF05C
:101E7000780A4FF0000B019502910FE040F2180C28
:101E80000024C2F2000C87F88F404FF0010EAAF137
:101E9000080A1AF10801ABF1010BD1D006EB0B07D0
:101EA000B8F8001097F89F200843A9F800003AB14D
:101EB00087F88FE0A8F8004087F89F4008E000BF4F
:101EC00097F88F10A8F80040002987F89F40DED0CF
:101ED000DCE9061206EB0A0356F80A505B68491B58
:101EE00072EB0301D3D302990A68002ACFD00BF119
:101EF0000F010EFA01F5284081B20198C0B2904757
:101F0000B9F80010484000EA05010904A9F80000EA
:101F1000B4D040F2180CC2F2000C0024B5E700BFA8
:101F200003B0BDE8F04F704740F21001C2F200016B
:101F30000978B0FBF1F00021704700002DE9F04175
:101F400040F21800C2F20000D0F830C044F207514D
:101F5000CCF22E21ACFB011241884FEA124E7145A2
:101F600006D1018C90F8222090F82330D1E000BFF8
:101F700043F28031C0F2E1118C454FF4FA61A0F8D0
:101F800002E05DD34FF6926845F6294240F63E24C2
:101F90004FF4C875CFF6FF78734607E06FF4B67755
:101FA0003B44B3F5B67F01F1010117D98F07F5D195
:101FB00001FB02F7BEB2B60846EA8736B6B236096A
:101FC000282E07D88EB236096643360C06FB151646
:101FD0003604E3D1B3F5B77F4746E1D21C2B018429
:101FE00032D38A0732D043F2D3640022C0F6000411
:101FF00095B2655DAB42C0F086805B1B1C2B42F046
:102000000105C0F07F80AEB2A65DB3427AD39B1BC0
:102010001C2B42F0020575D3AEB2A65DB34271D35C
:102020009B1B1C2B42F003056CD3AEB2A65DB342E2
:1020300068D39B1B1B2B02F10402D9D863E000BFBD
:1020400073461C2B0184CCD200225CE045F6294269
:102050004A4394B2A50845EA8235ADB224092D0958
:1020600044EA0232282D4FF0000592B24FF00006EC
:1020700088BF0125A42A38BF012655EA060217D0D9
:1020800043F2D3640022C0F6000403E01B2B02F1EC
:10209000010238D995B2012D04D11D2BC0F09E80CC
:1020A0001D3BF3E7655DAB422DD35B1BEEE700BF45
:1020B00043F2D3640022C0F6000495B2655DAB42E2
:1020C00021D35B1B1C2B42F001051BD3AEB2A65DD6
:1020D000B34217D39B1B1C2B42F0020512D3AEB2A6
:1020E000A65DB3420ED39B1B1C2B42F0030509D304
:1020F000AEB2A65DB34205D39B1B1B2B02F10402BB
:10210000DBD800E02A460132013380F8222080F833
:10211000233040F2A3240EFB04F74BF2C536ACEBA0
:10212000C717C9F2A216A7FB0665EE0A4FF4616550
:1021300006FB157780F82460BEB248F689056E4329
:10214000750D80F825502D01A5EB5656A7EB860797
:1021500080F826708FB2BF0841F27B4677437E0C31
:10216000642506FB1511FC2606EA5747132F88BF86
:1021700064318FB201EB9707FEB225256E43A7EBC2
:102180001625EDB26D0805EB1626B608A6EBC606B9
:102190003744D2B212A6164401F0030116F8016CBE
:1021A000B1FA81F1DBB249090025032A38BF0125C4
:1021B0002940F218FFB2511A39448AB242F29343CD
:1021C0005A43A1EB12435B0803EB12429208A2EBC5
:1021D000C202114480F82710BDE8F081012292E785
:1021E0000003030601040602050003052DE9F04F74
:1021F00086B0129F37B10FF2BC3006B0BDE8F04F89
:1022000001F020BAA0F63407BFB24FF69C76B74271
:10221000C0F0C381DDF84490DDE90FBA98469646D8
:10222000B0F5FA6F24D9A0F2D17743F28036BFB26D
:10223000C0F2E116032F00F00302CDE901BACDE9A7
:102240000398CDF814E0009228D24FF4FA640025E8
:10225000009FDDF814E0DDE90398DDE901BA47B13C
:10226000A20700F089803544012F02D098E000BF1A
:1022700000254F1E390645F28011C0F2010100F021
:10228000768182073ED0F8B243F2D36607F0030CA2
:102290000428C0F6000649D200205FE020F00307C2
:1022A00048F2005AA7F2D47E45F6294B45F6284756
:1022B0004DF20A73C0F2E21A00254FF4FA64CCF230
:1022C0008F2BC0F28F27C0F2A3031FFA8EFE4FF0B0
:1022D00000080AE05544AA19324495191FFA88F2F9
:1022E000043408F104087245B2D004FB0BF94FEA3C
:1022F000B90CBC45EED84FEA39129A42EAD93544B6
:10230000E9E700BF45F62942424393B29B0843EAFE
:10231000823292B2B2F5247FFFB247D3012F57D158
:1023200005F5221000F5BD4521E100BF00F0FC00DD
:1023300047426FF0030000BF32181379547903FB52
:102340000153957904FB0133D27905FB0133043045
:1023500002FB01353A180432EED10430BCF1000F13
:1023600000F00581325CBCF1010F02FB015500F069
:10237000FE808219EDE000BF45F62942CCF28F22A3
:10238000624345F628434FEAB20CC0F28F239C45C6
:1023900048D905F1F17202F50545012F3FF469AF07
:1023A000631C9A0724D0354433E000BF020940F68D
:1023B0003E235A43120C4FF4C87302FB130000046F
:1023C0003AD0042F07F0030C74D20020B3E000BF12
:1023D00005F59C00022F00F58D3500F0C880B81E71
:1023E000FA1E032A00F0030C80F08A800220A2E08B
:1023F00045F62942CCF28F225A4345F628434FEA4C
:10240000B20CC0F28F239C4570D905F1F17202F530
:102410000545022F3FF42DAFA71CBA0738D035442D
:1024200027E700BF4DF20A734FEA3212C0F2A3034E
:102430009A423FF618AFACE7012F3FF471AF05F5B4
:102440009C00022F00F58D3500F09180B81EFA1E19
:10245000032A00F0030CC9D320F0030043F2D36633
:1024600047426FF00300C0F6000632189379D47922
:1024700003FB0153157A04FB0133527A05FB013348
:10248000043002FB01353A180432EED152E000BFAD
:1024900045F62942CCF28F22574345F628434FEAAE
:1024A000B702C0F28F239A427AD905F1F17202F590
:1024B0000545DEE607F0FC0043F2D36647426FF0C5
:1024C0000300C0F6000632181379547903FB015358
:1024D000957904FB0133D27905FB0133043002FB0B
:1024E00001353A180432EED1043024E04DF20A737B
:1024F0004FEA3212C0F2A3039A423FF654AF84E788
:1025000020F0030043F2D36647426FF00300C0F6A9
:10251000000632189379D47903FB0153157A04FB32
:102520000133527A05FB0133043002FB01353A18BE
:102530000432EED10630BCF1000F18D043F2D3675D
:10254000C0F600073A5CBCF1010F02FB01550ED04A
:10255000C2195278BCF1020F02FB015507D043F2B9
:10256000D362C0F600021044807800FB01554FF49E
:10257000616008FB00F00EFB0100CBEB0B1100EBE0
:10258000810050442844A0F5803040F21801A0F5A5
:10259000A340C2F20001C1E9030906B0BDE8F08F13
:1025A0004DF20A734FEA3712C0F2A3039A423FF684
:1025B00036AF7AE75B4C4C4F53204552524F525D39
:1025C000203E204C4C5F414C41524D5F4E554D21B9
:1025D0000D0000002DE9F04F82B09246A0F63402C3
:1025E00092B24FF69C77BA42C0F0C7819B46B0F5D5
:1025F000FA6F1BD9A0F2D17243F2803E92B2C0F2C0
:10260000E11E032A00F00303CDE900AB2AD24FF408
:10261000FA654FF0000CDDE900AB4BB1AA0700F002
:102620009F80F444012B03D0AFE000BF4FF0000CBB
:102630004D1E2906DDE90B9E45F28011C0F2010115
:1026400000F08281820743D0E8B243F2D36605F0FE
:1026500003080428C0F600064ED20020B8F1000F8F
:1026600066D171E120F0030748F20058A7F2D47454
:1026700045F6294A45F6284B4DF20A79C0F2E21890
:102680004FF0000C4FF4FA65CCF28F2AC0F28F2B7A
:10269000C0F2A309A7B200260CE000BF0CEB0804AF
:1026A00004EB0E02724402EB0E0CB2B20435043697
:1026B000BA42B0D005FB0AF44FEAB4025A45EDD84D
:1026C0004FEA34124A45E9D90CEB0E04E8E700BFA3
:1026D00045F62942424393B29B0843EA823292B2C2
:1026E000B2F5247FEEB259D3012E69D10CF5221038
:1026F00000F5BD4C28E100BF00F0FC0047426FF040
:10270000030000BF32181379547903FB01C3957994
:1027100004FB0133D27905FB0133043002FB013C99
:102720003A180432EED10430B8F1000F00F00C81F9
:10273000325CB8F1010F02FB01CC00F00581821977
:102740005278B8F1020F02FB01CC00F0FD8043F299
:10275000D362C0F600021044807800FB01CCF3E0A5
:1027600045F62942CCF28F2205FB02F445F62846B5
:102770004FEAB402C0F28F26B2424BD90CF1F1728B
:1027800002F5054C012B3FF453AF6C1CA20727D078
:10279000F444022B3FF44CAF36E000BF020940F690
:1027A0003E235A43120C4FF4C87302FB130000047B
:1027B0003AD0042E06F0030874D20020B6E000BF21
:1027C0000CF59C00022E00F58D3C00F0BD80B01E83
:1027D000F21E032A00F0030880F08C800220A5E09E
:1027E00045F62942CCF28F22544345F628464FEA5B
:1027F000B402C0F28F26B24272D90CF1F17202F526
:10280000054C022B3FF414AFAA1C930738D0F444B4
:102810000EE700BF4FEA34124DF20A74C0F2A3046F
:10282000A2423FF6FEAEA9E7012E3FF45FAF0CF5E2
:102830009C00022E00F58D3C00F08680B01EF21E3A
:10284000032A00F00308C9D320F0030043F2D36742
:1028500046426FF00300C0F600073A189379D47926
:1028600003FB01C3157A04FB0133527A05FB0133E4
:10287000043002FB013C32180432EED155E000BFB7
:1028800045F62943CCF28F235A4345F628444FEAB4
:10289000B203C0F28F24A34272D90CF1F17202F597
:1028A000054CC5E606F0FC0043F2D36746426FF0E4
:1028B0000300C0F6000700BF3A181379557903FBEF
:1028C00001C3947905FB0133D27904FB0133043051
:1028D00002FB013C32180432EED1043026E000BF86
:1028E0004FEA34124DF20A74C0F2A304A2423FF63A
:1028F0004FAF82E720F0030043F2D36746426FF008
:102900000300C0F6000700BF3A189379D47903FB9F
:1029100001C3157A04FB0133527A05FB01330430FD
:1029200002FB013C32180432EED10630B8F1000F40
:102930000AD043F2D366C0F60006325CB8F1010F4C
:1029400002FB01CC7FF4FBAE4FF461600BFB00F0A7
:102950000AFB0100C9EB091100EB810070446044DF
:10296000A0F5803040F21801A0F5A340C2F20001AA
:102970000863D1E90602C1E90A0202B0BDE8F08F9E
:102980004DF20A734FEA3212C0F2A3039A423FF6A5
:102990003EAF82E740F26841C2F200010860704732
:1029A000F0B581B040F21001C2F2000140F2180708
:1029B0000870C2F20007D7E90602013042F10002B6
:1029C000C7E90602D7E90603D7E90A260978801A7B
:1029D0004FF47A72B2FBF1F263EB06010023FDF7CC
:1029E000A1FB52EA03000CD1F868396B013139635D
:1029F000396B814205D1396919B10020002588471A
:102A00003D6140F27045C2F20005287CA8B1D7E9CB
:102A10000601D5E90064D5E90223801BA141FDF739
:102A200081FB52EA030008D1696931B10020002618
:102A30008847687C002808BF2E7495F82800B8B134
:102A4000D7E90601D5E90664D5E90823801BA14131
:102A5000FDF768FB52EA03000AD1E96A41B101209F
:102A6000884795F82900002804BF002085F8280031
:102A700095F8400060B1D7E90601D5E90C76D5E9B3
:102A80000E23C01BB141FDF74DFB52EA030001D0FC
:102A900001B0F0BD696C0029FAD00220884795F892
:102AA0004100002804BF002085F8400001B0F0BDBF
:102AB000F0B581B0032805D312A000F0C3FDFF20BC
:102AC00001B0F0BD40F218040DF1180EC2F200047E
:102AD00040F270469EE80850E569A46900EB4000AA
:102AE000C2F2000606EBC00746F8304039747A742B
:102AF000C7E90153C7F80CC0C7F814E0002001B0C3
:102B0000F0BD00BF5B4C4C4F53204552524F525DBD
:102B1000203E204C4C5F54494D45525F4E554D214F
:102B20000D00000080B582B041F21400C4F2020032
:102B30000168002241F0010101600068002100F0FD
:102B40000100019001980E20FDF704FF0E20FDF713
:102B5000EFFE0F2000210022FDF7FCFE0F2002B047
:102B6000BDE88040FDF7E4BE2DE9F04186B00026C7
:102B700041F218000596C4F20200016840F60044D4
:102B800041F0200101600168C4F2010401F020015C
:102B9000019101990168012241F00401016001687D
:102BA0004FF4707801F00401019101990168012747
:102BB00041F00801016000684FF4707100F00800F6
:102BC000019001982046FDF73FFE802002A902AD4A
:102BD000C1C1A4F580602946FDF72EFD2046294697
:102BE000CDE902760497FDF727FD022005902046E7
:102BF0002946CDE902870496FDF71EFD06B0BDE823
:102C0000F081000080B540F2204043F60001C2F29E
:102C10000000C4F2010100234FF00C0C4FF4E1322C
:102C200080E80E00C0E90333C0E905C3C361FEF7C5
:102C30002FFE002808BF80BDBDE88040FDF700BB27
:102C4000FEE70000FDF7DCFFFEE700007047000034
:102C50007047000080B50120FFF7A2FEBDE880406C
:102C6000FDF7FEBD7047000070B584B040F2204013
:102C7000C2F20000016840F2B845CA68C2F200051D
:102C800042F01002CA60A91CFF22FEF7F1FE40F2DA
:102C900011610026C0F600010020002285F80161C4
:102CA000FFF75AF843F25D10C0F60000FFF772FE1E
:102CB0006420FFF739F943F25123C0F60003CDE950
:102CC00000010020012101220293FFF7F1FE3225CD
:102CD0003B244FF4FD600C211F221723CDE9004552
:102CE000FFF778FC43F28910C0F600000521CDE91A
:102CF0000061029040F2E970012101220023039655
:102D0000FFF774FA04B070BD80B5FFF787F840F2A2
:102D1000B842C2F2000292F80101002808BF80BD4B
:102D20000023911C03A082F80131BDE8804000F02F
:102D3000C7BA00BF25730D0A00000000406A0021D9
:102D4000C185C184FEF790BA406A01684A6990F86B
:102D50004130212B2DD112F080022AD00021C184D4
:102D6000016851E8031F026821F0C00142E8031323
:102D7000DBB1016851E8031F026821F0C00142E89D
:102D8000031393B1016851E8031F026821F0C001E9
:102D900042E803134BB1016851E8031F026821F0B8
:102DA000C00142E80313002BDAD1202180F8411042
:102DB0000168496990F84220222A40F07D8011F094
:102DC000400179D00021C185016851E8031F0268E4
:102DD00021F4907142E80313BBB3016851E8031F6B
:102DE000026821F4907142E8031373B3016851E85B
:102DF000031F026821F4907142E803132BB30168AA
:102E000051E8031F026821F4907142E80313002B7C
:102E1000DAD11AE0016851E8051F026821F00101CA
:102E200042E80513DBB1016851E8051F026821F093
:102E3000010142E8051393B1016851E8051F0268DA
:102E400021F0010142E805134BB1016851E8051F6B
:102E5000026821F0010142E80513002BDAD1016B71
:102E6000012924D1016851E8031F026821F01001F3
:102E700042E80313DBB1016851E8031F026821F047
:102E8000100142E8031393B1016851E8031F02687F
:102E900021F0100142E803134BB1016851E8031F10
:102EA000026821F0100142E80313002BDAD120213F
:102EB00080F8421000210163416C41F0100141642F
:102EC000FEF7D2B90168406A0968890600F19F805F
:102ED0000021C185016851E8031F026821F4807157
:102EE00042E80313E3B1016851E8031F026821F4CB
:102EF000807142E803139BB1016851E8031F026827
:102F000021F4807142E8031353B1016851E8031FB3
:102F1000026821F4807142E80313002BDAD100BF6C
:102F2000016851E8051F026821F0010142E805131C
:102F3000BBB3016851E8051F026821F0010142E8B6
:102F4000051373B3016851E8051F026821F0010100
:102F500042E805132BB3016851E8051F026821F010
:102F6000010142E80513002BDAD11AE0016851E8AB
:102F7000051F026821F0400142E80513DBB101683A
:102F800051E8051F026821F0400142E8051393B1A2
:102F9000016851E8051F026821F0400142E805136D
:102FA0004BB1016851E8051F026821F0400142E879
:102FB0000513002BDAD1202180F84210016B012982
:102FC00025D100BF016851E8031F026821F01001FC
:102FD00042E80313DBB1016851E8031F026821F0E6
:102FE000100142E8031393B1016851E8031F02681E
:102FF00021F0100142E803134BB1016851E8031FAF
:10300000026821F0100142E80313002BDAD10021FD
:103010004163016B012918BFFEF7DABD818DFEF710
:1030200013B80000406A01214163016B012918BFF8
:10303000FEF7D0BD818D4908FEF706B881B090F843
:103040004210222921D183680246B3F5805F09D15D
:1030500052F8281F52F8183C002B63D003685B68B5
:103060000AE000BF52F8281F13B90369002BF5D0FE
:1030700003685B6803F07F030B7011680131116016
:10308000C18D01390A04C18502D001B0704700BF6B
:103090000168CA6822F02002CA60CA6822F48072FD
:1030A000CA604A6922F001024A61202180F8421078
:1030B00000214163026B012A3CD10163016851E8A0
:1030C000031F026821F0100142E80313DBB101681D
:1030D00051E8031F026821F0100142E8031393B185
:1030E000016851E8031F026821F0100142E8031350
:1030F0004BB1016851E8031F026821F0100142E85A
:103100000313002BDAD101680A68D20606D5002223
:1031100000920A680092496800910099818D01B07F
:10312000FDF792BF026852686FF35F2221F8022B0D
:103130008162A5E701B0FEF74BBD000010B540F27B
:103140002044C2F200042046FEF748FB2046BDE8BA
:103150001040FEF78BB80000FEE700004EF60C5062
:10316000BFF34F8FCEF200000168042201F4E0614A
:10317000C0F2FA5211430160BFF34F8F00BF00BF8E
:1031800000BF00BFFAE70000014601A000F098B8B8
:103190005B4C4C4F53205741524E494E475D2041A6
:1031A0004C41524D2121212049443A2025640D0AE9
:1031B0000000000080B582B0019040F22040C2F2D1
:1031C000000001A901224FF6FF73FEF705FD0198EB
:1031D00002B080BD90B0FDF751FB00240120CDE985
:1031E0000B44CDE9094406900A904FF480104FF447
:1031F000803102250F9006A8CDE90714CDE90D51C5
:10320000FDF70CFD20B1EFF3108072B6FEE700BFB2
:103210000F20CDE901054FF48060CDE9040401A839
:1032200002210394FDF7D4FB20B1EFF3108072B6B6
:10323000FEE700BFFDF7B6FCFFF796FCFFF772FC58
:10324000FFF7E0FCFFF710FDFFF75EFDFCE7000075
:10325000F0B585B040F23805C2F20005AE790746F8
:10326000FEF76CFEA87986420ED0E9782E796C794B
:103270002A88AB78ED79CDE90016CDE9024003A0AC
:103280003946049500F01CF805B0F0BD54696D6531
:10329000722049443A202564202D2D2D20253034DC
:1032A000642D253032642D2530326420253032647F
:1032B0003A253032643A253032642025640D0A0004
:1032C0000FB4054B10B503A9044A029800F018F892
:1032D00010BC5DF814FB0000B531000800000020B0
:1032E00002E008C8121F08C1002AFAD170477047CF
:1032F000002001E001C1121F002AFBD1704700002D
:103300002DE9FF4F8BB088460546002606E02528AC
:103310000BD0DDE90D1290476D1C761C2878002833
:10332000F5D10FB03046BDE8F08F0024A146A2468B
:103330000122AE4900E0044315F8013F203B02FAA8
:1033400003F00842F7D128782A2810D06FF02F0216
:103350002878A0F13001092915D809EB890102EB81
:10336000410144F0020400EB01096D1CF0E758F83C
:10337000041B5FEA010903D544F40054C9F10009B4
:1033800044F002046D1C28782E2817D115F8010F7F
:1033900044F004042A280ED06FF02F022878A0F100
:1033A000300109290AD80AEB8A0102EB410100EB3E
:1033B000010A6D1CF2E758F804AB6D1C28786C28E4
:1033C0000FD006DC4C2817D068280DD06A2814D1FD
:1033D00004E0742810D07A280FD10DE044F40014D2
:1033E0000AE044F4801401E044F440146978814216
:1033F00002D104F580146D1C6D1C2878692865D0F5
:1034000006DC00288DD0632827D0642806D15DE033
:103410006E2808D073282AD0752877D0DDE90D12E0
:103420009047761CE0E0C4F30250022809D003283C
:103430000DD0D8F8001004280DD00E6008F1040853
:10344000D2E0D8F80010F217C1E90062F6E7D8F828
:1034500000100E80F2E70E70F0E718F8041B8DF8EC
:10346000001000208DF80100EB46012003E058F821
:1034700004BB4FF0FF3061074FF0000701D40AE0B2
:103480007F1C57450DDA8742FADB1BF8071000292D
:10349000F6D106E07F1C8742FCDB1BF807100029F1
:1034A000F8D1DDE90D23A9EB07008146214600F0A4
:1034B000B1F83044C61904E0DDE90D121BF8010B28
:1034C00090477F1EF8D22146484688E058F8040B02
:1034D000C4F302514FF00A0B032900D100B20429B2
:1034E00000D140B2002802DA40422D2102E021053D
:1034F00005D52B218DF82410012104E006E0E10719
:1035000010D02021F6E708AF089113E058F8040B1B
:10351000C4F302514FF00A0B032900D180B20429F1
:1035200000D1C0B20021EEE75946FCF72CFE303145
:1035300007F8011D0028F7D1ADEB070000F1200BC3
:10354000600702D524F4803401E04FF0010ADA4527
:1035500002DDAAEB0B0000E00020824600EB0B012D
:1035600008980144A9EB01000A90E00306D4DDE9C4
:103570000D2321460A9800F04DF806444FF000094B
:1035800008E009A911F80900DDE90D12904709F1D9
:103590000109761C08998945F3DBE0030CD5DDE9C8
:1035A0000D2321460A9800F035F8064404E0DDE9D1
:1035B0000D1230209047761CBAF10001AAF1010AE1
:1035C000F5DC05E0DDE90D1217F8010B9047761CDC
:1035D000BBF10001ABF1010BF4DC0A982146DDE9F7
:1035E0000D2300F005F806446D1C97E6092801003C
:1035F0002DE9F041044600251E461746880404D4F0
:1036000005E039462020B0476D1C641EF9D52846D8
:10361000BDE8F0812DE9F041044600251E469046A4
:10362000C80301D5302700E02027880404D505E031
:1036300041463846B0476D1C641EF9D52846BDE8A2
:10364000F081000010B5044601E0FFF7B3FD14F867
:10365000010B04490028F8D1BDE810400A20FFF70B
:10366000A9BD0000000000200000000000000000D4
:103670000102030406070809000000000102030418
:10368000010202030405060708090A0B0C0D0E0FC0
:1036900010107C2020202020207C20202020202092
:1036A0007C202020207C207C20202020200D004811
:1036B00020206520206C20206C20206F2020202DD1
:1036C0002D20202020202D2D20200D0056312E30A1
:1036D0002E30001F1C1F1E1F1E1F1F1E1F1E1F001F
:1036E000003700080000002018000000E032000849
:1036F0001837000818000020A8090000F032000860
:1037000000000000010000001000000000127A001C
:083710000100000000000000B0
:04000005080000ED02
:00000001FF
