:020000040800F2
:10000000080A002001010008D1270008551D00083A
:10001000CD27000821020008B12F000800000000D1
:10002000000000000000000000000000DD270008C4
:100030003D02000800000000D9270008E127000861
:100040001B0100081B0100081B0100081B01000820
:100050001B0100081B0100081B0100081B01000810
:100060001B0100081B0100081B0100081B01000800
:100070001B0100081B0100082502000831020008CE
:100080001B0100081B0100081B0100081B010008E0
:100090001B0100081B0100081B0100081B010008D0
:1000A0001B0100081B0100081B0100081B010008C0
:1000B0001B0100081B0100081B0100081B010008B0
:1000C0001B0100081B0100081B0100081B010008A0
:1000D0001B010008952F00081B0100081B010008E8
:1000E0001B0100081B0100081B010008DFF80CD0F1
:1000F00000F07EF80048004701300008080A0020A0
:100100000648804706480047FEE7FEE7FEE7FEE7B1
:10011000FEE7FEE7FEE7FEE7FEE7FEE7F127000861
:10012000ED0000082DE9F05F0546002092469B4651
:1001300088460646814640241BE0284641464746FD
:10014000224600F045F853465A46C01A914110D352
:1001500011461846224600F02CF82D1A67EB0108CC
:100160004F4622460120002100F023F817EB00093A
:100170004E41201EA4F10104DFDC484631462A46E8
:100180004346BDE8F09F30B50B46014600202022D3
:10019000012409E021FA02F59D4205D303FA02F594
:1001A000491B04FA02F52844151EA2F10102F1DCF4
:1001B00030BD202A04DB203A00FA02F1002070470B
:1001C0009140C2F1200320FA03F319439040704795
:1001D000202A04DB203A21FA02F00021704721FA9C
:1001E00002F3D040C2F12002914008431946704703
:1001F0001CB509480090094801900546009C06E09E
:10020000E06840F0010394E8070098471034AC42DE
:10021000F6D3FFF76FFF00007C3300089C33000823
:10022000FEE7000040F22440C2F2000000F08CB86B
:1002300040F2E030C2F2000000F086B870470000E3
:10024000EFF3108072B600BFFEE70000014690F8A1
:100250002100022816D10868D1E90FC3026822F0F4
:100260000E020260026822F001020260012000FA20
:1002700003F2CCF8042081F821000020002281F84C
:1002800020207047042088630120002281F820206C
:100290007047000090F82110022923D102681168EC
:1002A00021F00E0111602F211368C4F202018A426D
:1002B00040F20401C4F2020123F00103136015DDD2
:1002C0003023C4F202039A421CD04423C4F2020336
:1002D0009A421BD05823C4F202039A421CD14FF415
:1002E000803321E004218163012070470823C4F298
:1002F00002039A420ED01C23C4F202039A420BD18D
:10030000102311E04FF480730EE000BF4FF48053D0
:100310000AE000BF012307E001F1680C4FF0807391
:10032000624508BF4FF480130B60012180F8211053
:10033000426B002180F8201022B180B59047002147
:10034000BDE880400846704710B5D0E90FCE01687F
:10035000DCF800300A6823FA0EF35C072AD512F0A5
:10036000040427D00A68920603D40A6822F0040223
:100370000A602F22C4F20202914240F20402C4F247
:1003800002025BDD3023C4F20203994272D044239F
:10039000C4F20203994273D05823C4F20203994273
:1003A00040F07A804FF480231360C16A002940F046
:1003B00098806FE09C0727D512F0020424D00A68C9
:1003C000920606D40A6822F00A020A60012280F826
:1003D00021202F22C4F20202914240F20402C4F210
:1003E00002023BDD3023C4F20203994260D0442371
:1003F000C4F2020399425FD05823C4F20203994227
:1004000060D14FF4003365E01B0743D512F00802BA
:1004100008BF10BD0A6822F00E020A60012101FA2D
:100420000EF2CCF80420816380F82110016B0022C9
:10043000002980F8202054D12CE000BF0823C4F20A
:100440000203994222D01C23C4F20203994223D111
:1004500040231360C16A002943D11BE00823C4F282
:10046000020399422CD01C23C4F20203994229D1E1
:1004700020232FE04FF480631360C16A89BB09E039
:100480004FF480431360C16A59BB03E00423136037
:10049000C16A31BB10BD00BF02F168044FF0806338
:1004A000A14208BF4FF480031360C16AC9B9F1E7E4
:1004B0004FF400730EE000BF4FF400530AE000BF9A
:1004C000022307E002F168044FF00073A14208BF65
:1004D0004FF400131360816A0022002980F8202065
:1004E000D8D0BDE810400847014600284FF0010071
:1004F00008BF70472DE9F0470A684FF6F873CBF64E
:10050000FD7302EB030C4CF6CD43CCF6CC43ACFBB5
:10051000033C6FF00307002607EA9C07C4F20206BB
:1005200001F10C0AC1E90F670227D1E9013E9AE8FF
:100530003004D1E9069881F82170176843F6F07607
:10054000B7433B4343EA0E0323432B4343EA0A03E7
:1005500043EA090343EA0803136000228A6381F82F
:10056000210081F820200020BDE8F04770470000FE
:1005700090F820C0BCF1010F04BF02207047F0B515
:100580004FF0010E80F820E090F821C0BCF1010F7F
:1005900026D14FF0020C80F821C04FF0000CC0F8BB
:1005A00038C0D0E900C4C56AC66BDCF80070102CF6
:1005B00027F00107CCF80070006C0EFA00F07060B4
:1005C0000846CCF8043004BF10460A46CCF80800B0
:1005D000CCF80C20DCF8000045B140F00E000DE036
:1005E000002180F820100220F0BD00BF20F00400A0
:1005F000CCF80000DCF8000040F00A00CCF8000065
:10060000DCF8000040F00100CCF800000020F0BD54
:10061000B0B5044600F01EF9054640F20400C2F2EF
:1006200000000078611C18BF044400BF00F012F9FC
:10063000401BA042FAD3B0BD2DE9F04F82B00E6846
:10064000002E00F0FD8041F20042C4F201020423BA
:1006500040F2004E904208BF03234FF6FF7CC4F2E5
:10066000010E009300240123C1F2100C4FF0000A88
:100670004FF0000944E000BF012704F00C030F22F3
:100680009A402BEA020207FA03F34FEA9A051A434B
:1006900046F825204E6840F20C45F202DEF80820AC
:1006A00054BF22EA080242EA0802C4F20105CEF869
:1006B00008202A68B30254BF22EA080242EA08026C
:1006C0002A60B303DEF8042054BF22EA080242EA9B
:1006D0000802F303CEF80420DEF800204FF00103F7
:1006E00054BF22EA080242EA0802CEF800200E684F
:1006F0000AF1010A36FA0AF204F1040400F0A080BB
:1007000003FA0AFB16EA0B08F1D04E68664511DCC5
:10071000122E55D8DFE806F0340A44485454545495
:100720005454545454545454544C5000D1F80C90D4
:1007300046E000BF4FF6FF72C1F2210296420FDC85
:100740000022C1F2110296421AD00022C1F2120216
:10075000964215D00022C1F22102964210D02FE01D
:100760000022C1F2220296420AD00022C1F23102D6
:10077000964205D00022C1F23202964220D100BF3B
:100780008A684AB1012A14BFC0F814B0C0F810B08A
:100790004FF0080914E000BF4FF0040910E000BF5B
:1007A000CA6802F108090BE04FF0000908E000BF39
:1007B000CA6802F1040903E0CA6802F10C0900BF2B
:1007C00022460646B8F5807F24BF203A04363768B3
:1007D0000F25954027EA050509FA02F22A433260FF
:1007E000CA79D2067FF583AF41F21803C4F202033F
:1007F0001A68AEF57E7642F001021A601A6802F0BD
:1008000001020192019A2AF0030256F802B040F662
:100810000002C4F20102904210D040F60042C4F23D
:10082000010290423FF428AF41F20002C4F20102FB
:10083000009F904208BF02271FE700BF00271CE768
:1008400002B0BDE8F08F0000002A08BF0904016172
:100850007047000040F20460C2F200000068704778
:1008600040F2040040F20461C2F20000C2F2000152
:1008700000780A68104408607047000080B542F2B2
:100880000000C4F20200016841F010010160032081
:1008900000F08CF8002000F005F800F027F80020A8
:1008A00080BD000070B540F20406C2F2000640F2BE
:1008B0000C013278C2F200014FF47A730968B3FB7D
:1008C000F2F20446B1FBF2F1084600F0A7FB0F2C50
:1008D0004FF0010508D838B94FF0FF30214600220B
:1008E000002500F037F87460284670BD82B041F2F0
:1008F0001800C4F202000168022241F00101016007
:10090000016801F0010101910199416841F08051B4
:100910004160406800F08050009000980420C4F2CC
:100920000100016862F31A61016002B070470000C3
:10093000002848BF704700F01F01012202FA01F1B0
:100940001C2202EAD0004EF20012CEF200028150C8
:100950007047000010B54EF60C5CCEF2000CDCF8CF
:100960000030C3F3022E8EF00704042C28BF0424A9
:10097000BEF103034FF0FF3E0EFA04F438BF00232C
:10098000A14399400EFA03F39A43114300F00F027A
:1009900000F160430901043A03F56443624400280E
:1009A00048BF02F10C03197010BD00004EF60C5147
:1009B000CEF200010A684FF6FF031A4060F30A22E4
:1009C00042F0806040F0FD700860704770470000A2
:1009D000002804BF012070472DE9F04381B042F2A6
:1009E0000008C4F202080446D8F800000D4600F0E2
:1009F000070088420CD2D8F8000020F007002843F6
:100A0000C8F80000D8F8000000F00700A8426ED136
:100A1000206841F204098107C4F2020917D5410791
:100A200005D5D9F8001041F4E061C9F800100107BC
:100A300005D5D9F8001041F46051C9F80010D9F873
:100A40000010A26821F0F0011143C9F80010C0079E
:100A500044D1D8F8000000F00700A8420CD9D8F81B
:100A6000000020F007002843C8F80000D8F8000074
:100A700000F00700A8423AD12068410707D5D9F80D
:100A80000010E26821F4E0611143C9F8001000078A
:100A900008D5D9F80000216920F4605040EAC1006F
:100AA000C9F80000D9F8001041F6003001F00C023E
:100AB000042AC0F2B70059D0082A45D143F2B22324
:100AC000C1F38342C0F600039A5CC90342D440F6E6
:100AD0000010C0F23D00504348E000BF60680228AB
:100AE0000AD001282AD159F8041C890308D401200E
:100AF00001B0BDE8F08300BF59F8041C8901F6D5A8
:100B0000D9F8001021F003010843C9F80000FFF7ED
:100B1000A1FE064641F28837D9F80000616800F06E
:100B20000C00B0EB810F94D0FFF794FE801BB8420D
:100B3000F2D9032001B0BDE8F08300BF59F8041CCE
:100B40008907D4D5DCE700BF41F20020C0F27A006B
:100B50000CE000BFD9F8001043F2B023C1F34041CC
:100B6000C0F60003595C5043B0FBF1F0D9F8001017
:100B700043F29822C1F30311C0F60002515C40F227
:100B80000C0220FA01F140F20800C2F200000068F5
:100B9000C2F200021160FFF785FE002001B0BDE83F
:100BA000F08300004C20C4F2422001210160704714
:100BB00040F20C0041F20401C2F20000C4F2020152
:100BC0000068096843F2A822C1F30221C0F60002BE
:100BD000515CC8407047000040F20C0041F2040133
:100BE000C2F20000C4F202010068096843F2A822C0
:100BF000C1F3C221C0F60002515CC840704700003A
:100C000010B541F20804C4F202042068000658BF7F
:100C100010BDFFF7DBFE8020A07010BD002804BFD0
:100C2000012070472DE9F04182B00446007841F27E
:100C30000006C007C4F202060CD0706800F00C0079
:100C4000042840F081803068800303D56068002864
:100C500000F04E81207880071BD5706810F00C0FD3
:100C600009D0706800F00C00082840F08B80706894
:100C7000C00300F187803068800703D52069012810
:100C800040F036813068616920F0F80040EAC10028
:100C900030602078000713D4207840072CD4E56911
:100CA000002D00F02081706800F00C00082840F052
:100CB000AF80012D40F00C81012002B0BDE8F08131
:100CC000A069002800F08C800020C4F2422001219D
:100CD000C0F88014FFF7BEFD054600BF706A8007AC
:100CE00000F1BA80FFF7B6FD401B0228F6D90320B9
:100CF00002B0BDE8F08100BFF0695FEAC00808D427
:100D0000F06940F08050F061F06900F08050009090
:100D1000009847F20007C4F200073868C0054DD4B8
:100D2000386840F480703860FFF794FD054600BFD6
:100D30003868C00542D4FFF78DFD401B6428F7D901
:100D4000032002B0BDE8F081706800F00C000828B4
:100D500003D17068C0033FF576AF6068002800F0EB
:100D60000981B0F5A02F00F01D81B0F5803F00F0A3
:100D70001D81306820F480303060306820F480209D
:100D800017E100BF2069002840F20000C4F24220B1
:100D900000F08C8001210160FFF75CFD054600BF7B
:100DA000306880073FF56EAFFFF754FD401B022807
:100DB000F6D9032002B0BDE8F08100BFE06800284A
:100DC00000F09A80052800F0B180012800F0B28080
:100DD000306A20F001003062306A20F00400ACE09C
:100DE0000020C4F242200021C0F88014FFF732FD39
:100DF000054600BF706A80077FF54EAFFFF72AFDFA
:100E0000401B0228F6D9032002B0BDE8F08100BFE4
:100E10000027C4F2422700203866FFF71BFD022D91
:100E200005460DD13068800140F1D680FFF712FDF4
:100E3000401B02284FF00300F4D902B0BDE8F08156
:100E4000306880014FD5FFF705FD401B02284FF0A9
:100E50000300F5D9F1E700BF40F20C00C2F2000038
:100E6000006844F6D351C1F26201A0FB0101480AB7
:100E7000019000BF00BF0198411E002801913FF47E
:100E80000BAF00BF0198411E002801913FF404AF51
:100E900000BF0198411E002801913FF4FDAE00BF44
:100EA0000198411E00280191E4D1F5E6002101607E
:100EB000FFF7D0FC054600BF306880077FF5E9AE3C
:100EC000FFF7C8FC401B02284FF00300F4D9B4E739
:100ED0007068216A00F480328A4209D1616A00F4A4
:100EE0007010884204D1002002B0BDE8F08100BF3C
:100EF000012002B0BDE8F081306A20F001003062CC
:100F0000306A20F004003062FFF7A4FC054641F28D
:100F1000883700BF306A800722D5FFF79BFC401B53
:100F2000B8424FF00300F5D987E700BF306A40F0C0
:100F300004003062306A40F001003062FFF78AFC42
:100F4000054641F2883700BF306A800708D4FFF7B2
:100F500081FC401BB842F7D9032002B0BDE8F08104
:100F6000B8F1000F3FF59BAEF06920F08050F061C2
:100F700095E600BF306820F480303060306820F49F
:100F800080203060FFF766FC054600BF30688003B4
:100F90007FF560AEFFF75EFC401B64284FF0030056
:100FA000F4D94AE7306840F480203060306840F47B
:100FB00080303060FFF74EFC054600BF306880038C
:100FC0003FF548AEFFF746FC401B6428F6D90320E6
:100FD00002B0BDE8F08100BF206AB0F5803F05D1C6
:100FE0007168A26821F40031114371607168626A0E
:100FF00021F4741111430843706001203866FFF733
:1010000029FC0446306880013FF56DAFFFF722FCF4
:10101000001B02284FF00300F4D90EE7411E002008
:10102000B0EB116F1CBF012070474EF21002CEF2E0
:10103000000251604EF62351CEF20001F0230B70F6
:1010400007219060116070477047000010B504469A
:101050000068416994F84120212A56D111F080019D
:1010600053D000BF206850E8050F216820F08000B1
:1010700041E80502DAB1206850E8050F216820F048
:10108000800041E8050292B1206850E8050F216810
:1010900020F0800041E805024AB1206850E8050FC1
:1010A000216820F0800041E80502002ADAD1A06B17
:1010B000002818BFFFF7CAF8206850E8030F21681E
:1010C00020F0C00041E80302DAB1206850E8030FC5
:1010D000216820F0C00041E8030292B1206850E886
:1010E000030F216820F0C00041E803024AB12068E4
:1010F00050E8030F216820F0C00041E80302002AF5
:10110000DAD1202084F841002068406994F8421028
:10111000222940F0A78010F0400000F0A38000BF1B
:10112000206850E8050F216820F0400041E80502E2
:10113000DAB1206850E8050F216820F0400041E84E
:10114000050292B1206850E8050F216820F04000A8
:1011500041E805024AB1206850E8050F216820F0F7
:10116000400041E80502002ADAD1E06B002818BFF0
:10117000FFF76CF8206850E8030F216820F49070A6
:1011800041E80302BAB3206850E8030F216820F455
:10119000907041E8030272B3206850E8030F2168A1
:1011A00020F4907041E803022AB3206850E8030F4E
:1011B000216820F4907041E80302002ADAD11AE095
:1011C000206850E8050F216820F0010041E8050281
:1011D000DAB1206850E8050F216820F0010041E8ED
:1011E000050292B1206850E8050F216820F0010047
:1011F00041E805024AB1206850E8050F216820F057
:10120000010041E80502002ADAD1206B012824D12F
:10121000206850E8030F216820F0100041E8030225
:10122000DAB1206850E8030F216820F0100041E88F
:10123000030292B1206850E8030F216820F01000EB
:1012400041E803024AB1206850E8030F216820F00A
:10125000100041E80302002ADAD1202084F842007D
:1012600000202063002010BD70470000B0B582B0A0
:10127000044600680168C368426901F02F05202D0B
:1012800003F0200506D12DB1204602B0BDE8B040E4
:1012900001F000BE5FEA017C1EBF02F0010E03F404
:1012A000907212EB0E0243D1226BCD0618D5012AA3
:1012B00016D113F0100213D00021019101680191A1
:1012C000416801910199406940063BD4A08DE18DB0
:1012D000E28D002A18BF884240F0F28102B0B0BD12
:1012E0000A0640F1E78013F0800200F0E38094F8F2
:1012F00041102129F2D1A168B1F5805F03D12169A4
:10130000002900F06382216A4A1C22620978416048
:10131000E18C01390A04E184E0D1C16821F0800147
:10132000C160C16841F04001C16002B0B0BD00BF02
:10133000CA0718BF13F4807240F0D0804A0700F14A
:10134000D380D8E0E06B016849688AB2002AC5D032
:10135000A38D9A42C2D2E1858069202800F09E8048
:10136000206850E8030F216820F4807041E80302F0
:10137000DAB1206850E8030F216820F4807041E85A
:10138000030292B1206850E8030F216820F48070B6
:1013900041E803024AB1206850E8030F216820F4B5
:1013A000807041E80302002ADAD1206850E8050F76
:1013B000216820F0010041E80502C2B3206850E82E
:1013C000050F216820F0010041E805027AB320688A
:1013D00050E8050F216820F0010041E8050232B312
:1013E000206850E8050F216820F0010041E805025F
:1013F000002ADAD11BE000BF206850E8050F216801
:1014000020F0400041E80502DAB1206850E8050FFD
:10141000216820F0400041E8050292B1206850E8C0
:10142000050F216820F0400041E805024AB120681C
:1014300050E8050F216820F0400041E80502002A2D
:10144000DAD1202084F8420000202063206850E890
:10145000030F216820F0100041E80302DAB1206890
:1014600050E8030F216820F0100041E8030292B118
:10147000206850E8030F216820F0100041E80302C3
:101480004AB1206850E8030F216820F0100041E8BD
:101490000302002ADAD1E06BFEF7D8FE0220606377
:1014A000A08DE18D401A81B2204602B0BDE8B04067
:1014B000FFF7CABD49067FF511AF13F040013FF4B5
:1014C0000DAFC16821F04001C1602021204684F8A1
:1014D000411002B0BDE8B04000F03ABC626C42F08E
:1014E000010262644A0706D5BEF1000F03D0626CA8
:1014F00042F0020262648A0706D5BEF1000F03D0F3
:10150000626C42F004026264BCF1000F06D55EEA30
:10151000050203D0626C42F008026264626C002A29
:101520003FF4DCAE890604D51DB1204601F0B2FCC3
:1015300020684069616C00F0400001F0080140182B
:1015400000F0B680206850E8030F216820F4907006
:1015500041E80302BAB3206850E8030F216820F481
:10156000907041E8030272B3206850E8030F2168CD
:1015700020F4907041E803022AB3206850E8030F7A
:10158000216820F4907041E80302002ADAD11AE0C1
:10159000206850E8050F216820F0010041E80502AD
:1015A000DAB1206850E8050F216820F0010041E819
:1015B000050292B1206850E8050F216820F0010073
:1015C00041E805024AB1206850E8050F216820F083
:1015D000010041E80502002ADAD1206B012824D15C
:1015E000206850E8030F216820F0100041E8030252
:1015F000DAB1206850E8030F216820F0100041E8BC
:10160000030292B1206850E8030F216820F0100017
:1016100041E803024AB1206850E8030F216820F036
:10162000100041E80302002ADAD1202084F84200A9
:101630000020206320684069400640F1C180206896
:1016400050E8050F216820F0400041E80502DAB1BA
:10165000206850E8050F216820F0400041E80502AD
:1016600092B1206850E8050F216820F0400041E861
:1016700005024AB1206850E8050F216820F04000BB
:1016800041E80502002ADAD1E06B002800F09880DA
:1016900042F69531C0F600014163FEF7FBFD0028DC
:1016A0003FF41CAEE06B416B02B0BDE8B0400847B0
:1016B0002046FFF7D9FD0020606402B0B0BD00BF36
:1016C000401A00BF216851E8031F226821F490717D
:1016D00042E80313BBB3216851E8031F226821F4D9
:1016E000907142E8031373B3216851E8031F226825
:1016F00021F4907142E803132BB3216851E8031FD2
:10170000226821F4907142E80313002BDAD11AE029
:10171000216851E8051F226821F0010142E8051304
:10172000DBB1216851E8051F226821F0010142E880
:10173000051393B1216851E8051F226821F00101CA
:1017400042E805134BB1216851E8051F226821F0DA
:10175000010142E80513002BDAD1202184F8421060
:1017600000212163216851E8031F226821F0100144
:1017700042E80313DBB1216851E8031F226821F01E
:10178000100142E8031393B1216851E8031F226856
:1017900021F0100142E803134BB1216851E8031F07
:1017A000226821F0100142E80313002BDAD1022253
:1017B00081B22046626302B0BDE8B040FFF744BC8E
:1017C000204602B0BDE8B040FFF74EBD216A31F8B7
:1017D000022B6FF35F224260216299E510B582B05F
:1017E000006843F60001C4F20101884202D002B051
:1017F00010BD00BF40F26840C2F20000006840F235
:1018000000540168C2F2000409071DD40168C9062A
:10181000EDD5002101910168019140680190019886
:1018200040F26840C2F20000FFF710FC40F2E030E6
:10183000C2F2000000684068C0F1FF002080012073
:1018400084F8010119E000BF0021019102680192B2
:1018500042680192019A01910268019242680192E4
:10186000019A01910168019140680190019840F24C
:101870006840C2F20000FFF7E9FB40F26840A11C9B
:10188000C2F20000FF2202B0BDE8104000F0F0B844
:10189000002804BF0120704710B5044690F84100AD
:1018A00028B9002084F84000204600F063F8242086
:1018B00084F841002068D4E90212C36823F400537D
:1018C000C360036923F440531A430261D4E904233B
:1018D0001143C268194341F20C639A431143C1603A
:1018E0004169A26921F44071114343F60002C4F238
:1018F00001029042416103D0FFF75AF902E000BFB4
:10190000FFF76AF9D4E90023192148439900B0FB95
:10191000F1F048F21F5CC5F2EB1CA0FB0C314FF656
:101920009C734909C0F6FF7301FB0300322303EBEC
:101930000010A0FB0C03F02000EA531000EB011094
:10194000C3F34311084490601069202120F49040B3
:101950001061506920F02A005061D06840F40050B6
:10196000D0600020606484F8411084F84210606305
:1019700010BD00002DE9F04385B040F60005044697
:10198000C4F20105006805F540510027884203971D
:1019900002D005B0BDE8F08341F21800C4F20200A5
:1019A000016801AE41F480410160016840F24408E1
:1019B00001F48041009100990168C4F2020841F0ED
:1019C000040101600068314600F0040000900098B6
:1019D0004FF40070019002200290032004902846EA
:1019E000FEF72AFE4FF48060CDE901072846314614
:1019F0000397FEF721FE40F2E03508F11400C2F231
:101A00000005802620214FF48059C5E900072846AB
:101A1000C5E90276C5E90477C5E90619FEF764FD54
:101A2000002818BFFEF70CFCE5636C6240F2244509
:101A3000C2F2000510200021C5E900802846C5E952
:101A40000216C5E90411C5E90619FEF74DFD002887
:101A500018BFFEF7F5FB252000210022A5636C626C
:101A6000FEF778FF2520FEF763FF05B0BDE8F083A1
:101A700070B582B0044690F8420020280AD113467F
:101A80000A4600294FF0010018BF002B06D102B012
:101A900070BD00BF022002B070BD00BF0025222033
:101AA0002563A262A385656484F842002168E06B27
:101AB00042F61D5C42F67D6E42F6A136C0F6000C81
:101AC000C0F6000EC0F600060431C0E90ACEC0E937
:101AD0000C65FEF74DFD0195206801680191406895
:101AE00001900198206928B3206850E8030F21680D
:101AF00040F4807041E80302E2B1206850E8030F2F
:101B0000216840F4807041E803029AB1206850E8EF
:101B1000030F216840F4807041E8030252B120684D
:101B200050E8030F216840F4807041E80302002A66
:101B3000DAD100BF206850E8050F216840F00100AD
:101B400041E80502BAB3206850E8050F216840F06B
:101B5000010041E8050272B3206850E8050F2168D2
:101B600040F0010041E805022AB3206850E8050F63
:101B7000216840F0010041E80502002ADAD11AE0AC
:101B8000206850E8050F216840F0400041E8050258
:101B9000DAB1206850E8050F216840F0400041E8C4
:101BA000050292B1206850E8050F216840F040001E
:101BB00041E805024AB1206850E8050F216840F06D
:101BC000400041E80502002ADAD1002002B070BDD1
:101BD00070470000704700002DE9F041044690F87E
:101BE000410020281CBF0220BDE8F0810D460029DD
:101BF0004FF0010000F0AA801646002A08BFBDE899
:101C0000F081002060642120984684F84100FEF7AE
:101C100021FEA684E684A1680646B1F5805F02D164
:101C20002069002862D02F460025E08C002861D072
:101C300018F1010018D0B8F1000F37D1216808E081
:101C400017F8010B4860E08C0138E084E08C002834
:101C500051D00868000673D5002FF1D135F8020B7A
:101C600000276FF35F20EDE7216802E008680006B7
:101C700009D40868000606D4086800065CBF086836
:101C80005FEA0060F2D51FB117F8010B05E000BF55
:101C900035F8020B00276FF35F204860E08C0138B5
:101CA000E084E08C0028E4D125E000BF216800BF7B
:101CB0000868000608D4FEF7CDFD801B404541D8DA
:101CC0002168C868F4E700BF17B117F8010B04E0FA
:101CD00035F8020B00276FF35F204860E08C013875
:101CE000E084E08C0028E3D105E000BF0027E08C11
:101CF00000289DD12168086840061FD4B8F1000F64
:101D00001ED018F101000FD10868400616D40868EB
:101D1000400613D40868400610D4086840064FF007
:101D20000000F1D50FE000BFFEF794FD801B404599
:101D300008D82068C16800684006F5D5002002E098
:101D4000FEF788FD0320202184F84110BDE8F081D2
:101D500070470000FEE7000040F21800C2F20000E9
:101D60000078704780B540F21803C2F200030028E3
:101D7000C3E9011218BF804743F2DF20C0F600001C
:101D800001F078FA43F2C220C0F6000001F072FAC6
:101D900008A001F06FFA0FA001F06CFA15A001F095
:101DA00069FA43F2FC211BA0C0F60001BDE88040A7
:101DB00001F064B97C2020202020207C20202020DD
:101DC00020207C202020207C20202D2D2020200D54
:101DD000000000007C2020202020207C20202020CB
:101DE00020207C202020207C20202020207C200DF2
:101DF00000000000202D2D2D2D2020202D2D2D2DFB
:101E0000202020202D2D202020202D2D2020200DB1
:101E1000000000004C4C4F532076657273696F6E62
:101E20003A2025730D0A000070B581B040F2500EC3
:101E3000C2F2000EDDF814C00090704650F8044F56
:101E4000009DAC4206D1044654F8045F8D4201D196
:101E5000002527E0704650F8144F009DAC4207D192
:101E6000044654F8045F8D4202D101251AE000BFF8
:101E7000704650F8244F009DAC4207D1044654F8F8
:101E8000045F8D4202D102250CE000BF704650F87D
:101E9000344F009DAC4213D1044654F8045F8D4288
:101EA0000ED10325009E066021600EEB0510002177
:101EB0008274C374A0F810C0C16001B070BD00BFCF
:101EC0009EF80000042805D30AA001B0BDE87040C8
:101ED00001F0D0B9009C0EEB00156C60AA740022D2
:101EE0000130EB74A5F810C0C5E902128EF80000AD
:101EF00001B070BD5B4C4C4F53204552524F525D68
:101F0000203E204C4C5F4C45445F4E554D210D000A
:101F100070B584B006460FA014460D4601F0AAF92C
:101F2000002E18BFB04740F25000C2F200004580BA
:101F3000284600F059F941F67173C0F60003CDE967
:101F40000001204601210122029300F077FB04B03A
:101F500070BD00BF5B4C4C4F532044454255475D1C
:101F6000204C4C4F53204C454420496E69740D0061
:101F7000F0B540F25000C2F20000B0F802C0416873
:101F800031B3836823B390F812E0BEF1000F1FD085
:101F90004168C268C77C541C028A04FB0CF56426A5
:101FA000754307FB02F6C460B5420C6834BF24EAEF
:101FB000030323430B60C16801FB0CF1914207D37B
:101FC0000021BEF1FF0FC1601CBFAEF101018174A1
:101FD000416941B3836933B390F822E0BEF1000F49
:101FE00021D04169C26990F82370541C028C04FB13
:101FF0000CF56426754307FB02F6C461B5420C6814
:1020000034BF24EA030323430B60C16901FB0CF1D5
:10201000914208D30021BEF1FF0FC1611CBFAEF198
:10202000010180F82210416A41B3836A33B390F80A
:1020300032E0BEF1000F21D0416AC26A90F83370DD
:10204000541C028E04FB0CF56426754307FB02F654
:10205000C462B5420C6834BF24EA030323430B6017
:10206000C16A01FB0CF1914208D30021BEF1FF0FC0
:10207000C1621CBFAEF1010180F83210416B59B34F
:10208000836B002B08BFF0BD90F842E0BEF1000F5B
:1020900022D0416BC26B90F84370541CB0F84020C2
:1020A00004FB0CF56426754307FB02F6C463B542D6
:1020B0000C6834BF24EA030323430B60C16B01FBAC
:1020C0000CF1914208D30021BEF1FF0FC1631CBF88
:1020D000AEF1010180F84210F0BD000040F2180C92
:1020E000C2F2000C9CF80000002808BF70472DE9E0
:1020F000F04F83B000244FF0010E0020002506E0D1
:10210000019D9CF80010013568B2884268DA40F2FF
:102110009802C2F20002A82300FB032969B239F831
:10212000A00F01FB032609F1020809F104014FF099
:10213000780A4FF0000B019502910FE040F2180C65
:102140000024C2F2000C87F88F404FF0010EAAF174
:10215000080A1AF10801ABF1010BD1D006EB0B070D
:10216000B8F8001097F89F200843A9F800003AB18A
:1021700087F88FE0A8F8004087F89F4008E000BF8C
:1021800097F88F10A8F80040002987F89F40DED00C
:10219000DCE9061206EB0A0356F80A505B68491B95
:1021A00072EB0301D3D302990A68002ACFD00BF156
:1021B0000F010EFA01F5284081B20198C0B2904794
:1021C000B9F80010484000EA05010904A9F8000028
:1021D000B4D040F2180CC2F2000C0024B5E700BFE6
:1021E00003B0BDE8F04F704740F21101C2F20001A8
:1021F0000978B0FBF1F000217047000040F21800B0
:10220000C2F20000002141617047000040F2180056
:10221000C2F200004069704740F21802C2F20002A8
:102220001178042984BFFF20704740F2980CC2F255
:10223000000CA82301FB03C3C3F8A400481C1070C2
:102240000846704740F2B041C2F200010860704792
:10225000042888BF704770B540F2980CC2F2000C99
:10226000A82400FB04CECE07BEF8A25045EA010523
:10227000AEF8A2502CD18C073BD44C074BD40C07A2
:102280005BD4CC066BD48C067CD44C0600F18D80DC
:102290000C0600F19D80CC0500F1AD808C0500F1AD
:1022A000BD804C0500F1CD800C0500F1DD80CC0433
:1022B00000F1ED808C0400F1FD804C0400F10D81F3
:1022C00009B2B1F1FF3F40F31D81BDE87040704796
:1022D00040F21805C2F20005EE69AD6900FB04C4C6
:1022E000AD185E41CEE90056012584F890508C0768
:1022F000C3D540F21804C2F20004E569A469A41829
:102300005D41CEE90245A82400FB04C4012584F800
:1023100091504C07B3D540F21804C2F20004E569AD
:10232000A469A4185D41CEE90445A82400FB04C4B7
:10233000012584F892500C07A3D540F21804C2F28C
:102340000004E569A469A4185D41CEE90645A82406
:1023500000FB04C4012584F89350CC0693D540F2C9
:102360001804C2F20004E569A469A4185D41CEE92D
:102370000845A82400FB04C4012584F894508C0669
:102380007FF583AF40F21804C2F20004E569A46946
:10239000A4185D41CEE90A45A82400FB04C4012528
:1023A00084F895504C067FF573AF40F21804C2F2E2
:1023B0000004E569A469A4185D41CEE90C45A82490
:1023C00000FB04C4012584F896500C067FF563AF2A
:1023D00040F21804C2F20004E569A469A4185D4142
:1023E000CEE90E45A82400FB04C4012584F89750CB
:1023F000CC057FF553AF40F21804C2F20004E56942
:10240000A469A4185D41CEE91045A82400FB04C4CA
:10241000012584F898508C057FF543AF40F21804ED
:10242000C2F20004E569A469A4185D41CEE9124531
:10243000A82400FB04C4012584F899504C057FF5BD
:1024400033AF40F21804C2F20004E569A469A4188D
:102450005D41CEE91445A82400FB04C4012584F89D
:102460009A500C057FF523AF40F21804C2F2000425
:10247000E569A469A4185D41CEE91645A82400FBCE
:1024800004C4012584F89B50CC047FF513AF40F2BF
:102490001804C2F20004E569A469A4185D41CEE9FC
:1024A0001845A82400FB04C4012584F89C508C0422
:1024B0007FF503AF40F21804C2F20004E569A46995
:1024C000A4185D41CEE91A45A82400FB04C40125E7
:1024D00084F89D504C047FF5F3AE40F21804C2F22C
:1024E0000004E569A469A4185D41CEE91C45A8244F
:1024F00000FB04C4012584F89E5009B2B1F1FF3FEE
:102500003FF7E3AE40F21801C2F20001CC698969DD
:10251000891844EB0302CEE91E12A82100FB01C07A
:10252000012180F89F10BDE870407047F0B581B080
:1025300040F21101C2F2000140F218070870C2F225
:102540000007D7E90602013042F10002C7E906029E
:10255000D7E90603D7E90A260978801A4FF47A7278
:10256000B2FBF1F263EB06010023FDF7DBFD52EA5B
:1025700003000CD1F868396B01313963396B814242
:1025800005D1396919B10020002588473D6140F225
:10259000B845C2F20005287CA8B1D7E90601D5E903
:1025A0000064D5E90223801BA141FDF7BBFD52EA7F
:1025B000030008D1696931B1002000268847687C92
:1025C000002808BF2E7495F82800B8B1D7E9060195
:1025D000D5E90664D5E90823801BA141FDF7A2FDDA
:1025E00052EA03000AD1E96A41B10120884795F80F
:1025F0002900002804BF002085F8280095F8400035
:1026000060B1D7E90601D5E90C76D5E90E23C01BE8
:10261000B141FDF787FD52EA030001D001B0F0BDE2
:10262000696C0029FAD00220884795F841000028FB
:1026300004BF002085F8400001B0F0BDF0B581B0C6
:10264000032805D312A000F015FEFF2001B0F0BD55
:1026500040F218040DF1180EC2F2000440F2B84620
:102660009EE80850E569A46900EB4000C2F200064C
:1026700006EBC00746F8304039747A74C7E9015355
:10268000C7F80CC0C7F814E0002001B0F0BD00BFCF
:102690005B4C4C4F53204552524F525D203E204CD4
:1026A0004C5F54494D45525F4E554D210D00000081
:1026B00080B582B041F21400C4F202000168002229
:1026C00041F0010101600068002100F0010001906B
:1026D00001980E20FEF73EF90E20FEF729F90F2093
:1026E00000210022FEF736F90F2002B0BDE880403D
:1026F000FEF71EB92DE9F04186B0002641F2180020
:102700000596C4F20200016840F6004441F0200141
:1027100001600168C4F2010401F0200101910199F6
:102720000168012241F00401016001684FF47078F2
:1027300001F00401019101990168012741F00801AC
:10274000016000684FF4707100F00800019001987A
:102750002046FEF779F8802002A902ADC1C1A4F598
:1027600080602946FDF768FF20462946CDE90276BC
:102770000497FDF761FF0220059020462946CDE928
:1027800002870496FDF758FF06B0BDE8F08100000F
:1027900080B540F2684043F60001C2F20000C4F286
:1027A000010100234FF00C0C4FF4E13280E80E00E1
:1027B000C0E90333C0E905C3C361FFF769F8002826
:1027C00008BF80BDBDE88040FDF73ABDFEE70000D0
:1027D000FEF716FAFEE700007047000070470000A1
:1027E00080B50120FFF7A2FEBDE88040FEF738B8B3
:1027F0007047000010B582B040F26840C2F200009D
:10280000016840F20054CA68C2F2000442F01002AB
:10281000CA60A11CFF22FFF72BF940F211610020D2
:10282000C0F60001002284F80101FFF79BFA42F68E
:10283000B570C0F60000FFF705FD00200A21002258
:10284000FFF766FB40F60C404FF4FA74C4F2010047
:102850004021FF220A230094FFF7E6FA00F06EF908
:10286000FFF77AFA014603A002B0BDE8104000F07D
:1028700005BC00BF5461736B204E756D3A20256412
:102880000D0A000080B5FFF729FC40F20052C2F2A9
:10289000000292F80101002808BF80BD0023911CAE
:1028A00003A082F80131BDE8804000F0E7BB00BF23
:1028B00025730D0A0000000010B508B2B0F1FF3F0B
:1028C00036DDC80746D188074ED4480756D40807D6
:1028D0005ED4C80666D488066ED4480676D4080648
:1028E00000F17E80C80500F18580880500F19080A8
:1028F000480500F19B80080500F1A680C80400F19E
:10290000B180880400F1BC8048045CBF4FF6FF70C2
:1029100010BD40F21000C2F20000017843F25830BE
:10292000C0F6000000F0AAFB4FF4804010BD00BFCD
:1029300040F21000C2F200000478FFF767FC024684
:1029400056A0214600F09AFBFFF758FC4FF40040D8
:1029500010BD00BF40F21000C2F20000017857A085
:1029600000F08CFB012010BD40F21000C2F200000C
:10297000017856A000F082FB022010BD40F210004A
:10298000C2F20000017855A000F078FB042010BDD1
:1029900040F21000C2F20000017854A000F06EFB7B
:1029A000082010BD40F21000C2F20000017853A0D0
:1029B00000F064FB102010BD40F21000C2F20000D5
:1029C000017852A000F05AFB202010BD40F2100008
:1029D000C2F20000017851A000F050FB402010BD71
:1029E00040F21000C2F20000017850A000F046FB57
:1029F000802010BD40F21000C2F20000017843F2C6
:102A00006930C0F6000000F039FB4FF4807010BD53
:102A100040F21000C2F20000017843F20330C0F629
:102A2000000000F02BFB4FF4007010BD40F21000CE
:102A3000C2F20000017843F21430C0F6000000F04A
:102A40001DFB4FF4806010BD40F21000C2F2000088
:102A5000017843F22530C0F6000000F00FFB4FF480
:102A6000006010BD40F21000C2F20000017843F295
:102A70003630C0F6000000F001FB4FF4805010BD6E
:102A800040F21000C2F20000017843F24730C0F675
:102A9000000000F0F3FA4FF4005010BD7461736B46
:102AA00025642072656365697665206D6573736161
:102AB00067653A2025730D0A000000007461736B8E
:102AC0002564206576656E74310D0A007461736B40
:102AD0002564206576656E74320D0A007461736B2F
:102AE0002564206576656E74330D0A007461736B1E
:102AF0002564206576656E74340D0A007461736B0D
:102B00002564206576656E74350D0A007461736BFB
:102B10002564206576656E74360D0A007461736BEA
:102B20002564206576656E74370D0A007461736BD9
:102B30002564206576656E74380D0A0010B542F67E
:102B4000B900C0F60000FFF767FB044640F2100032
:102B5000C2F20000FF2C04700CD00020FFF744FBF1
:102B600002460B4620464FF6FF71BDE81040FFF7C6
:102B70006FBB00BF02A000F07DFB00BFFEE700BFFF
:102B80005461736B3020696E6974206661696C658D
:102B900064210D00406A0021C185C184FEF764BB39
:102BA000406A01684A6990F84130212B2DD112F01A
:102BB00080022AD00021C184016851E8031F026805
:102BC00021F0C00142E80313DBB1016851E8031FA3
:102BD000026821F0C00142E8031393B1016851E893
:102BE000031F026821F0C00142E803134BB10168E2
:102BF00051E8031F026821F0C00142E80313002BD3
:102C0000DAD1202180F841100168496990F842200A
:102C1000222A40F07D8011F0400179D00021C18549
:102C2000016851E8031F026821F4907142E8031320
:102C3000BBB3016851E8031F026821F4907142E8B8
:102C4000031373B3016851E8031F026821F4907104
:102C500042E803132BB3016851E8031F026821F413
:102C6000907142E80313002BDAD11AE0016851E8B1
:102C7000051F026821F0010142E80513DBB101687C
:102C800051E8051F026821F0010142E8051393B1E4
:102C9000016851E8051F026821F0010142E80513AF
:102CA0004BB1016851E8051F026821F0010142E8BB
:102CB0000513002BDAD1016B012924D1016851E8F9
:102CC000031F026821F0100142E80313DBB1016821
:102CD00051E8031F026821F0100142E8031393B189
:102CE000016851E8031F026821F0100142E8031354
:102CF0004BB1016851E8031F026821F0100142E85E
:102D00000313002BDAD1202180F842100021016347
:102D1000416C41F010014164FEF7A6BA0168406AB7
:102D20000968890600F19F800021C185016851E88A
:102D3000031F026821F4807142E80313E3B10168C4
:102D400051E8031F026821F4807142E803139BB12C
:102D5000016851E8031F026821F4807142E80313FF
:102D600053B1016851E8031F026821F4807142E801
:102D70000313002BDAD100BF016851E8051F026878
:102D800021F0010142E80513BBB3016851E8051FBA
:102D9000026821F0010142E8051373B3016851E8AC
:102DA000051F026821F0010142E805132BB30168F9
:102DB00051E8051F026821F0010142E80513002BCC
:102DC000DAD11AE0016851E8051F026821F04001DC
:102DD00042E80513DBB1016851E8051F026821F0E4
:102DE000400142E8051393B1016851E8051F0268EC
:102DF00021F0400142E805134BB1016851E8051F7D
:102E0000026821F0400142E80513002BDAD12021AD
:102E100080F84210016B012925D100BF016851E8FB
:102E2000031F026821F0100142E80313DBB10168BF
:102E300051E8031F026821F0100142E8031393B127
:102E4000016851E8031F026821F0100142E80313F2
:102E50004BB1016851E8031F026821F0100142E8FC
:102E60000313002BDAD100214163016B012918BF44
:102E7000FEF7AEBE818DFEF7E7B80000406A012183
:102E80004163016B012918BFFEF7A4BE818D49087B
:102E9000FEF7DAB881B090F84210222921D1836878
:102EA0000246B3F5805F09D152F8281F52F8183C4A
:102EB000002B63D003685B680AE000BF52F8281F4C
:102EC00013B90369002BF5D003685B6803F07F0337
:102ED0000B70116801311160C18D01390A04C1857F
:102EE00002D001B0704700BF0168CA6822F020021A
:102EF000CA60CA6822F48072CA604A6922F001027C
:102F00004A61202180F8421000214163026B012AAE
:102F10003CD10163016851E8031F026821F01001F0
:102F200042E80313DBB1016851E8031F026821F096
:102F3000100142E8031393B1016851E8031F0268CE
:102F400021F0100142E803134BB1016851E8031F5F
:102F5000026821F0100142E80313002BDAD1016866
:102F60000A68D20606D5002200920A6800924968D3
:102F700000910099818D01B0FEF766B80268526831
:102F80006FF35F2221F8022B8162A5E701B0FEF703
:102F90001FBE000010B540F26844C2F20004204693
:102FA000FEF71CFC2046BDE81040FEF75FB90000AC
:102FB000FEE700004EF60C50BFF34F8FCEF200003C
:102FC0000168042201F4E061C0F2FA521143016089
:102FD000BFF34F8F00BF00BF00BF00BFFAE7000084
:102FE00080B582B0019040F26840C2F2000001A9B1
:102FF00001224FF6FF73FEF7EFFD019802B080BD8E
:1030000090B0FDF73BFC00240120CDE90B44CDE955
:10301000094406900A904FF480104FF48031022545
:103020000F9006A8CDE90714CDE90D51FDF7F6FD87
:1030300020B1EFF3108072B6FEE700BF0F20CDE99C
:1030400001054FF48060CDE9040401A80221039436
:10305000FDF7BEFC20B1EFF3108072B6FEE700BFB3
:10306000FDF7A0FDFFF746FBFFF722FBFFF790FB04
:10307000FFF7C0FBFFF706FCFCE700000FB4054BB1
:1030800010B503A9044A029800F018F810BC5DF8C6
:1030900014FB0000E12F00080000002002E008C837
:1030A000121F08C1002AFAD170477047002001E0C2
:1030B00001C1121F002AFBD1704700002DE9FF4F0C
:1030C0008BB09A460F460546002606E025280BD011
:1030D00052460D9990476D1C761C28780028F5D132
:1030E0000FB03046BDE8F08F0024A04601226049B1
:1030F00000E0044315F8013F203B02FA03F00842C8
:10310000F7D128782E2817D115F8010F44F00404C0
:103110002A280ED06FF02F022878A0F1300109295B
:103120000AD808EB880102EB410100EB01086D1C95
:10313000F2E757F8048B6D1C287869283ED006DC2E
:103140000028CDD063280BD0642804D136E0732842
:1031500010D075284BD052460D999047761C85E0CB
:1031600017F8040B8DF8000000208DF80100E946E7
:10317000012003E057F8049B4FF0FF3061074FF048
:10318000000401D40AE0641C44450DDA8442FADBF1
:1031900019F804100029F6D106E0641C8442FCDB17
:1031A00019F804100029F8D1264404E019F8010B9D
:1031B00052460D999047641EF8D257E001CF4FF068
:1031C0000A0B002802DA40422D2102E0210504D535
:1031D0002B218DF82410012103E0E10705D02021E7
:1031E000F7E70DF1200908910CE00021F9E701CF84
:1031F0004FF00A0BF9E75946FCF7C5FF01F1300221
:1032000009F8012D0028F6D1ADEB090000F1200BE3
:10321000600701D44FF00108D84502DDA8EB0B0090
:1032200000E000208046002406E009A85246005D28
:103230000D999047641C761C08988442F5DB04E0E5
:10324000302052460D999047761CB8F10001A8F144
:103250000108F5DC05E019F8010B52460D9990477D
:10326000761CBBF10001ABF1010BF4DC6D1C34E703
:103270000928010010B5044601E0FFF7B1FE14F87B
:10328000010B04490028F8D1BDE810400A20FFF7DF
:10329000A7BE0000000000200000000000000000A9
:1032A00001020304060708090000000001020304EC
:1032B000010202030405060708090A0B0C0D0E0F94
:1032C00010107C2020202020207C20202020202066
:1032D0007C202020207C207C20202020200D0048E5
:1032E00020206520206C20206C20206F2020202DA5
:1032F0002D20202020202D2D20200D0056312E3075
:103300002E30007461736B2564206576656E7431B0
:10331000300D0A007461736B2564206576656E74E8
:1033200031310D0A007461736B2564206576656E1A
:103330007431320D0A007461736B25642065766503
:103340006E7431330D0A007461736B2564206576E9
:10335000656E7431340D0A007461736B25642065E9
:1033600076656E7431350D0A007461736B256420C7
:103370006576656E74390D0A00000000A033000800
:1033800000000020180000009C300008B83300083E
:1033900018000020F0090000AC3000080000000018
:1033A00000000000010000001000000000127A0080
:0833B000FF0100000000000015
:04000005080000ED02
:00000001FF
